:020000040000fa
:10000000f0ff002081020000a9040000ab04000002
:1000100000000000000000000000000000000000e0
:1000200000000000000000000000000017030000b6
:10003000000000000000000017030000170300008c
:100040001703000017030000170300001703000048
:100050001703000017030000170300001703000038
:100060001703000017030000170300001703000028
:100070001703000017030000000000001703000032
:100080001703000017030000170300001703000008
:1000900017030000170300001703000017030000f8
:1000a00017030000170300001703000017030000e8
:1000b00017030000000000001703000017030000f2
:1000c00017030000170300001703000017030000c8
:1000d00017030000170300001703000017030000b8
:1000e00017030000170300001703000017030000a8
:1000f0001703000017030000170300001703000098
:100100001703000017030000170300001703000087
:100110001703000017030000170300001703000077
:100120001703000017030000170300001703000067
:100130001703000017030000170300001703000057
:100140001703000017030000170300001703000047
:0c01500017030000170300001703000055
:020000040000fa
:10015c00f8b5c046f8bc08bc9e4670473d0300008d
:10016c00f8b5c046f8bc08bc9e46704719030000a1
:020000040000fa
:10017c0041f20003c4f200030220187641f2004160
:10018c00c4f2000100220a7441f60001c4f200011d
:10019c0008621a8641f20002c4f20002802149046e
:1001ac0013690b42fcd046f22003c0f280031b689b
:1001bc005b009b0e9b0240f200221343d200c4f260
:1001cc000002536341f20002c4f200028021490490
:1001dc0013690b42fcd041f20003c4f2000302226b
:1001ec001a86d202c4f200028021490413690b4220
:1001fc00fcd041f60043c4f2000340f20712c0f2f7
:10020c0001021a6241f60042c4f200020421536852
:06021c001942fcd17047fd
:020000040000fa
:02022200704723
:020000040000fa
:1002240000230e4a10b513600d4a0e4c13600e4a9b
:1002340013600e4a13600e4a13600e4a5362136130
:100244000133936000f032f900f030f90a4b9c421c
:1002540000d310bd08cc9847f8e7c04670000020d2
:100264000c000020680100000800002000000020ad
:0c02740004000020100000206c010000bd
:020000040000fa
:1002800010b540f2ad43c0f20003984740f2ad43d1
:10029000c0f20003984700f07bf840f20003c0f280
:1002a00000037f2293434ef60052cef20002936089
:1002b00040f22523c0f20003984740f2ad43c0f25c
:1002c0000003984740f2ad43c0f20003984700f0a6
:0402d00001f8fee74c
:020000040000fa
:1002d40070b582b0002000f0a0f843f20001c4f22f
:1002e400000140f21c108026360580252d030024d1
:1002f40049f27f62c0f298020e500d500194019ba6
:100304009342f9d8019b01330193019b9342f9d99c
:02031400f2e70e
:020000040000fa
:02031600fee700
:020000040000fa
:1003180010b5054c237833b9044b13b1044800e0f9
:1003280000bf0123237010bd500000200000000012
:1003380000000000034b10b51bb10349034800e05f
:1003480000bf10bd000000005400002000000000a5
:020000040000fa
:1003580040f20043c4f2000300221a819a79012175
:100368000a439a719b7803221340022b0bd040f268
:100378000043c4f20003013a9a705202c4f2000228
:0803880093790b42fcd0704791
:020000040000fa
:1003900010b50a48016821b9436813b900f087f81d
:1003a00010bd04008368064a9bb20c349b009b5826
:1003b00042682000984780002018ebe7c403000043
:0403c00064040000d1
:020000040000fa
:1003c4005000002020000000000000000000002079
:1003d4005000000000000000700000200400000035
:1003e4000000000000000000000000006666666671
:020000040000fa
:1003f40043f20003c4f200030022c0f6080240f2f4
:1004040000115a50022253315a5408315a540022ce
:0a04140022395a5404315a5470473b
:020000040000fa
:10041e0010b5fff79aff44f20003c4f20013042252
:10042e005a60fff7e0fffff7a2fe00f01ef8fff79d
:08043e00f1fe00f02cf810bde6
:020000040000fa
:10044600002310b5934206d103201840421e904166
:0e0456009b08c01810bdc45ccc540133f2e703
:020000040000fa
:100464008b04000047040000a5040000a50400005c
:04047400a5040000db
:020000040000fa
:1004780044f20003c4f2001306225a60053a1a72c5
:020488007047bb
:020000040000fa
:10048a008a18914201d10020704700230b70013174
:02049a00f7e782
:020000040000fa
:08049c00bff35f8f62b67047e9
:020000040000fa
:0404a400002070477d
:020000040000fa
:0204a800fee76d
:020000040000fa
:0204aa00fee76b
:020000040000fa
:0204ac00704797
:020000040000fa
:0204ae00704795
:020000040000fa
:0204b000704793
:020000040000fa
:0200000400807a
:0440000077438fb0c3
:020000040000fa
:0200000400807a
:04400400bbf0ffff0f
:020000040000fa
:0200000400807a
:04c004000000e8ff51
:020000040000fa
:0200000400807a
:04c04000ffffffff00
:020000040000fa
:0200000400807a
:04c04400fffffffffc
:020000040000fa
:0200000400807a
:04c04800fffffffff8
:020000040000fa
:0200000400807a
:04c04c00fffffffff4
:00000001FF
