:020000040000fa
:10000000f0ff0020490500000f0800001108000063
:1000100000000000000000000000000000000000e0
:10002000000000000000000000000000bb0700000e
:100030000000000000000000bb070000bb0700003c
:10004000bb070000bb070000bb070000bb070000a8
:10005000bb070000bb070000bb070000bb07000098
:10006000bb070000bb070000bb070000bb07000088
:10007000bb070000bb07000000000000bb0700003a
:10008000bb070000bb070000bb070000bb07000068
:10009000bb070000bb070000bb070000bb07000058
:1000a000bb070000bb070000bb070000bb07000048
:1000b000bb07000000000000bb070000bb070000fa
:1000c000bb070000bb070000bb070000bb07000028
:1000d000bb070000bb070000bb070000bb07000018
:1000e000bb070000bb070000bb070000bb07000008
:1000f000bb070000bb070000bb070000bb070000f8
:10010000bb070000bb070000bb070000bb070000e7
:10011000bb070000bb070000bb070000bb070000d7
:10012000bb070000bb070000bb070000bb070000c7
:10013000bb070000bb070000bb070000bb070000b7
:10014000bb070000bb070000bb070000bb070000a7
:0c015000bb070000bb070000bb0700005d
:020000040000fa
:10015c00f8b5c046f8bc08bc9e46704711060000b6
:10016c00f8b5c046f8bc08bc9e467047ed050000cb
:020000040000fa
:10017c0041f20003c4f200030220187641f2004160
:10018c00c4f2000100220a7441f60001c4f200011d
:10019c0008621a8641f20002c4f20002802149046e
:1001ac0013690b42fcd046f22003c0f280031b689b
:1001bc005b009b0e9b0240f200221343d200c4f260
:1001cc000002536341f20002c4f200028021490490
:1001dc0013690b42fcd041f20003c4f2000302226b
:1001ec001a86d202c4f200028021490413690b4220
:1001fc00fcd041f60043c4f2000340f20712c0f2f7
:10020c0001021a6241f60042c4f200020421536852
:10021c001942fcd141f60043c4f20003e422402110
:10022c00995041f60042c4f20002e42013581942de
:10023c00fcd041f60043c4f20003f0224021995057
:10024c0041f60042c4f20002f02013581942fcd0cf
:02025c007047e9
:020000040000fa
:10025e0030b405004d400124e407254042004b0018
:10026e00120e32d01b0e3cd0ff2a33d0ff2b3fd0c4
:10027e00d21800022043000a09022143090ac4b21f
:10028e004c43000ac3b24b43000a4843210a5b1891
:10029e00190a091801d44900013a080a7f3a2adbe3
:1002ae00fe2a0fd2d2051c43240601d0012421437d
:1002be00c9b280295041802901d14008400028430d
:1002ce0030bc7047ff20c005f9e71b0eff2b0ad08c
:1002de002800f5e7400206d1ff2bf3d1490202d1e7
:1002ee00f0e7ff2af4d17f2000010c300005e7e78c
:1002fe004902f8d1e6e743020132e9d15b1202333b
:06030e00e6d9d805e4e782
:020000040000fa
:1003140030b405004d400124e407254042004b0061
:10032400120e26d01b0e34d0ff2a2dd0ff2b35d031
:10033400d21a000220430902214343084908a00db0
:100344005b1a02d2013a5b005b185b008b4200d35c
:100354005b1a4041f9d37f3222ddff2a06d2d2054f
:10036400c91a8b425041284330bc7047ff20c00556
:10037400f9e71b0e03d0ff2b12d1490210d07f20c6
:1003840000010c300005efe74002f8d1ff2bedd15e
:10039400f5e7ff2aead14002f1d1e7e74902eed1bd
:0403a4002800e1e765
:020000040000fa
:1003a800f0b5d6464f464646c0b5002000f089f95c
:1003b80000f0c1f900f0cff943f20004c4f20004e0
:1003c80040f2181980252d0340f27806c2f2000683
:1003d80043f23333c4f2530398464ff20007c4f292
:1003e8007f574b46e55000f084f900f093f9002858
:1003f800fbd000f0fbf9308040f26c0ac2f2000a30
:1004080000f0b9f94146fff726ff391cfff77effd8
:0c0418005346186040f21413e550e2e770
:020000040000fa
:1004240043f60003c4f2002301221a7043f60002cb
:10043400c4f200220121138c0b42fcd146f22003aa
:10044400c0f280031b68190240f200720a409b0646
:100454005b0f1a4343f60003c4f200239a8500227b
:100464005a708021597305319970843919815a81e0
:1004740007229a7143f60002c4f20022138c9bb245
:06048400002bfbd17047c4
:020000040000fa
:10048a0042f60003c4f2002301221a6042f6000277
:10049a00c4f20022012193681942fcd142f60003fa
:1004aa00c4f2002341f200021a6000225a6158691c
:1004ba0040f60061c4f24001014359610221d96347
:1004ca00ec3159649a64da641a65dc32ff321a64d0
:1004da0042f60002c4f200229368002bfcd1704756
:020000040000fa
:0204ea00704759
:020000040000fa
:1004ec0000230e4a10b513600d4a0e4c13600e4ad1
:1004fc0013600e4a13600e4a13600e4a5362136166
:10050c000133936000f081f900f07ff90a4b9c42b3
:10051c0000d310bd08cc9847f8e7c0467400002003
:10052c000c000020680100000800002000000020e2
:0c053c0004000020100000206c010000f2
:020000040000fa
:1005480010b540f61303c0f20003984740f61303b2
:10055800c0f20003984700f081f840f20003c0f2af
:1005680000037f2293434ef60052cef200029360be
:1005780040f2ed43c0f20003984740f61303c0f27f
:100588000003984740f61303c0f200039847fff7ab
:0405980007fffee774
:020000040000fa
:10059c005000002020000000000000007800002027
:1005ac0002000000000000007000002004000000a9
:1005bc0000000000000000205000000000000000bf
:1005cc007400002004000000000000000000000087
:1005dc000000000066666666666666666666666647
:020000040000fa
:1005ec0010b5054c237833b9044b13b1044800e023
:1005fc0000bf0123237010bd50000020000000003c
:10060c0000000000034b10b51bb10349034800e088
:10061c0000bf10bd000000005400002000000000ce
:020000040000fa
:10062c0040f20043c4f2000300221a819a7901219e
:10063c000a439a719b7803221340022b0bd040f291
:10064c000043c4f20003013a9a705202c4f2000251
:08065c0093790b42fcd07047ba
:020000040000fa
:1006640010b50a48016821b9436813b900f0d0f8fd
:1006740010bd04008368064a9bb20c349b009b584f
:1006840042682000984780002018ebe79c05000092
:04069400bc0700009f
:020000040000fa
:1006980043f20003c4f20003012243215a540131fa
:1006a8005a5430323439995401320c399954ce3273
:1006b80049049950002240f253115a541a395a5495
:0206c800704779
:020000040000fa
:1006ca0010b5fff7aeff44f20003c4f20013042290
:1006da005a60fff7dcfffff74cfd00f074f8fff7f4
:1006ea00fffefff7cdfefff798fe00f085f810bd7c
:020000040000fa
:1006fa0043f60003c4f200231a7e02210a431a7643
:10070a0043f60002c4f200224902138c0b42fcd1c8
:02071a00704726
:020000040000fa
:10071c0043f60003c4f200239a7901231000184019
:10072c001a4205d043f60003c4f2002301229a7149
:02073c00704704
:020000040000fa
:10073e0042f60003c4f200231a6802210a431a602b
:10074e0042f60002c4f2002293681942fcd17047af
:020000040000fa
:10075e0043f60003c4f200231a7802210a431a70ea
:10076e0043f60002c4f20022138c0b42fcd17047f8
:020000040000fa
:10077e009d2201000ad002d4013a4900fcd5d205cf
:0e078e00080a0906494100d30129504170476d
:020000040000fa
:10079c00002310b5934206d103201840421e90410d
:0e07ac009b08c01810bdc45ccc540133f2e7aa
:020000040000fa
:0207ba00fee758
:020000040000fa
:1007bc00e30700009d0700000b0800000b08000079
:0407cc000b08000016
:020000040000fa
:1007d00044f20003c4f2001306225a60053a1a726a
:0207e000704760
:020000040000fa
:1007e2008a18914201d10020704700230b70013119
:0207f200f7e727
:020000040000fa
:0e07f40043f60003c4f20023988c80b27047d5
:020000040000fa
:08080200bff35f8f62b670477f
:020000040000fa
:04080a000020704713
:020000040000fa
:02080e00fee703
:020000040000fa
:02081000fee701
:020000040000fa
:0208120070472d
:020000040000fa
:0208140070472b
:020000040000fa
:02081600704729
:020000040000fa
:0200000400807a
:0440000077438fb0c3
:020000040000fa
:0200000400807a
:04400400bbf0ffff0f
:020000040000fa
:0200000400807a
:04c004000000e8ff51
:020000040000fa
:0200000400807a
:04c04000ffffffff00
:020000040000fa
:0200000400807a
:04c04400fffffffffc
:020000040000fa
:0200000400807a
:04c04800fffffffff8
:020000040000fa
:0200000400807a
:04c04c00fffffffff4
:00000001FF
