:020000040000fa
:10000000f8ff0020bfb50300afb8030009b9030033
:1000100000000000000000000000000000000000e0
:10002000000000000000000000000000e7b703002f
:100030000000000000000000e7b70300e7b703007e
:10004000e7b70300e7b70300e7b70300e7b703002c
:10005000e7b70300e7b70300e7b70300e7b703001c
:10006000e7b70300e7b70300e7b7030095b4030061
:10007000e7b70300e7b7030000000000e7b703009d
:10008000e7b70300e7b70300e7b70300e7b70300ec
:10009000e7b70300e7b70300e7b70300e7b70300dc
:1000a000e7b70300e7b70300e7b70300e7b70300cc
:1000b000e7b7030000000000e7b70300e7b703005d
:1000c000e7b70300e7b70300e7b70300e7b70300ac
:1000d000e7b70300e7b70300e7b70300e7b703009c
:1000e000e7b70300e7b70300e7b70300e7b703008c
:1000f000e7b70300e7b70300e7b70300e7b703007c
:10010000e7b70300e7b70300e7b70300e7b703006b
:10011000e7b70300e7b70300e7b7030099b60300aa
:10012000e7b70300e7b70300e7b70300e7b703004b
:10013000e7b70300e7b70300e7b70300e7b703003b
:10014000e7b70300e7b70300e7b70300e7b703002b
:0c015000e7b70300e7b70300e7b70300c0
:020000040000fa
:10015c00f8b5c046f8bc08bc9e4670477db6030097
:10016c00f8b5c046f8bc08bc9e46704759b60300ab
:020000040000fa
:10017c0080808080807f807f8080807f807f808077
:10018c007f80808080807f807f807f807f807f8069
:10019c007f7f807f807f8080807f807f807f80805a
:1001ac007f807f807f80807f807f807f807f807f4b
:1001bc0080807f807f8080807f807f807f807f8039
:1001cc00807f807f80807f807f807f80807f807f2a
:1001dc00807f807f80807f807f807f807f80807f1a
:1001ec00807f80807f807f807f807f807f80807f0a
:1001fc00807f807f807f80807f8080807f807f80f9
:10020c0080807f807f807f807f8080807f80807fe8
:10021c00807f807f807f8080808080807f807f80d7
:10022c007f7f807f807f807f80807f807f7f807fcb
:10023c0080807f807f807f80807f807f807f807fb9
:10024c00807f807f807f807f807f7f807f80807faa
:10025c00807f807f8080808080808080807f807f96
:10026c00807f807f807f80807f807f807f807f8089
:10027c007f807f807f807f80807f807f807f807f7a
:10028c0080807f807f807f80807f807f8080807f68
:10029c0080807f807f807f80807f80807f807f8058
:1002ac007f807f807f807f807f807f807f807f804a
:1002bc007f80807f80807f807f80807f807f808038
:1002cc007f80807f80807f807f807f807f807f8029
:1002dc007f807f807f80807f80807f807f7f807f1a
:1002ec00807f80807f807f807f807f807f80807f09
:1002fc0080807f807f80807f807f80807f807f80f8
:10030c00807f80807f80807f807f807f80807f80e7
:10031c007f80807f80807f807f80807f807f8080d7
:10032c007f807f807f807f807f807f807f807f80c9
:10033c00807f807f807f807f807f807f807f807fb9
:10034c00807f807f807f807f8080807f807f807fa8
:10035c0080807f80807f807f80807f807f80807f97
:10036c00807f807f807f807f807f807f807f807f89
:10037c0080807f807f807f807f807f807f807f8078
:10038c007f807f807f807f807f807f80807f807f69
:10039c0080807f807f807f80807f808080807f8056
:1003ac007f807f7f807f807f80808080807f807f48
:1003bc00807f807f7f807f807f80807f807f808038
:1003cc007f807f807f80807f807f80807f807f8028
:1003dc00807f807f807f807f80807f80807f807f18
:1003ec008080807f7f807f807f807f807f807f8008
:1003fc007f807f807f80807f8080807f807f807ff8
:10040c00807f80807f80807f807f807f807f807fe7
:10041c00807f807f80807f807f7f807f80807f80d7
:10042c007f7f807f807f808080807f8080808080c5
:10043c00807f807f807f7f80807f807f7f807f80b8
:10044c007f807f807f7f807f807f8080807f8080a7
:10045c007f807f80807f8080807f807f80807f8096
:10046c00807f807f8080807f807f8080807f807f86
:10047c00807f8080807f807f807f807f807f807f77
:10048c00807f8080807f807f8080807f807f808065
:10049c007f807f807f807f807f80807f807f807f58
:1004ac00807f807f807f807f80807f807f80807f47
:1004bc00807f80807f80807f80807f807f807f8036
:1004cc0080808080807f807f807f807f807f807f26
:1004dc00807f807f807f807f807f7f808080808016
:1004ec007f8080807f807f807f7f807f807f807f08
:1004fc0080807f807f80807f807f80807f807f80f6
:10050c0080808080807f807f80807f807f807f80e4
:10051c00807f807f807f807f80807f807f807f80d6
:10052c007f80807f807f8080807f807f807f807fc6
:10053c008080808080807f807f807f80807f807fb4
:10054c00807f807f807f807f80807f807f80807fa6
:10055c0080807f80807f80807f807f807f80807f95
:10056c0080807f807f80807f807f807f80807f8085
:10057c00807f807f807f80807f807f807f80807f76
:10058c00807f807f807f807f807f80807f807f8066
:10059c007f807f807f807f7f807f807f807f807f58
:1005ac0080807f807f807f807f80807f80807f8045
:1005bc007f807f807f807f807f807f807f80807f37
:1005cc0080807f807f807f808080807f8080808023
:1005dc00807f807f8080807f807f807f807f807f16
:1005ec00807f807f807f80807f807f80807f807f06
:1005fc00807f80807f807f807f807f807f808080f5
:10060c00807f807f80807f807f807f807f807f80e5
:10061c007f807f80807f807f808080807f808080d3
:10062c0080807f807f808080807f807f807f8080c3
:10063c0080807f807f80807f8080808080807f80b2
:10064c00807f807f807f807f807f80808080807fa4
:10065c00807f807f807f80807f807f807f807f8095
:10066c00807f807f807f80807f807f80807f807f85
:10067c00807f807f807f807f807f807f80807f8075
:10068c007f80807f807f807f80807f807f807f8065
:10069c007f807f7f807f7f807f807f80807f807f57
:1006ac0080807f807f807f807f807f807f80807f45
:1006bc00807f807f80807f807f807f807f80807f35
:1006cc00807f807f80807f80807f80807f807f8024
:1006dc00807f80807f80807f807f80808080808012
:1006ec008080807f807f807f807f807f807f807f05
:1006fc0080807f807f807f807f807f80807f807ff5
:10070c008080808080808080807f807f807f807fe1
:10071c00807f807f807f807f7f807f807f80807fd5
:10072c0080807f807f807f807f807f807f80807fc4
:10073c00807f807f80807f807f80807f807f8080b3
:10074c0080807f80807f807f807f807f80807f7fa4
:10075c00807f80807f80807f807f8080807f807f93
:10076c00807f80807f807f807f807f807f807f8084
:10077c007f807f807f807f807f807f807f80807f75
:10078c00807f807f807f807f80807f807f80808063
:10079c007f80808080807f807f80807f80807f8052
:1007ac007f80807f807f807f807f80807f80808043
:1007bc00807f807f807f807f807f807f8080808033
:1007cc007f807f807f807f8080807f807f80807f24
:1007dc00807f8080807f807f8080807f80807f8012
:1007ec007f807f807f807f7f807f807f807f807f06
:1007fc00807f80807f807f808080807f80808080f1
:10080c007f807f807f807f80807f807f807f807fe4
:10081c00807f807f80807f8080807f807f807f80d2
:10082c00807f807f807f7f807f807f8080807f80c3
:10083c007f807f80807f807f807f80807f807f80b3
:10084c007f8080807f80807f807f807f807f807fa3
:10085c0080807f807f807f80807f807f8080807f92
:10086c00807f807f807f80807f80807f807f807f83
:10087c00807f807f807f807f807f807f8080808072
:10088c007f808080807f807f807f7f807f807f8063
:10089c00807f807f807f807f7f808080807f807f53
:1008ac00807f80807f807f807f807f8080807f8042
:1008bc007f807f807f807f807f807f80807f807f34
:1008cc00807f807f807f807f807f80807f80807f23
:1008dc00807f80807f80807f807f807f80807f8012
:1008ec007f80807f807f807f807f807f807f807f04
:1008fc00807f80807f80807f807f807f7f807f80f3
:10090c007f807f807f807f807f807f8080808080e1
:10091c007f807f80807f807f807f807f807f807fd3
:10092c00807f807f7f807f807f807f807f807f80c3
:10093c00807f807f7f807f807f807f807f80807fb3
:10094c00807f807f80807f807f80807f807f807fa2
:10095c00807f80807f807f807f807f7f807f807f93
:10096c0080807f80807f807f80807f807f7f807f82
:10097c0080807f807f80807f80807f807f80808070
:10098c007f807f807f807f807f807f807f807f8063
:10099c007f807f807f80808080807f80808080804f
:1009ac007f807f807f807f7f807f807f80807f8043
:1009bc007f80807f807f80807f80807f80807f8031
:1009cc007f807f807f807f80807f807f807f807f23
:1009dc0080807f80807f807f807f80807f807f8011
:1009ec00807f80807f807f80807f807f80807f8001
:1009fc00807f80807f807f80808080807f807f80f0
:100a0c007f807f80807f8080808080807f807f80df
:100a1c00807f807f807f807f807f807f80807f80d1
:100a2c00807f807f807f807f807f807f807f8080c1
:100a3c00807f807f807f807f807f80807f808080b0
:100a4c00807f80808080808080807f807f807f809e
:100a5c007f807f807f807f807f807f8080807f8091
:100a6c007f80807f807f807f807f807f807f807f82
:100a7c00807f807f80807f80807f807f807f807f71
:100a8c0080807f807f808080807f808080807f805e
:100a9c00807f807f807f807f807f80807f807f8051
:100aac0080807f80807f807f8080808080807f803e
:100abc007f807f807f807f807f80807f807f808031
:100acc007f80807f807f807f807f8080807f807f21
:100adc00807f807f807f807f807f80808080807f10
:100aec00807f8080807f807f807f80807f80807f00
:100afc00807f807f80807f807f80807f807f8080f0
:100b0c007f80807f80807f807f807f80807f807fe0
:100b1c00807f808080808080807f807f807f8080cd
:100b2c0080807f807f807f807f807f7f807f807fc1
:100b3c007f808080807f807f807f7f807f80807fb0
:100b4c00807f7f807f807f80807f807f808080809f
:100b5c0080807f807f807f807f807f80807f80808f
:100b6c007f807f807f807f807f807f80807f807f81
:100b7c00807f807f807f807f807f807f80807f8070
:100b8c007f80807f808080807f808080807f807f5e
:100b9c00807f807f807f80807f807f807f807f8050
:100bac007f807f80807f807f807f80807f807f8040
:100bbc007f807f807f8080807f80807f807f807f30
:100bcc00807f807f807f807f807f807f80807f8020
:100bdc00807f807f807f807f807f807f8080807f10
:100bec00807f807f8080807f80807f80807f8080fe
:100bfc007f807f80807f807f807f807f807f807ff1
:100c0c00807f807f807f807f807f807f807f807fe0
:100c1c00807f8080807f807f8080808080807f80cc
:100c2c007f807f8080808080808080807f807f80bc
:100c3c00808080807f807f807f80807f807f807fae
:100c4c00807f807f807f807f807f807f807f807fa0
:100c5c00807f807f807f7f807f807f80807f807f90
:100c6c00807f807f807f807f807f7f807f807f8080
:100c7c007f807f7f807f807f807f807f807f807f71
:100c8c00807f80807f807f807f8080807f807f805e
:100c9c007f808080808080807f807f80807f807f4d
:100cac0080807f807f807f807f807f80808080803d
:100cbc00807f807f807f80807f807f807f807f802f
:100ccc007f80807f807f807f80807f807f807f801f
:100cdc007f807f807f807f80807f807f807f80800f
:100cec007f807f807f807f80807f80807f7f807f00
:100cfc00807f80807f807f807f807f80807f8080ee
:100d0c007f807f80807f7f807f807f8080808080dd
:100d1c00808080807f80808080807f807f807f80cb
:100d2c007f807f80807f807f807f807f807f807fbf
:100d3c00807f7f807f80807f807f80807f807f80ae
:100d4c00807f807f807f80807f807f807f807f809e
:100d5c007f807f807f807f807f8080807f807f7f8f
:100d6c00807f807f807f807f807f807f807f80807e
:100d7c007f80807f807f807f80807f80808080806c
:100d8c007f807f807f807f807f807f80807f807f5f
:100d9c0080808080807f807f80807f80807f80804b
:100dac007f807f807f807f807f80807f807f807f3f
:100dbc00807f80807f8080807f808080807f807f2c
:100dcc00807f80807f807f80808080807f8080801b
:100ddc00807f80807f807f807f807f807f807f800e
:100dec007f80807f807f80807f807f807f80807ffe
:100dfc00807f807f807f807f807f807f807f807fef
:100e0c007f807f807f80807f80807f807f7f807fde
:100e1c0080807f807f807f807f807f8080808080cb
:100e2c007f807f80807f807f807f80807f807f80bd
:100e3c007f8080807f807f807f807f807f807f80ad
:100e4c007f807f807f80807f807f807f807f807f9e
:100e5c0080807f807f80807f807f80807f807f808c
:100e6c007f807f80807f807f8080807f807f807f7d
:100e7c0080807f807f807f807f80807f80807f806c
:100e8c007f807f807f807f80807f807f807f80805d
:100e9c007f807f7f807f807f807f807f807f807f4f
:100eac00807f80807f807f80807f807f807f80803c
:100ebc007f807f807f807f80807f80807f807f802d
:100ecc007f807f807f80807f807f807f807f807f1e
:100edc00807f807f807f80807f80807f807f807f0d
:100eec00807f807f807f7f807f807f807f807f80fe
:100efc007f807f808080807f807f807f807f8080ec
:100f0c007f807f807f807f807f807f807f807f80dd
:100f1c007f807f807f8080807f807f7f807f807fcd
:100f2c00807f807f807f7f807f807f8080807f80bc
:100f3c007f7f807f807f807f80807f807f807f80ad
:100f4c007f807f80807f80807f807f807f807f809c
:100f5c00807f807f807f807f807f8080807f807f8c
:100f6c008080807f807f807f7f807f7f807f807f7d
:100f7c00807f807f807f80807f80807f807f807f6c
:100f8c0080807f807f808080808080808080807f58
:100f9c00808080807f807f807f80807f807f807f4b
:100fac0080807f807f807f807f807f8080807f803b
:100fbc007f807f807f807f807f807f807f807f802d
:100fcc00807f807f80807f807f807f807f807f801c
:100fdc007f7f807f807f80807f807f807f807f800d
:100fec007f807f80807f80807f807f807f80807ffc
:100ffc0080807f807f807f807f807f807f807f80ec
:10100c00807f80807f80807f80807f807f807f80da
:10101c007f807f807f8080808080807f807f807fca
:10102c00807f807f807f8080807f808080807f80b9
:10103c0080807f807f80807f807f807f80807f80aa
:10104c00807f808080807f80807f807f807f807f9a
:10105c0080807f80807f80807f80807f807f807f8a
:10106c00807f807f80807f807f807f807f807f807b
:10107c007f807f80807f80807f807f807f807f806b
:10108c007f8080808080808080807f807f807f8058
:10109c007f807f807f80808080807f80807f807f4a
:1010ac00807f80807f807f80807f808080807f8039
:1010bc007f807f807f807f807f80807f80807f802b
:1010cc007f807f80807f8080807f807f807f807f1b
:1010dc00807f807f807f80807f807f807f807f800b
:1010ec00807f807f807f80807f807f80807f807ffb
:1010fc00807f807f807f807f80807f807f807f80eb
:10110c007f80807f807f807f7f807f807f807f80db
:10111c007f807f807f807f807f80807f807f8080ca
:10112c007f807f80807f807f807f807f807f8080ba
:10113c00807f807f807f807f80807f807f807f80aa
:10114c007f807f807f8080807f807f807f80807f9a
:10115c00807f807f807f807f807f807f80807f808a
:10116c007f807f80807f807f807f807f807f80807a
:10117c008080807f807f807f8080807f807f807f69
:10118c00808080807f808080808080807f807f8056
:10119c007f80807f807f80808080807f80807f8048
:1011ac00807f807f807f807f807f807f8080807f3a
:1011bc007f7f80808080807f8080807f807f808028
:1011cc0080807f807f808080807f7f7f807f7f7f1b
:1011dc007f7f7f7f7f7f8080807f7f7f7f7f807f0f
:1011ec007f7f807f8080807f7f80808080808080f8
:1011fc00808080808080807f8080808080807f80e5
:10120c0080807f7f807f7f807f7f7f807f7f7f7fdd
:10121c007f7f7f7f7f7f807f7f807f7f7f7f7f7fd0
:10122c007f807f7f80807f8080807f8080807f80b8
:10123c007f8080807f8080807f7f7f7f7f7f8080aa
:10124c00807f7f7f7f8080807f7f7f808080807f9a
:10125c008080808080807f7f7f7f7f80807f7f8089
:10126c00807f80807f7f7f7f7f7f807f7f7f807f7d
:10127c008080807f7f7f80808080807f8080808066
:10128c0080807f7f7f7f7f7f807f7f7f808080805b
:10129c007f7f7f807f7f80807f7f7f7f7f80807f4d
:1012ac007f7f807f7f807f7f7f7f8080808080803a
:1012bc008080808080808080807f80808080808023
:1012cc0080807f80807f7f807f7f7f807f7f807f1b
:1012dc007f7f7f7f7f7f7f8080807f7f7f7f807f0e
:1012ec007f7f7f80807f7f808080808080808080f7
:1012fc007f7f7f808080807f7f8080807f808080e8
:10130c007f7f807f7f7f808080807f7f7f7f7f7fdc
:10131c007f7f7f7f7f807f7f7f7f7f7f7f7f7f7fd0
:10132c007f7f808080808080808080807f7f8080b5
:10133c007f7f807f7f80808080807f7f7f808080a8
:10134c0080807f7f8080808080808080807f808094
:10135c007f7f7f8080807f807f7f7f7f807f7f7f8c
:10136c007f7f7f7f8080807f7f80807f7f807f7f7b
:10137c00807f8080808080808080807f7f80808064
:10138c0080808080807f7f7f7f8080807f7f7f8058
:10139c00807f7f7f7f7f80807f80807f7f80808049
:1013ac0080807f7f80807f7f807f7f7f807f7f7f3b
:1013bc008080807f7f80807f7f8080808080808025
:1013cc0080807f7f7f7f7f7f7f7f7f8080807f7f1c
:1013dc007f808080807f7f80808080807f7f808006
:1013ec00807f7f80807f7f7f8080808080808080f6
:1013fc0080807f7f7f7f7f7f7f7f7f8080808080ea
:10140c00807f7f7f7f808080807f80807f807f7fd8
:10141c007f7f7f7f7f7f80807f80808080808080c7
:10142c00807f807f7f7f7f7f7f7f7f7f7f7f7f7fbe
:10143c007f7f8080807f80808080808080808080a3
:10144c00808080807f7f7f80807f7f7f7f7f7f7f9a
:10145c007f7f7f7f7f7f808080808080807f807f88
:10146c00807f7f7f8080808080807f7f7f807f7f78
:10147c007f8080808080808080807f8080807f7f64
:10148c007f7f7f7f7f7f7f7f807f7f7f7f7f7f7f5f
:10149c00808080807f7f80808080808080807f7f44
:1014ac0080808080807f7f7f7f7f80807f7f808037
:1014bc0080808080807f7f7f7f7f7f7f7f7f808029
:1014cc00807f7f8080807f7f7f7f7f7f7f7f7f801b
:1014dc007f807f7f7f7f7f7f7f7f7f7f807f807f0d
:1014ec007f807f7f7f807f7f8080808080808080f6
:1014fc008080807f7f7f7f7f7f7f7f7f7f7f7f80ec
:10150c0080807f7f7f7f7f7f7f7f807f7f7f7f7fdc
:10151c007f7f7f807f7f807f7f7f808080808080c7
:10152c00808080808080808080807f7f7f7f7f7fb5
:10153c007f7f7f7f7f80807f807f7f7f7f7f7f7fac
:10154c007f7f7f7f7f80807f7f807f7f80807f7f9a
:10155c007f7f7f7f7f7f7f7f808080808080808087
:10156c00808080807f7f7f7f807f7f7f7f7f7f7f7a
:10157c007f7f7f7f7f808080808080808080808064
:10158c00807f807f7f807f7f7f7f7f7f7f7f7f7f5c
:10159c007f7f7f7f7f7f7f7f808080808080808047
:1015ac0080808080808080807f7f7f7f807f7f7f36
:1015bc007f7f7f7f7f7f7f7f808080808080808027
:1015cc007f808080807f7f7f7f7f7f7f7f7f7f801a
:1015dc007f7f808080808080808080807f7f7f7f05
:1015ec007f7f7f7f7f807f7f7f807f8080808080f8
:1015fc00808080808080807f7f7f7f7f7f7f7f7fe8
:10160c007f7f7f7f7f8080808080808080808080d3
:10161c007f807f7f7f7f7f7f7f7f7f7f7f7f7f80cc
:10162c0080808080808080808080808080807f7fb0
:10163c00807f7f7f7f7f80807f7f7f7f7f80807fa9
:10164c007f80808080808080807f7f7f8080808092
:10165c007f7f807f8080808080807f8080807f8083
:10166c007f7f8080807f7f7f7f7f7f7f7f807f7f7a
:10167c0080808080807f8080807f7f7f7f7f7f8065
:10168c008080807f807f7f807f8080807f80808053
:10169c0080808080808080807f7f7f7f7f7f807f45
:1016ac00807f7f7f7f7f7f7f7f807f7f7f7f7f7f3c
:1016bc00807f7f80807f7f7f7f808080807f7f7f27
:1016cc00808080808080807f7f8080807f7f7f8013
:1016dc0080807f7f808080808080808080807f7f02
:1016ec0080807f8080808080808080807f7f7f80f2
:1016fc007f7f7f7f7f7f7f7f7f7f7f7f807f8080eb
:10170c007f8080808080807f7f7f7f7f7f7f7f7fd7
:10171c007f807f7f80807f7f7f80808080808080c3
:10172c00808080808080807f7f7f807f7f807f7fb4
:10173c007f80807f7f8080807f8080807f7f7f7fa5
:10174c00807f7f7f7f7f7f7f7f7f7f7f7f7f80809a
:10175c00807f7f7f7f80807f7f80807f7f7f808086
:10176c007f7f7f7f8080807f80807f808080808073
:10177c0080807f8080807f80807f808080807f7f62
:10178c007f7f7f807f7f808080807f7f7f80807f56
:10179c008080808080807f808080807f7f80808040
:1017ac008080807f808080807f7f7f7f7f7f808034
:1017bc00807f7f7f7f80807f7f7f7f7f7f7f7f7f2a
:1017cc00807f7f7f7f7f7f7f7f7f7f8080807f8018
:1017dc008080808080808080807f80807f808080ff
:1017ec0080808080807f7f8080808080807f807ff1
:1017fc007f7f7f7f7f7f7f7f7f7f7f7f807f7f80eb
:10180c00807f7f7f7f8080808080807f7f7f8080d3
:10181c00807f7f807f7f7f7f7f8080807f7f8080c5
:10182c00808080808080807f7f807f8080808080af
:10183c00807f8080807f7f80807f7f7f7f7f7f7fa6
:10184c007f7f7f7f7f807f7f7f80807f7f7f7f7f99
:10185c007f7f7f7f7f807f7f807f7f7f80807f8087
:10186c0080808080808080808080807f7f8080806e
:10187c00807f7f7f8080807f7f8080808080807f62
:10188c0080807f8080807f7f7f7f7f7f7f7f7f7f57
:10189c007f7f7f7f7f7f7f7f7f80807f7f7f7f8049
:1018ac00808080808080808080808080808080802c
:1018bc00808080808080807f8080807f8080807f1f
:1018cc007f7f7f7f7f7f7f7f7f7f80807f80807f18
:1018dc007f80808080808080807f7f808080807f00
:1018ec0080807f7f7f7f807f7f807f7f80808080f4
:1018fc007f7f808080808080808080807f7f7f7fe2
:10190c007f7f7f7f7f7f7f7f7f7f7f7f7f7f7f7fdb
:10191c007f7f7f8080808080807f80807f7f7f7fc3
:10192c0080807f807f7f8080807f7f807f7f8080b2
:10193c007f8080807f7f7f7f7f7f7f7f7f7f807fa7
:10194c00808080807f80808080807f7f8080807f8f
:10195c00807f7f7f7f807f7f7f7f80808080808083
:10196c0080808080808080808080807f80807f7f6e
:10197c0080808080807f7f80807f7f7f7f80807f62
:10198c007f7f7f7f807f7f7f7f7f7f7f7f7f7f8059
:10199c007f7f807f7f80807f808080808080808040
:1019ac0080808080808080808080807f80807f7f2e
:1019bc007f7f7f807f7f7f7f7f7f80807f80808025
:1019cc0080808080808080808080807f8080807f0d
:1019dc007f7f7f7f7f7f7f7f7f7f7f80807f808007
:1019ec0080808080808080807f80808080808080ec
:1019fc00807f7f7f7f7f7f7f7f7f807f7f807f7fe8
:101a0c0080807f80807f7f80807f807f80808080cf
:101a1c0080807f80807f7f7f7f80807f7f7f8080c2
:101a2c007f7f7f7f7f7f7f7f7f8080807f7f8080b5
:101a3c007f80808080807f7f8080807f7f7f7f80a1
:101a4c00807f7f807f7f7f8080807f7f7f80807f93
:101a5c007f808080808080807f8080807f7f7f7f80
:101a6c00807f7f7f807f7f7f7f7f80807f7f7f7f76
:101a7c007f7f7f7f80807f7f7f8080807f7f7f7f65
:101a8c007f7f8080808080808080807f7f7f7f7f51
:101a9c007f7f7f7f7f80808080808080808080803f
:101aac0080807f80808080808080807f7f807f7f2f
:101abc00807f7f7f807f7f7f7f7f7f7f7f7f7f7f28
:101acc007f7f7f7f80807f7f7f7f80807f7f7f8015
:101adc00808080808080808080808080807f7f80fc
:101aec007f7f7f7f7f7f807f7f7f7f7f7f7f7f7ff9
:101afc007f808080808080807f80808080807f80dd
:101b0c0080807f7f808080807f7f807f7f7f7f7fd2
:101b1c007f7f7f7f80807f807f7f7f8080808080c1
:101b2c007f80807f80807f7f7f7f7f80807f7f80b2
:101b3c0080808080808080807f7f7f7f80807f7f9f
:101b4c007f7f7f80807f808080808080808080808d
:101b5c008080808080807f80808080808080807f7b
:101b6c007f7f7f7f7f7f7f7f7f7f80807f7f7f7f77
:101b7c007f7f7f7f7f7f7f7f807f7f807f7f7f7f67
:101b8c007f7f7f7f7f80807f8080808080807f8050
:101b9c008080808080808080808080807f7f80803b
:101bac0080807f80807f7f80807f807f7f807f7f31
:101bbc007f7f7f7f7f807f8080808080807f7f7f22
:101bcc008080807f7f7f7f7f807f7f7f7f7f7f7f15
:101bdc007f7f7f7f7f7f807f7f80807f7f80808003
:101bec00807f80807f7f80808080807f7f7f7f7ff1
:101bfc0080807f8080807f8080807f807f808080dd
:101c0c008080808080807f7f7f7f807f7f7f7f7fd1
:101c1c007f80808080807f7f80807f7f7f7f7f80c0
:101c2c007f80807f7f808080807f7f7f7f7f7f7fb2
:101c3c007f7f80808080807f7f7f7f7f7f7f7f80a2
:101c4c00807f80808080808080807f7f7f7f7f7f8f
:101c5c0080807f7f807f7f7f7f7f807f7f7f7f8083
:101c6c0080807f8080807f80807f80807f7f80806d
:101c7c008080807f8080807f80807f7f80807f805d
:101c8c007f7f80807f7f7f7f7f7f7f7f7f7f7f7f56
:101c9c0080808080808080807f7f7f7f7f8080803d
:101cac0080808080807f7f7f7f7f7f807f8080802f
:101cbc007f80807f7f80807f80808080808080801c
:101ccc007f7f7f7f7f7f807f80807f7f807f7f8013
:101cdc00807f7f807f80807f7f80807f80808080fe
:101cec00808080807f7f7f7f7f7f7f7f7f808080f1
:101cfc007f7f7f80807f7f7f807f80807f7f8080e1
:101d0c00807f7f7f80807f7f7f7f7f80807f8080d0
:101d1c0080807f7f808080807f80808080807f7fbc
:101d2c007f80807f7f7f7f7f7f7f808080808080af
:101d3c0080808080807f8080807f80808080808099
:101d4c00808080807f7f7f7f808080807f7f7f7f8f
:101d5c007f7f7f7f7f7f7f7f7f7f7f807f7f7f7f86
:101d6c007f7f7f7f8080808080807f7f808080806d
:101d7c0080808080808080807f80808080807f7f5a
:101d8c007f7f7f7f7f7f80807f7f7f7f7f80807f53
:101d9c008080807f80807f7f7f7f80808080807f3d
:101dac008080808080807f8080808080807f808029
:101dbc007f7f7f7f7f807f7f7f7f807f7f7f7f8024
:101dcc007f7f7f7f7f80807f7f7f7f807f7f7f8013
:101ddc00807f7f7f808080808080808080807f80fb
:101dec0080807f8080807f7f7f7f80807f7f7f7ff0
:101dfc007f7f7f807f808080807f80807f808080dd
:101e0c007f8080808080808080807f7f7f7f7f7fcd
:101e1c007f7f7f7f7f7f807f8080807f7f808080bf
:101e2c0080808080808080808080807f80808080a7
:101e3c0080807f7f7f7f7f80807f8080808080809c
:101e4c007f7f7f7f80807f7f7f7f7f807f7f7f7f93
:101e5c007f7f7f7f7f7f7f7f7f807f7f8080808081
:101e6c00808080808080807f7f80807f7f7f80806b
:101e7c007f8080807f7f7f7f7f7f807f808080805e
:101e8c0080807f8080808080808080808080807f48
:101e9c007f7f7f7f7f7f7f7f7f7f80807f7f7f7f44
:101eac007f7f7f7f80807f7f808080808080807f2d
:101ebc007f80807f7f80807f7f7f807f7f7f807f20
:101ecc007f7f7f807f80808080808080807f7f7f0d
:101edc007f7f8080807f80807f80807f7f807f7ffe
:101eec007f7f7f7f8080808080808080807f7f7fed
:101efc007f7f7f7f8080807f80807f7f7f7f7f80e0
:101f0c008080807f7f7f807f7f808080807f7f80cc
:101f1c007f7f8080807f7f807f7f807f7f807f7fbf
:101f2c007f7f7f7f7f7f7f7f808080808080807fae
:101f3c008080808080808080807f80807f7f7f7f9a
:101f4c007f7f7f7f80807f7f7f7f7f80807f7f8090
:101f5c00807f80807f8080807f8080807f7f7f807b
:101f6c008080807f7f7f7f807f7f7f7f7f7f7f7f71
:101f7c007f7f7f808080807f808080808080808059
:101f8c0080807f80807f7f7f7f7f80807f7f807f4e
:101f9c007f7f7f7f7f7f7f7f7f7f7f80807f808041
:101fac008080807f7f807f7f7f8080807f807f802c
:101fbc008080807f7f7f7f80808080808080808019
:101fcc00807f7f8080807f7f7f807f7f7f8080800d
:101fdc00807f8080807f8080807f8080807f7f80fa
:101fec007f7f7f7f7f7f7f807f7f7f7f7f807f7ff3
:101ffc008080807f7f7f7f7f807f7f80807f8080dd
:10200c00807f80808080808080807f80807f7f7fc9
:10201c007f7f7f7f7f7f7f7f7f80808080808080bd
:10202c0080807f80807f80808080807f80807f7fa9
:10203c007f7f7f7f807f7f80807f807f7f80807f9e
:10204c007f7f7f7f7f7f7f7f807f7f7f7f7f808091
:10205c007f7f80808080808080807f8080807f7f79
:10206c0080807f7f8080807f80807f7f807f7f806b
:10207c007f7f80808080808080808080807f808057
:10208c00807f7f7f80808080808080807f7f7f7f4b
:10209c007f7f7f7f7f7f7f7f7f7f807f7f7f807f42
:1020ac007f8080808080807f8080807f7f7f808029
:1020bc007f7f7f80808080808080807f807f808019
:1020cc007f7f7f7f807f7f7f7f7f7f7f7f7f7f7f13
:1020dc00807f7f7f808080808080807f80807f7ffa
:1020ec0080807f7f8080807f80807f7f7f7f7f7fed
:1020fc007f7f7f7f7f807f7f80808080807f8080dc
:10210c007f7f807f7f8080808080808080808080c7
:10211c00807f7f7f7f7f80807f80807f7f7f7f7fbe
:10212c007f7f7f7f7f7f7f808080808080807f7fac
:10213c007f80807f7f807f7f807f7f80807f7f7f9d
:10214c007f7f7f807f7f7f7f7f807f7f7f7f7f8090
:10215c00807f80807f80807f7f807f7f8080807f7a
:10216c008080808080807f80808080808080808064
:10217c00807f7f80808080808080808080807f7f57
:10218c00807f7f807f7f807f7f7f80807f80807f4c
:10219c007f80807f80807f80807f7f7f7f7f7f7f3d
:1021ac007f7f7f7f7f807f7f80807f80807f80802c
:1021bc00807f7f8080807f7f7f8080808080808018
:1021cc0080807f7f7f7f7f7f7f7f7f7f7f7f7f7f11
:1021dc007f7f7f7f80808080808080807f808080f8
:1021ec008080807f7f7f8080807f7f7f807f8080ea
:1021fc007f7f808080807f808080808080808080d6
:10220c00807f7f7f7f7f7f7f807f7f7f7f7f7f7fd0
:10221c007f7f7f7f80807f8080808080807f7f7fba
:10222c008080807f7f80807f7f807f80807f7f80a9
:10223c00807f7f807f7f80807f7f80807f7f7f809b
:10224c00807f808080808080808080807f807f7f86
:10225c007f807f7f7f7f807f7f7f8080807f7f807c
:10226c0080807f7f80808080808080808080808064
:10227c007f8080807f7f80808080807f7f807f7f59
:10228c007f807f7f807f7f7f807f7f7f7f7f7f7f4f
:10229c007f7f7f7f8080807f7f807f7f807f7f803c
:1022ac007f7f80807f8080808080807f7f80807f28
:1022bc0080807f80808080807f7f7f7f80807f7f19
:1022cc007f7f80807f8080807f7f7f808080807f09
:1022dc007f7f80807f7f808080807f7f7f80807ffa
:1022ec008080807f807f7f7f807f7f7f807f7f80eb
:1022fc00807f80808080807f808080807f7f7f80d7
:10230c007f7f7f7f807f80807f80807f7f808080c9
:10231c008080807f7f7f7f7f807f7f80807f7f7fbb
:10232c007f7f8080807f8080807f7f80807f7f7fa9
:10233c007f7f80808080807f808080808080808094
:10234c00807f8080807f7f7f7f7f7f7f7f8080808a
:10235c00807f7f7f807f7f7f7f7f7f807f80807f7c
:10236c008080808080808080807f7f808080807f64
:10237c007f80807f7f7f7f7f7f7f7f7f807f80805c
:10238c007f7f808080807f7f80808080807f808046
:10239c007f7f8080807f80807f7f7f7f7f7f7f803b
:1023ac008080807f7f80808080808080807f808024
:1023bc007f7f7f7f807f808080807f808080808017
:1023cc007f7f7f7f7f7f7f7f7f7f7f7f7f807f7f10
:1023dc007f8080807f7f7f7f7f7f7f80807f8080fa
:1023ec007f8080807f7f7f808080808080808080e5
:1023fc007f7f7f807f7f807f7f7f8080807f8080da
:10240c0080808080807f7f80807f7f7f7f7f7f7fc9
:10241c007f807f7f7f8080808080807f807f7f7fb8
:10242c007f807f7f808080807f808080807f7f80a6
:10243c008080807f7f7f7f7f808080808080808095
:10244c0080807f7f807f7f7f7f807f7f7f7f7f7f8c
:10245c0080808080808080807f7f80807f7f7f8075
:10246c008080807f7f808080807f7f80807f808065
:10247c00808080808080807f7f80807f7f80808054
:10248c00807f7f80807f7f7f7f7f7f7f7f7f7f7f4d
:10249c007f7f7f7f7f7f7f7f8080807f7f7f7f7f3d
:1024ac00807f8080808080808080807f8080807f23
:1024bc0080807f807f7f7f80807f7f7f7f80808018
:1024cc0080807f7f80807f7f808080807f7f808006
:1024dc00807f7f7f7f80807f7f7f7f807f7f7f80fb
:1024ec00807f7f80808080807f7f808080808080e4
:1024fc008080807f7f7f7f7f7f80807f7f7f7f7fdb
:10250c0080807f7f807f7f80807f80807f7f8080c6
:10251c0080807f7f7f7f7f7f7f7f7f7f7f7f7f7fbd
:10252c00807f7f7f80807f8080808080807f8080a4
:10253c00807f808080807f80808080808080808091
:10254c008080807f7f7f7f7f7f7f7f7f7f7f7f7f8c
:10255c008080807f7f7f7f7f7f7f7f7f7f7f7f7f7c
:10256c007f807f7f8080808080807f808080808063
:10257c007f7f7f807f7f7f8080807f7f7f80808058
:10258c008080807f80807f7f7f807f8080807f8045
:10259c00807f80808080807f7f7f807f7f7f7f7f38
:1025ac007f7f8080807f80808080807f7f80808024
:1025bc00808080807f8080808080807f7f7f7f8014
:1025cc0080807f80807f7f7f7f7f7f7f7f7f7f7f0b
:1025dc007f7f7f7f808080807f7f7f7f7f7f7f7ffb
:1025ec007f80807f7f80807f8080808080808080e3
:1025fc00808080807f7f7f7f808080807f7f7f80d6
:10260c008080808080808080807f807f7f7f7f7fc4
:10261c007f7f7f7f7f807f7f7f7f7f7f7f7f7f7fbd
:10262c007f7f7f80808080808080808080808080a1
:10263c007f80808080808080808080808080807f90
:10264c007f80807f808080808080807f807f7f7f84
:10265c007f7f7f7f7f7f7f7f7f7f7f7f7f7f7f7f7e
:10266c007f7f808080808080808080807f80807f62
:10267c007f80807f7f80807f8080807f80807f8054
:10268c0080807f8080808080807f7f807f7f7f8044
:10269c007f7f807f7f807f7f7f7f7f7f7f80807f3a
:1026ac007f7f7f7f8080808080808080807f7f7f25
:1026bc007f8080808080808080808080807f7f8011
:1026cc007f7f7f7f7f7f807f7f80807f7f7f7f7f0b
:1026dc007f80807f7f80808080807f8080807f80f3
:1026ec0080808080808080808080807f80808080df
:1026fc00807f7f80808080807f7f80808080807fd3
:10270c007f807f7f7f807f7e7e7f7f7f7f7f7f7fcd
:10271c007f7f7f7f7f7f8080807f80807f7f7f80b7
:10272c00808080808080808080808080808080809d
:10273c008080807f80807f7f7f7f7f7f7f7f808096
:10274c00807f7f7f7f7f7f7f808080807f80807f86
:10275c007f7f7f80807f7f7f7f7f807f7f7f807f79
:10276c007f808080808080808080808080807f7f60
:10277c00807f7f80807f808080808080807f7f7f53
:10278c007f7f7f7f7f7f7f7f7f8080807f7f807f49
:10279c007f7f7f7f80807f80808080808080808032
:1027ac00807f7f7f80807f80807f7f7f7f7f7f7f28
:1027bc007f7f80807f8080807f8080807f7f7f7f15
:1027cc007f808080807f7f7f7f7f7f7f8080808005
:1027dc00808080807f7f80807f7f808080808080f1
:1027ec008080807f7f7f7f7f8080807f7f7f7f7fe7
:1027fc007f7f807f7f808080807f7f8080808080d3
:10280c0080807f808080807f7f7f7f7f7f7f7f7fc6
:10281c007f808080808080808080808080807f7faf
:10282c007f7f8080808080807f7f7f7f7f7f7f7fa6
:10283c007f7f7f7f7f7f7f80808080807f7f808095
:10284c00808080807f7f8080808080807f7f7f7f82
:10285c007f7f7f7f808080807f7f7f7f807f808075
:10286c0080807f7f7f7f7f80807f7f7f7f7f808066
:10287c008080807f7f7f7f7f7f7f7f808080808054
:10288c007f8080808080807f7f8080807f7f7f7f43
:10289c00807f7f7f7f7f7f7f7f8080807f7f7f7f38
:1028ac007f7f7f7f8080807f7f7f7f807f7f7f8027
:1028bc00807f7f7f808080807f8080808080808010
:1028cc008080808080807f7f7f7f7f808080808001
:1028dc007f807f7f807f7f7f7f7f7f7f7f7f7f80f9
:1028ec00807f7f7f7f7f7f7f7f7f7f7f7f7f7f80ea
:1028fc0080808080808080808080808080808080cc
:10290c0080808080807f7f7f7f80807f7f80807fc2
:10291c007f7f7f7f7f7f7f7f8080808080808080b3
:10292c00808080808080807f7f7f7f7f7f7f7f7fa4
:10293c007f7f7f807f7f80807f7f80808080807f93
:10294c008080807f7f7f7f7f7f7f7f7f7f7f7f8087
:10295c00808080807f7f7f808080807f7f7f808071
:10296c00807f7f80808080807f807f7f7f807f7f63
:10297c007f7f7f7f7f7f7f7f7f8080808080808054
:10298c00807f7f7f80808080807f7f7f7f7f7f7f45
:10299c007f7f808080807f808080808080807f802f
:1029ac00808080808080808080807f7f7f7f7f7f21
:1029bc007f7f7f7f7f7f7f7f7f7f7f7f7f7f7f801a
:1029cc00808080807f8080808080807f7f7f8080ff
:1029dc0080807f7f7f7f7f7f7f7f7f7f7f808080f6
:1029ec0080807f7f80807f7f7f80808080808080e0
:1029fc008080807f7f8080807f7f7f8080808080d0
:102a0c008080808080808080808080808080807fbb
:102a1c007f80807f7f7f7f7f7f7f7f7f7f7f7f7fb8
:102a2c007f7f7f7f7f7f7f7f7f7f7f7f7f7f7f80a9
:102a3c00808080808080808080808080808080808a
:102a4c00808080808080808080807f7f807f7f7f7f
:102a5c0080808080807f7f7f7f8080807f7f7f7f72
:102a6c007f7f807f7f7f7f7f7f807f7f7f7f7f7f68
:102a7c007f7f7f7f7f7f7f7f7f808080807f7f8055
:102a8c00807f7f7f7f808080808080807f8080803f
:102a9c008080808080808080807f807f7f7f7f7f30
:102aac007f7f7f7f7f7f7f7f807f7f7f7f7f808027
:102abc008080808080808080808080807f7f80800c
:102acc00807f7f7f7f7f7f7f7f8080807f7f7f7f06
:102adc007f7f7f7f7f7f7f7f8080807f7f808080f4
:102aec0080808080808080807f7f80807f807f7fdf
:102afc007f7f7f7f7f807f7f7f7f7f7f80808080d5
:102b0c008080808080808080807f7f7f807f7f7fbf
:102b1c007f7f7f807f7f7f7f7f7f7f807f7f7f7fb7
:102b2c007f7f7f7f7f7f7f7f7f80807f7f7f7f80a6
:102b3c0080807f7f7f7f7f7f7f7f80808080808091
:102b4c008080808080808080808080807f7f80807b
:102b5c008080807f7f807f7f7f7f7f808080808070
:102b6c007f7f7f7f8080807f7f80808080807f8060
:102b7c00808080807f7f7f807f7f807f7f7f808051
:102b8c00807f7f7f7f7f7f7f7f80807f7f7f7f7f46
:102b9c00807f7f7f807f7f80808080807f8080802f
:102bac00808080808080808080808080807f80801a
:102bbc007f7f7f7f7f80807f7f7f7f7f7f7f7f7f17
:102bcc00807f7f7f80807f7f7f7f7f80807f7f8003
:102bdc008080808080808080807f7f7f7f807f7fef
:102bec007f80808080807f7f7f7f7f8080807f80e0
:102bfc0080808080807f7f80807f7f7f7f7f7f80d1
:102c0c007f7f7f7f7f7f807f807f7f7f7f7f8080c4
:102c1c008080808080808080808080808080807fa9
:102c2c00807f7f7f7f7f7f7f7f7f7f7f7f7f7f7fa7
:102c3c00807f8080807f7f7f7f7f7f7f7f80807f92
:102c4c007f7f7f7f7f7f7f7f807f807f7f7f7f7f86
:102c5c007f7f7f7f80807f7f7f7f7f807f7f7f8074
:102c6c00808080807f8080807f8080807f8080805b
:102c7c00807f7f7f7f7f807f7f80807f8080808050
:102c8c00807f80808080808080807f7f808080803b
:102c9c007f8080807f7f7f7f7f7f8080808080802f
:102cac008080807f80807f7f7f8080807f7f7f7f20
:102cbc007f7f7f7f7f7f7f7f80808080807f7f8012
:102ccc00807f807f7f7f80808080808080808080fc
:102cdc00807f7f7f7f7f7f7f7f7f7f7f80807f7ff5
:102cec007f80808080808080808080807f7f7f7fdd
:102cfc007f7f7f7f7f7f7f7f807f80807f7f8080d3
:102d0c008080807f808080808080807f7f807f7fbc
:102d1c007f7f7f80807f7f7f80807f8080808080ae
:102d2c007f7f7f7f7f7f808080808080807f7f7fa0
:102d3c007f7f7f7f7f80807f7f7f8080808080808f
:102d4c0080807f7f7f7f7f7f7f7f7f7f7f7f7f7f85
:102d5c007f7f7f808080808080808080808080806a
:102d6c007f80807f7f807f7f7f80807f80807f7f60
:102d7c0080807f80807f7f7f7f8080808080807f4d
:102d8c007f7f7f7f7f7f7f7f7f7f80807f7f807f44
:102d9c007f7f7f7f7f7f7f7f7f7f7f808080808032
:102dac00808080808080807f7f7f8080808080801a
:102dbc007f7f80808080807f7f7f7f7f7f7f7f8011
:102dcc0080808080807f7f7f80807f7f7f807f7fff
:102ddc0080807f7f7f7f7f7f7f7f808080808080ef
:102dec0080808080808080807f7f807f7f7f7f7fde
:102dfc007f7f7f7f7f80807f7f807f80807f7f80d1
:102e0c00808080808080808080807f80807f7f7fba
:102e1c007f7f7f7f7f7f7f807f7f7f7f7f808080b2
:102e2c008080808080808080808080807f7f808098
:102e3c007f7f7f7f7f7f7f7f7f7f7f7f7f7f7f8095
:102e4c008080807f8080807f7f7f8080808080807a
:102e5c00808080808080807f7f807f8080807f7f6b
:102e6c0080807f80807f7f7f7f7f7f7f7f8080805f
:102e7c007f7f7f807f7f7f7f7f7f80807f80808050
:102e8c007f7f7f7f7f807f8080808080808080803c
:102e9c008080808080807f80808080808080808027
:102eac008080807f7f80808080807f7f807f7f7f1d
:102ebc007f7f7f7f7f7f7f7f7f807f7f7f80807f13
:102ecc00807f7f7f7f8080807f8080808080807ffc
:102edc007f7f808080807f7f7f7f7f7f7f7f7f7ff2
:102eec007f80807f7f807f808080807f7f7f7f7fdf
:102efc007f7f7f808080807f7f807f7f80807f80ce
:102f0c0080808080808080807f80807f7f80807fb9
:102f1c007f7f7f7f808080808080808080808080a9
:102f2c0080808080807f7f80808080807f7f7f7f9b
:102f3c007f7f7f7f807f7f7f808080807f7f80808e
:102f4c00807f80807f7f808080807f7f7f7f7f807d
:102f5c007f7f7f80807f80808080808080807f7f6b
:102f6c007f7f7f7f7f7f7f807f7f8080808080805e
:102f7c007f7f7f7f7f7f7f7f7f7f7f807f7f7f7f54
:102f8c007f7f7f7f808080808080808080807f803a
:102f9c007f7f807f7f807f7f7f7f7f7f7f7f7f8032
:102fac007f7f7f7f7f80808080808080808080801a
:102fbc008080808080807f80807f7f7f7f7f80800b
:102fcc0080807f7f807f7f7f7f7f808080808080fc
:102fdc00807f7f8080807f7f7f7f7f7f7f7f7f80f0
:102fec007f7f807f80807f7f7f7f7f7f7f7f7f7fe2
:102ffc007f7f80807f7f80807f80808080808080ca
:10300c0080807f8080808080808080807f7f7f7fb9
:10301c007f7f7f7f80807f80807f8080807f7f7fad
:10302c007f7f7f7f7f808080807f7f80807f7f7f9e
:10303c007f7f80807f7f7f7f7f7f7f7f7f7f808090
:10304c0080808080807f80808080807f7f80808077
:10305c00807f7f7f80807f7f7f7f7f7f7f7f807f70
:10306c007f807f7f7f7f7f7f7f808080808080805c
:10307c008080807f80808080807f7f7f8080808048
:10308c008080808080807f7f7f7f7f7f808080803a
:10309c00807f7f807f7f7f7f7f7f7f7f7f807f7f31
:1030ac00807f7f7f7f7f7f7f7f7f807f7f7f7f7f22
:1030bc007f7f7f8080807f80807f80807f7f807f0c
:1030cc007f80808080808080808080807f7f7f80f8
:1030dc007f80807f80807f7f7f807f7f7f7f7f7fef
:1030ec007f7f7f7f7f7f80807f80808080808080db
:1030fc0080807f8080808080808080808080807fc6
:10310c007f7f7f7f7f7f7f80808080807f7f8080bc
:10311c008080808080807f7f7f7f7f7f7f7f7f80ac
:10312c007f7f7f7f7f808080808080808080808098
:10313c007f7f8080807f80807f7f7f7f80807f808b
:10314c0080807f807f7f7f808080807f7f7f7f7f7c
:10315c007f7f7f7f80808080807f80807f7f7f806b
:10316c0080807f7f8080807f80807f7f7f7f80805a
:10317c007f807f7f7f80807f80807f8080807f7f4b
:10318c007f7f7f7f8080808080807f7f807f7f7f3c
:10319c0080808080807f7f7f7f7f7f7f7f7f80802c
:1031ac007f7f808080808080808080807f7f808017
:1031bc008080808080807f7f7f7f7f7f807f7f800b
:1031cc0080807f7f7f80807f7f7f808080807f80fa
:1031dc007f8080807f7f7f7f7f7f7f7f7f7f7f7ff0
:1031ec00807f7f7f7f7f7f7f7f80807f80808080dc
:1031fc0080807f80808080807f7f80807f7f7f80c9
:10320c008080807f7f7f7f7f7f80808080808080b8
:10321c008080807f7f807f7f7f7f7f8080808080a9
:10322c007f7f7f7f7f7f7f808080807f80807f809b
:10323c00807f7f7f7f7f7f7f7f80807f8080807f8c
:10324c007f807f80807f80808080808080807f7f77
:10325c007f7f7f7f80808080808080807f80808067
:10326c008080807f7f80807f7f7f7f7f7f7f7f805c
:10327c007f7f7f807f7f7f7f7f80808080807f804b
:10328c00808080808080807f7f7f807f8080808036
:10329c00808080807f7f7f7f7f7f80808080808028
:1032ac008080808080808080808080807f80808013
:1032bc008080807f7f7f7f7f7f7f7f7f807f80800c
:1032cc007f7f807f7f7f7f808080807f80807f7ffb
:1032dc007f7f7f7f7f7f7f7f7f7f7f7f7f80807ff0
:1032ec0080808080808080807f7f808080808080d4
:1032fc008080808080807f80807f7f7f807f8080c7
:10330c007f8080808080807f7f7f808080808080b5
:10331c00807f80807f807f7f80807f7f7f7f7f7fab
:10332c007f7f80807f7f80807f80807f7f80808098
:10333c007f7f8080807f7f807f7f8080807f7f7f8a
:10334c007f7f7f7f807f7f7f807f7f7f7f7f7f807e
:10335c008080807f7f80807f7f7f7f7f8080808068
:10336c00807f80807f7f807f7f7f7f7f807f7f7f5c
:10337c007f7f7f7f7f7f8080808080808080808047
:10338c008080808080808080808080807f7f808033
:10339c00807f7f7f7f7f7f80807f80807f7f7f7f2c
:1033ac007f7f807f8080808080807f80807f7f8017
:1033bc00808080807f7f7f7f80807f7f7f80807f09
:1033cc0080807f80807f807f7f80807f7f808080f7
:1033dc007f7f8080807f7f7f7f7f808080807f80e9
:1033ec0080807f7f807f7f7f7f7f7f807f7f8080db
:1033fc007f80807f7f80807f7f7f7f7f80808080c9
:10340c007f7f7f7f7f7f7f7f7f7f7f7f8080807fbd
:10341c007f7f7f7f7f7f7f7f7f7f7f7f80807f7fae
:10342c0080807f80807f80807f7f808080807f7f96
:10343c00807f8080807f7f80808080808080808083
:10344c0080808080807f7f8080807f7f807f7f8076
:10345c007f7f808080807f7f7f7f7f7f7f7f80806a
:10346c00807f7f7f7f7f7f7f7f7f7f7f7f7f7f805e
:10347c007f7f8080808080807f7f80808080808044
:10348c0080808080808080807f80807f7f80808033
:10349c007f7f7f7f7f7f7f80807f7f807f7f80802b
:1034ac008080808080807f7f7f807f807f7f7f8017
:1034bc007f7f7f7f7f7f807f7f7f80808080808009
:1034cc008080807f807f7f7f7f7f7f8080808080f7
:1034dc00807f7f807f7f7f8080808080807f7f80e7
:1034ec00807f7f7f7f7f80807f7f7f7f7f808080da
:1034fc008080808080807f808080808080807f7fc3
:10350c00807f8080807f7f7f7f807f7f7f7f7f80b9
:10351c0080807f8080807f80807f7f7f7f7f7f80a7
:10352c0080808080807f80807f7f7f7f7f7f7f7f98
:10353c0080808080807f7f807f7f80808080807f84
:10354c007f80807f80808080807f7f7f7f7f7f8077
:10355c0080808080807f7f7f8080808080807f7f64
:10356c007f7f7f808080807f7f7f7f7f7f7f7f805a
:10357c0080807f7f7f8080807f7f808080807f7f46
:10358c0080808080808080807f7f7f808080807f33
:10359c007f80808080807f7f807f7f7f8080808025
:1035ac00807f807f7f7f7f7f7f7f808080807f7f19
:1035bc007f7f7f80807f80807f7f7f7f80807f7f09
:1035cc00807f7f7e7f807f7f807f7f7f7f7f8080fb
:1035dc008080808080807f7f7f7f808080808180e2
:1035ec007f7f7f7f7f80808181807f7f7e7f7f7fd9
:1035fc008080808080807f7e7f7f7f8081808080c4
:10360c0080807f7f7f7f7f7f7f7f8080807f7f7fb9
:10361c007f7f80807f7f80807f7f7f7f7f808080a7
:10362c0080808080807f7f7f7f8080807f7f7f7f96
:10363c007f7f7f7f808080808080807f7f80808084
:10364c008080808080807f7f7f7f7f7f7f7f7f7f78
:10365c007f7f7f80807f7f7f7f808080807f7f7f68
:10366c007f7f808080808080808080807f7f7f7f54
:10367c00807f7f7f808080808080807f7f807f7f45
:10368c007f80807f807f7f7f807f7f7f7f7f808038
:10369c007f7f7f7f7f7f8080807f7f7f7f7f7f7f2b
:1036ac007f7f808080808080808080808080807f11
:1036bc007f807f7f7f7f7e8080807f7f7f7f7f7f0b
:1036cc0080808080808080807f7f7f8080808080f1
:1036dc008180807f7f7f7f808080807f7f7f7f7fe6
:1036ec007f7f808080808080807f7f7f7f808080d4
:1036fc0080808080807f7f7f7f808080807f7f7fc5
:10370c007f7f7f808080807f7f7f7f7e7f80807fb8
:10371c008081807f807f7e7f7f7f7f8080807f80a5
:10372c007f7f80807f80808080807f7f7f80808093
:10373c0080807f80807f7f7f7f8080808080808082
:10374c007f7f7e7f80808080807f7f7f7f7f7f7f79
:10375c00808080807f7f8081807f808081807f7f60
:10376c007f7f7f7f7f7f808080807f7f7f7f7f7f59
:10377c0080808080807f7f7f808080807f7f7f8043
:10378c00807f7f7f7f7f80808080807f7e7f7f7f38
:10379c007f7f8080807f7f7e7f7f7f7f8080808027
:1037ac00807f80807f7f7f80808080807f7f7f7f15
:1037bc007f8080808080807f7f7f7f80807f808003
:1037cc007f7f7f7f7f7f8080818080807f7f7f7ff6
:1037dc007f7f7f7f80807f7f807f7f80807f7f80e7
:1037ec0080808080807f7f807f8081808080807fd0
:1037fc007f7f807f7f807f7f80807f7f7f7f7f80c8
:10380c00807f7f7f7f7f7f7f7f7f7f80807f7f80b8
:10381c007f80808080808080807f7f7f7f7f7f7fa4
:10382c00808080807f7f7f7f7f80808080807f8092
:10383c008080807f807f8080807f7f817f80807f81
:10384c00807f807e7e807f807e7f7f807f7f807f79
:10385c00807e807e7f7e807f7f807f807f81808066
:10386c008080808080807f8080807f7f808080804f
:10387c00807f807f807f807f80807f7f80807f7f44
:10388c007f7f7f8080807f7f7f7f7f7f7f7f7f7f39
:10389c007f8080808080808080807f808080807f1f
:1038ac00808080808080808080808080808080800c
:1038bc0080807f80807f7f7f7f7f7f7f7f80807f06
:1038cc007f807f7f7f7f7f7f7f7f7f7f7f7f7f7ffb
:1038dc007f7f7f7f7f7f7f7f7f7f807f8080807fe8
:1038ec007f8080808080808080807f80817e8080cf
:1038fc0080817f807f807f7e807d7e82807f807ec6
:10390c0081817f7e8080807e817e7e837d817f81b0
:10391c007e81807d817d807e807e82807f7f817fa5
:10392c007f7f7f7f7f817f817f827f807f807f7f92
:10393c007f7f7f807f7f8080807f7f7f7f7f807f86
:10394c007f7f807f7f7f80807f80807f7f80807f74
:10395c007f808180808080807f7f80807f7f807f60
:10396c008080807f807f7f7f818080807f7f808050
:10397c007f8080807f7f7f807f807f7f7f7f807f45
:10398c007f7f7f7f7f7f80807f7f807f807f7f7f37
:10399c007f8080807f7f7f7f808080808080808020
:1039ac0080807f807f7f7f807f8080807f80808011
:1039bc007f7f80807f807f7f807f7f7f8080807f04
:1039cc007f80807f7f7f7f80807f7f7f807f7f7ff6
:1039dc007f7f7f807f8080807f80807f7f80807fe3
:1039ec00808080808080807f807f7f7f80807f7fd1
:1039fc00807f808180807f7f7f7f7f7f807f7f7fc4
:103a0c007f7f80808080807f7f80807f7f808080b0
:103a1c007f7f7f8080807f7f80807f7f8080807fa2
:103a2c00807f7f8080807f808080807f7f7f7f8091
:103a3c007f7f7f807f7f7f7f7f807f7f8080807f85
:103a4c007f80808080807f7f8080807f80807f7f70
:103a5c00807f7f807f7f7f7f808080808080808060
:103a6c008080807f7f7f7f7f7f7f7f7f7f7f7f7f57
:103a7c007f7f807f7f80807f7f80807f8080807f42
:103a8c0080808080808080807f8080807f7f7f802e
:103a9c00807f80808080807f7f80807f7f80807f20
:103aac008080807f7f80808080807f8080807f800e
:103abc0080808080807f807f807f80807f7f7f7f01
:103acc007f7f7f7f7f7f807f7f80807f7f808080f4
:103adc00808080808080808080807f7f807f8080dd
:103aec00807f7f7f7f7f7f7f7f7f7f7f7f7f7f7fd9
:103afc007f7f807f7f80807f7f80807f8080807fc2
:103b0c007f807f7f80807f7f7f80808080807f80b0
:103b1c00807f7f7f7f7f7f80808080807f7f7f80a2
:103b2c00807f80807f7f8080808080807f80807f8e
:103b3c007f7f7f7f8080808080808080807f7f807f
:103b4c00807f7f80807f807f7f7f8080807f7f7f72
:103b5c007f7f7f80808080807f7f807f7e7f7f7f64
:103b6c007f8080808080808080808080807f7f7f4d
:103b7c00808080808080807f7f7f807f7f7f80803f
:103b8c007f8080807f7f80807f80807f7f8080802f
:103b9c008080808080807f7f807f7f7f807f7f7f21
:103bac00807f7f7f7f7f7f7f7f7f80808080808012
:103bbc008080807f7f80807f7f7f7f7f7f7f807f03
:103bcc0080807f7f80807f7f807f7f8080807f7ff1
:103bdc007f7f7f80807f7f80807f7f7f7f808080e2
:103bec00808080807f7f7f7f80807f7f7f7f7f80d2
:103bfc0080807f7f80807f7f80807f7f80808080bf
:103c0c0080807f80807f7f7f7f7f7f807f7f7f80b2
:103c1c007f7f8080808080808080807f7f80807f9d
:103c2c008080808080807f7f808080808080807f8b
:103c3c007f807f7f7f7f7f7f7f7f7f7f7f7f7f7f87
:103c4c008080807f7f7f807f8080807f7f80807f6f
:103c5c00807f7f8080808080807f7f8080807f7f5e
:103c6c007f7f7f7f7f7f7f7f7f7f7f7f7f7f7f7f58
:103c7c007f7f7f808080808080808080808080803b
:103c8c0080808080807f7f8080807f7f7f7f7f7f30
:103c9c00807f7f7f7f7f807f7f7f807f7f7f807f24
:103cac007f808080808080818080807f7f807f7f0c
:103cbc007f807f7f80808080807f7f807f7f7f7f01
:103ccc007f7f80807f80807f7f7f81807e80817ef0
:103cdc007f817d80817e7f807e80827f7f817e7ee2
:103cec00817f7f807f7f817e80817e81817e7f81cd
:103cfc007e80817e7f817d80817d81807f80817dc2
:103d0c0081807c80817d807d77939166367afd0001
:103d1c0002ff0002fe5c01dbfe02dd5e14ffbb0055
:103d2c00d2fc00b6fd1158fd0076ce3d7cff00594b
:103d3c00ff2822ff7400ff8125b7b600ed92239f68
:103d4c00dd00a5d62573e03d51f5345ad0712af922
:103d5c004b4ec28d1ae38237aaa522b3b52695b76e
:103d6c003c80d03474c45857d6545fba7640c87669
:103d7c004eae9537af954895a93f92a64e84b15358
:103d8c0073b65872af6d59b76b65a6854dab815b39
:103d9c0097975196925e889a5e849965809b677717
:103dac00a06b759a756c9e7471938267977f6e8bfe
:103dbc0089678d886d868e6a858f6f8092707994f5
:103dcc00747a8e7973917a788b7f6f8f7f758885f3
:103ddc006e8b8473868970848a72828b747d8f74e7
:103dec007d8c78788e787a8b7c748d7c77898272d6
:103dfc008b8274868671878674838973818a7480ba
:103e0c008a777c8d777d897b778d7a79897f748ca5
:103e1c007e7787837388837585877383887482889c
:103e2c00757f8b757f89787b8c787c897c768c7c94
:103e3c00788981738b807687847387847584867484
:103e4c008288758188777d8b767e897a798d797b6e
:103e5c00897d768c7c78888075888177868375855a
:103e6c0085758585768288758386777e8a777f8847
:103e7c00797a8b797c897c788b7c7a887e77897f40
:103e8c007887807686837686837684867584857734
:103e9c008089768186797c8a787e877c798a7c7a1f
:103eac00887f77878078868078858278858277830b
:103ebc0085778385788088778087797b8b787d88f8
:103ecc007b788b7b7a887f758980778781758784ef
:103edc0074888374858773878573828a73838776e6
:103eec007e8d74808978798f787b8b7b768c7c77d0
:103efc008c7d758a81748b80738785728a847284b9
:103f0c008a71868872808d72828a747b8f757d8da2
:103f1c0077779078788e7a738f7d748e7e708c83a1
:103f2c00708d836e888a6d8a876f838f6e858c7196
:103f3c007c92717e8f7477937578927872937c7281
:103f4c00927d6e90826d91826c8b896b8d886b8566
:103f5c008f69898d6b7f956a82936d78996f7a954d
:103f6c00747198757499727099776f9a7769987f54
:103f7c00699a7c679488639785658b9160948a6352
:103f8c008b93618e9161839a64839a637d9b687c29
:103f9c00a16079a06974a7686ea0746ba57068a005
:103fac007b63a57a5d9f865b9f8759979059989202
:103fbc0053939757909c5386a35b82a3597ba8611c
:103fcc0075a9636da96c69ae6865ab7262ab765a04
:103fdc00a58459a384579c8f559b9154919b5590c4
:103fec009c5686a05a86a2587ea85e78aa626daab4
:103ffc006c69ad6965ab7162b0715bab7d59aa7dc3
:10400c0057a48953a587529c944f9f924c9a9a4dd2
:10401c00979c4c8da45388a74e84a9577cb0547799
:10402c00ae606fb55b6cb16567b6655fb3715bb461
:10403c007453b17d54ae824ca98a4da88f45a39779
:10404c0048a09c4199a44695a6428eaf478baf469b
:10405c0080b84d7ab94e71bc586bc05365c15f5f67
:10406c00c26056c16e52c06f4bbd7c48bd7e40ba1b
:10407c008840b58e39ae9a3ba99e37a0a93b9bae22
:10408c003493b63c8abb3e7cc14876c3456fc84f5f
:10409c0067cc4d5dd05a57cd604ccc6f47c9714041
:1040ac00c67f3bc38534bb9435b59730aea234a7dd
:1040bc00a82ea0b2329ab72b94c03488c3387bc9cf
:1040cc004176cb3c6fd14566d34a5ad45a53d15d15
:1040dc004ccf6847d2683dd27739c98231c0903411
:1040ec00bc902cbd992db4a227a9b02e9eb42e95b0
:1040fc00bc348dc03382c93c79cb406cce4c66cc81
:10410c004e5dd05759d1574fd3644bca7041c57ec1
:10411c0040c37b3cc38638bf8a34b79933b39733db
:10412c00ada333a8a5309fb13599b23391ba3b8971
:10413c00bc3885c0407ec53a7bc74572c8466aca42
:10414c005165ca505ecd5b58ca5f50c96b4ec76b88
:10415c0048c77447c4783dc4823fbe8439bc8d3a8d
:10416c00b98d32b89a34ae9d34a5a936a3a62ea526
:10417c00af329bb3328fbe3a88bc3885c33c7ec607
:10418c003a75cd456dcc4666d05063cd4e5ad45958
:10419c0054ce604bce6c49cb6a44cd753fc87b384e
:1041ac00c38938be8935bb9435b49730afa431abd5
:1041bc00a42caaac2fa5ac29a0b73098b63090c0cf
:1041cc00368bbe308ac63683c73080cd3b78cc392f
:1041dc0073d2436cd13e68d74961d44a59d85556ed
:1041ec00d2584ed5614cd36042d86944cf6f3acf88
:1041fc007a3ccb7735ce8134ca812dc88f2fc28db6
:10420c002dbc9b2dba9728b8a529b1a526acb02cee
:10421c00a2b0299fb92e97bc2596c42d8ec42b878e
:10422c00cc3481ca3479d23b73d2386cd8406ad73b
:10423c003c63de4460da4555e34f50dd504bdf5ca8
:10424c0045e05641e5623ade6932df772ed8772aaf
:10425c00da8127d6821dda8d1fcf9217cf9f18c80f
:10426c009e15c5ac14beac12bab815aebb15a6c81b
:10427c00199dc81899d01e90d11b8cd92381d82395
:10428c007be22b73dd2d6ee43567e03862e5415936
:10429c00e14255e84a4fe14d4ce55646de5745e2c2
:1042ac00613ddb6639de7034d77034da7732d37720
:1042bc002fd6822cca882ac89427c29028c6972643
:1042cc00be9a23bca525b2a425b1af25a8ae26a6bf
:1042dc00b826a0b523a4bc269abb2797c7298fc1a3
:1042ec002b8fca2e85c82d86d0317dce2e80d4340e
:1042fc0076d03575d93a6dd4396edc3e65d64062d0
:10430c00df485ad7495add5153d75150de584cd853
:10431c00564adf5e47d55e45db6940d16a3ed575ae
:10432c0039cf703ad47a37ca7837cd8435c48133d3
:10433c00c88c31c08730c59131bb8d30bf9831b33b
:10434c00962fb6a12eaf9b2db4a42fa9a12eabab4b
:10435c0031a4a52da8b02f9fab2f9eb73397af32aa
:10436c009ab83593b33095be358eb63391be398b32
:10437c00b6368dc13b86ba3789c33d83bb3a84c4fc
:10438c00417fbc3b83c4417dbd3d7dc84477be416c
:10439c0079c74775c04274c94a72c14374ca4a711d
:1043ac00c1486eca506bc3476ecb4e6bc4496accc6
:1043bc005366c44e65cb5663c64b65cf5363c74f2c
:1043cc0060cf5860c65060d0585cc85459d05d5905
:1043dc00ca535ad3595aca5456d35f54ca5a54d092
:1043ec006452cb5952d56151cc5c4ed3674eca60e6
:1043fc004dd16a4acb6249d26c49cb6248d46a4ae5
:10440c00cb6347d36c49cc6049d5694acb6348d15f
:10441c007046c96747d07046c86a43d07346c66dac
:10442c0042ce7545c66d41ce7842c6703fcb7b42bd
:10443c00c57140cb7c40c5723dcb7e3fc5743ccb37
:10444c007f3ec4753acc813cc47838cc833ac47a6c
:10445c0036cc8538c47c33cb8835c47f30cb8c3399
:10446c00c3832ec98f31c2862cc8932ec08a2ac60c
:10447c00972cbe8e28c49a2bbc9227c19e2ab99524
:10448c0026bfa02abb9323c69d28bc9425bfa12977
:10449c00ba9226c49c29bd9125c49c2bba9229c0e2
:1044ac009d2cbc8e26c8972cbe8e29c3992fbd8af5
:1044bc002cc5962ebf8a2ac59630be892cc6933140
:1044cc00bf872cc69331bf882cc69232c0832dcaad
:1044dc008e33c2822ec89033c2812ecb8c34c57ed3
:1044ec002ecd8a35c57d30cd8a34c47e30cb8c340c
:1044fc00c57e2ece8935c67c2ecf8935c77930d076
:10450c008635c77931ce8836c77932cf8537c975ac
:10451c0032d37f3acb6f36d67a3dcc6c3ad47a3ed6
:10452c00cc6a3cd57542ce653ed96e45cf6141d83b
:10453c006e46cf5e43d96b49d15a46da664cd15799
:10454c0049db634fd1534ddb5f53d24e51dc5b568d
:10455c00d14d53db5b58d04a57da565ccf4859da09
:10456c00565ece465dda5262cd445fd95264cc427f
:10457c0064d64f68cb4165d44f6bc93a6fd3467440
:10458c00c63972d14776c33978cd457bc0357dcbe2
:10459c00427fbe367ec94283bb3284c83f86ba3264
:1045ac0085c63f8bb72e8fc13a95b02a98bc389ae6
:1045bc00ab2d9bb63a9ea52ca4af39a4a02ba8aad0
:1045cc003aa9992dafa43bb0912eb59d3cb58a313b
:1045dc00b8973eb78434bb9141bd7b36c48745c187
:1045ec00743ac58249c36c3eca7a4bc56841cb76d6
:1045fc004fc66345cd6f53ca5949d26858cb544ef8
:10460c00d2645cca4f54d16060cb4a58d25a65ca46
:10461c00465ed2566ac84362d0556ec73d6ad04dcd
:10462c0076c43b6dcd4b7bc13678ca4583be317f9a
:10463c00c7428ab92e89c13e93b32b92bc3b9aad2b
:10464c002b9ab53aa2a629a2af39a89f2aa9a83ab3
:10465c00af972bafa13bb48f2eb49a3eb88731b92c
:10466c009241bb7f36be8a46be773bc1824bc06f40
:10467c0042c47952c16649c57159c15e52c669605e
:10468c00c0575ac56268bf5063c35c70bc4a6cc1ea
:10469c005679b84575bd5181b3407fb84d89ae3d53
:1046ac0087b44b91a83b90ae4999a13a98a848a0e1
:1046bc009a39a0a147a79239a89948ad8b3bad92e6
:1046cc004ab4803cb8864cbc7541bd7d51c06a482b
:1046dc00c47157c55f4ec8675ec65558c95d67c77c
:1046ec004b61ca5570c5446ac74e7bc13a78c54503
:1046fc0085bc3680bf438eb5318db83e9aad2e98b1
:10470c00b03da3a22ea3a63dad9830ab9d3fb48d7a
:10471c0033b59142bc8137bb8846c0773cc07d4cd9
:10472c00c56c42c77252c8624ac8695aca5554cd40
:10473c005b64ca4d5dcb576bc84567ca4e75c63da9
:10474c0071c94680c1367dc43f8bbc2e8abf3a9658
:10475c00b32c96b537a4a828a7aa34b09c2ab19d2f
:10476c0038ba8d2cbf8e3bc47e33c68143ca6c3e97
:10477c00ce704cce5f48cf6657ce5355d05865cdd2
:10478c004563ce4d74c73975c94284bf3283c13e6f
:10479c0091b42f93b63b9fa92ca0ac3aaa9c2dacfc
:1047ac009f3bb58f30b6933fbc8236bc8845c175f4
:1047bc003cc47a4dc66846c86e56c75c50ca645f26
:1047cc00c8515acb5a69c64866c85076c33d74c6a0
:1047dc004783bd3682bf4191b42f92b53ba0a82c24
:1047ec00a1aa3aac9a2daf9b3cb98932bc8a42c47f
:1047fc00763ac7784bca6545cb6a57cd5454cf58d7
:10480c0065cd4762cd4d75c83777c83e89be2e8ab7
:10481c00be389bb02a9db036aaa22aaba138b78f5e
:10482c002dbd8d3cc47e33c48045cb6a40ce6b52cb
:10483c00d0584ecf5d60cd4b5fcb5071ca3c72c926
:10484c004383c03583be3d94b52e94b438a3a82bb6
:10485c00a6a537b5952db6943ac08533bf8542c70a
:10486c00753bc8754ccc6446cc635ad04f57d1506d
:10487c006acf4169cc467ec63381c33992ba2c9338
:10488c00b736a2ab29a6a734b39a2ab39839c086f7
:10489c0031c28341cb6f3ccc6f4fcf5b4ece5c6152
:1048ac00ce4962cd4b75c83c76c64088bd328abbba
:1048bc00389bb02c9dac35ae9e2ab29936bf893050
:1048cc00c1843fca723bcd6d4cd25c4bd3595fd384
:1048dc004660d34773ce3875cb3c86c32c8dc03124
:1048ec009db526a1b02faea227b19e33bf8c2bc491
:1048fc00883aca7637cd7347d25f46d55f57d34dca
:10490c0059d34e6ccd3a71ce3e84c32d89c13599a5
:10491c00b129a0ae33af9c29b49a38bc8632c2837d
:10492c0042c76f40cc6e50cd5a51d05963cd4568bb
:10493c00ce4579c6367fc43a8fb82c9ab531a7a626
:10494c0028aea432b9922dc08e38c87d35cc7943af
:10495c00d06643d36353d35055d55067d13e6bcffc
:10496c00407dc83282c53692b92a99b630a7a6279f
:10497c00aea431b9912bc08e38c77b35cc7745cfdf
:10498c006346d35e57d24a5dd4476fcd3779cb3867
:10499c008abf2c94bb30a1ac27aba62fb7932bc3eb
:1049ac008d35c97936cf7444d25e4ad95758d5471c
:1049bc0062d64271cd3480cc318bc12a97bc2aa4eb
:1049cc00aa26b5a229bc912cc68934ca743cd46bd6
:1049dc0046d35c50d7565cd14769d14176c83585f2
:1049ec00c63290b72e9eb22ea8a12db69931bd8796
:1049fc0035c97c3dcb6b46d36150d0525bd34b68f1
:104a0c00cd3d77cc3884c12f93bc2f9ead2baba45e
:104a1c002eb6932ec48736c9763ed16a4ad15758e2
:104a2c00d64d64cf4271cd3d80c23193bc2e9daf2b
:104a3c002caaa62fb59231c38736c8773ecf6d49c5
:104a4c00d05956d64c62d13f72d1387fc52f8fc00a
:104a5c002c9db125b2a726ba962bc58c2fcc7937b5
:104a6c00d66d3fd75e4bdc5258d84368d83975cfda
:104a7c003185ca2e92bb28a4b327aea427ba992d90
:104a8c00c28533cf783cd16945d45f53d34b63d4c3
:104a9c004370cb3a7cc7388db82da0af2eac9e2e70
:104aac00b89337c17a3ecd6e4acd5c55cf5665c9a9
:104abc004376c83c85bc3394b534a3a130b4963549
:104acc00bd823ac77847c96351cf5a5ecc4b69cb8c
:104adc004579c23889bd349aad2ea9a333b48e362c
:104aec00c0843fc57047cc6753ca575ecc4e6dc669
:104afc00417bc23b8db5339bac35aa9a34b5903c07
:104b0c00bd7e40c4724ec85d58cc5268c64972c254
:104b1c004484b83794b037a2a235ac973db7843fe4
:104b2c00c1784ac56a4fc66061c64d6ec5447fbd2b
:104b3c003b89b53d9ba536aa993cb5883dbd7c4cbf
:104b4c00c26754c75c65c44d6fc04982b63c91ae18
:104b5c003ca0a038aa9540b78041c3724dc762569d
:104b6c00c75a66c64774c43f86ba3593b236a4a1f9
:104b7c0031b29637bd833ac77647cb6252cf566176
:104b8c00cd466fca3f81bf3492b732a2a72fb09add
:104b9c0034bd8539c97544cc654fcf595fcd46714d
:104bac00cc3b80c1358fb833a0a72db49930be87cc
:104bbc0037c77943cc6250d5525fd04471cc3b841b
:104bcc00bf2e9ab62ba8a32cb89533c47a3bd46ac3
:104bdc0047d25957d44d69cc397fca318eba2da0e2
:104bec00ae2db1972dc68634cc7141d46350d24dc5
:104bfc0062d44271cb3685c43098b129aea52aba9d
:104c0c009031c6813bcc6a49d55957d1486bcf3dc1
:104c1c007dc23391b92fa2a62eb59634be823dc863
:104c2c007348cb5f57cf5167c84479c33c8ab635bc
:104c3c009daa34ab9936b7893ec17348ca6357ca2b
:104c4c005167c8467bbd3990b436a0a235b1933bb1
:104c5c00bd7a43cc6851ca5563cb4a74c13b8abcfc
:104c6c003599aa31ae9d33bb8439cc7344cf5b5696
:104c7c00d64c67cc3d7fc7358eb62ea6ab2db195e5
:104c8c0033c1863ac86d49d35b58ce4770cd3b8251
:104c9c00bd329ab32fa79e31bb8f36c27943ce67f4
:104cac004dce5262d24372c73989be3398ac2fb005
:104cbc009d2fba8839c97642cd5f55d54d64cd3f0d
:104ccc007dc7358eb52da9a82cb59034c77e3dcbac
:104cdc006350d6525fce4179cb3689b82ea6ac2b19
:104cec00b29332c7813bca664ed6555dcd4377cc65
:104cfc003887b930a2ae2daf9532c5833aca6a4b0c
:104d0c00d55959cd4672cd3984bb2da2b228af9856
:104d1c0030c38837c96c47da5855d14570d13880c3
:104d2c00c02e9db728a99f2dc18f31c77542d76260
:104d3c004cd24d66d73c78c62e97be28a5a42bbe68
:104d4c00952fc37b3dd46849d15062d83f73c8348a
:104d5c008fbf2d9fa82bbb972ec47a3ed6654cd205
:104d6c004a68d7397bc32e9bb929aa9d2cc78a3296
:104d7c00cb6e46d85a55d14372d23583bf2da1b3d1
:104d8c0029af972fc88435cd674adb525ad13f796a
:104d9c00cf3289ba2ba8ae28b49132cb7e3acf61f0
:104dac0050dd4b60d03b7fcc2f90b529b2a626baf4
:104dbc008b33cf783dd15b57dc4666cd3786c72d1c
:104dcc0098ae29b99d2abf803ad36d46d05362d68e
:104ddc004270c63590be2d9fa52eba9432c2774331
:104dec00d56150ce4b6cd03c7fbd2fa1b12aae9477
:104dfc0033c8813ccb6451d75161cb3f80c73293d0
:104e0c00ae2eb49e2dbd813dd06d48cd5364d441a2
:104e1c0073c33593bc2ba3a12fbf8f31c57446d65a
:104e2c005e52cf4870d23781be30a1b229ae9732d4
:104e3c00c88337cb674ed8535ccd407dcc328cb613
:104e4c002eaca72bb68a38cd7640cc5c5bd6496aa3
:104e5c00c73a8ac22f99a930b79831be7c42d16823
:104e6c004dcc5168cf407bbd329db22cac9535c535
:104e7c00813ec96255d44d68c63a89c0309ca53173
:104e8c00b99236c27249d35b59ca4577ca3889b3cd
:104e9c0030aaa42fb7843bd06f48cd5264d342774d
:104eac00c0329bb72daa9632c7853bc76452d753e5
:104ebc0062c83c84c63296a92eb69b32bd7a41d3c9
:104ecc00694fca4d6cd1407db932a0b12fac90372f
:104edc00c68140c46257d35367c23d88c0359aa17e
:104eec0033b8933abc724acf625bc34779c73c8be9
:104efc00ac34aaa037b57e42cd6c51c64e6ccc41b9
:104f0c0081b533a3ab31b2893acb7448ca5463d25e
:104f1c004477bf339ab42eac9333c87f3ecb5d58e5
:104f2c00d64a6dc5358ec0309fa02ebf9036c66a4e
:104f3c0049d8575dcc3c7fca3394ad2bb69c31c25b
:104f4c007540d86054cf4175d0378bb32aaea62f9d
:104f5c00ba8039d36d4bce4b69d43d7fbc2ea0b1fa
:104f6c002faf8f33cb7d3fcb5b58d7496ec6319279
:104f7c00c02ba59e2cc48b36cb644cdd4e62cd353c
:104f8c0087c82b9ea828c09330c87045da5859d0d2
:104f9c003e7cce2f92b32ab39f2dc27c3dd8614e5e
:104fac00d24570d23488b929aea728bd8338d56bc9
:104fbc0048d14a69d63880bd2ba5af2ab68935d1e0
:104fcc007245ce5063d6407bbd2da0b22db18d3530
:104fdc00cc7944cc5360d64278bf309cb42fae9081
:104fec0033cb7b41cc575cd64575c2309ab72cadd0
:104ffc009331ca7d40cd585ad74573c43196b92cdc
:10500c00ad9630c97d3fd0585bd84176c52f99b647
:10501c002bb19230d07640d25360d63e7bc22ba1be
:10502c00b129b68d34d07145d14f65d53c7dbf2e9d
:10503c00a2ad2bb68b36cf7046d05066d43a7fbf1c
:10504c002ca5ac2ab88837d46b48d34a6cd4348896
:10505c00bb28b1a528c17e3bd8614ed34373d22e59
:10506c008cb729b3a028c27d3dd75f4fd24376cff2
:10507c002e8fb42bb39e2bc17c3fd75f51d044777e
:10508c00ce308fb32cb39d2ec17942d85c57ce4015
:10509c007dcb3397aa2cbc9434c56d4bd55665c8c3
:1050ac003a8ac031a49c32c28340ca5d5ad3497536
:1050bc00be349ab132b08a39cb724cc94e6bcc3fec
:1050cc0086b230aba034bc7844d15f5ac9417dc69e
:1050dc003697a62fba9139c56750d5516ac5378e08
:1050ec00bc31a69832c58041cb595ed44578be31cf
:1050fc009db032b18939cb724ec94d6dcb3f88b161
:10510c0031aa9f38ba7945ce625dc6427fc23999c1
:10511c00a232b78e41c26554d05071be3694b335ad
:10512c00ac8e37c7764cc95068cc4188b12fad9d39
:10513c0037be7446d05f61c63e82c2369f9e31bd7b
:10514c008940c56255d04f72be3696b333ad8c389c
:10515c00c6784cc65366cd4482b434a2a639b47f0b
:10516c0041cc6859c54779c43c93a633b2943ebe32
:10517c006c50ce576cbf3b8cb63aa59239c17d4b67
:10518c00c45863ca497fb5369ea63bb47f42c968f2
:10519c005bc44877c14094a434b39140c06852ccee
:1051ac005571bd3891b239ac8b3ac67651c64e6b3f
:1051bc00c9438aad32a99c3dbb7349cc5f67c13fe3
:1051cc0085ba3da09737b9834bc15b5fca4b80b39f
:1051dc00379ea53eb37d42c7695ec24779c04097f2
:1051ec00a135b48f44c06655ca5475bb3892b03bd8
:1051fc00ad8a3cc37553c54f6cc6448dab33aa996d
:10520c003fbc704bcb5d69c13d87b93ba39636bda6
:10521c00804bc55860ca4981b433a1a43cb87a43c9
:10522c00cb6264c53d82bd3ba39834be814dc8534f
:10523c0062ca4589b22fa89d3dbe7148ca5d6cc338
:10524c003988b639aa9236bf7953c94f67c642908e
:10525c00ae2fac9540c36d4bca5770c4368db33668
:10526c00b09035c47353ce4b69c83c93b02daf94fa
:10527c003ec9694bd04f73c73291b134b68c35c926
:10528c006d54d1456fc7379aac2ab78d3cce634f5e
:10529c00d14b76c53196af32b98836cb6a54d045ee
:1052ac0071c63999aa2bb78e3ccd6251cf4b7ac1be
:1052bc002e9cac31be803bcc635fcd3c7dc233a712
:1052cc009c2dc07c49d05160ce3e8db62aac99380d
:1052dc00c86d46d25170c93092b230ba8a33ce6999
:1052ec0056d33f77c731a3a628bf8540d35758d58f
:1052fc003d85c027a7a232c7753ed75466d03288e9
:10530c00bb2eb1952dcb724cd5476acc3796af27b7
:10531c00b7903acd644ed14b77c32f9aad31bb8346
:10532c0038cc655bcd407ac335a4a02dbf8047cf68
:10533c005260cf3e8cb42aae9839c86a49d24f74a9
:10534c00c42f98ae32bd8139cf625ece3c7fbf3464
:10535c00aa992fc6784cd04b6ac93b95ae2cb49009
:10536c003fcc6154d0487ebe2e9fa538bf7940cf2c
:10537c005c66ca3987b836ae9232c67352cf486e65
:10538c00c7399aa92bb78a42cd5b57d04385bb2b23
:10539c00a59e39c56f45d15371c63092b035b885cd
:1053ac0038cc675ccc3e7bc137a59e2ebe7f4acde8
:1053bc005163cc3e91b12aae933fc86450cf4b7d24
:1053cc00bd2d9ea438c1753fd05a6bc8338cb634f2
:1053dc00b68a33cb6b59cf3d7ac534a89c2bc47b92
:1053ec004dd14769cd399ba827bb8943cf545bd29c
:1053fc00418bb527ad993cc9634dd34c7dbe2c9fd9
:10540c00a739c07441d15c6dc5338db439b58636be
:10541c00ca6a5fca3c7ebf37a9962ec37951cc4766
:10542c006cc93c9ba629b88a45cc555bd1428bb440
:10543c0028ac9a3dc8644cd24e7cbc2ca0a539c279
:10544c007044cf5772c03196ac39ba7c3ec9626a8f
:10545c00c2388bb13cb4813fc66668c23c86b43e50
:10546c00ad873cc46c60c4417fba3ea79137c0760f
:10547c0059c64675c03ea19a32bd7e51c84e6ac708
:10548c004196a52fb68b47c7575ecc468baf2fac3a
:10549c009443c46056cd4a84b330a79a40c1694e38
:1054ac00ce517aba319ea43bbe7346cc5971bf34ef
:1054bc0097ab38bb7a42cd5d6bc4368eb239b581b1
:1054cc003dcc6265c73889b639b18739ca685fc8bf
:1054dc003b83ba39ad8c35c96d5bca3e7dbe38aaeb
:1054ec009231c77356cb4276c33aa4992fc27b50e4
:1054fc00cb476fc73c9d9f2dbe814cca4d68ca3fa0
:10550c0097a52db98848ca5263cc4092aa2cb58c69
:10551c0045c9565fce428fae2bb19144c75a59cf75
:10552c00458ab12bae9542c65e55d04885b42caa9f
:10553c009a3ec56450d14c7fb82ca69e3dc4674d95
:10554c00d14d7eb92da49f3dc4684cd14e7eb92c53
:10555c00a49f3dc4674cd04f7eb92da3a13dc36918
:10556c004bd0527db92ea2a23dc36a4bcf537bba0e
:10557c002f9fa33fc06a4bce537db82fa0a141bf34
:10558c00694dcd527eb62ea39f41c1674ecd508042
:10559c00b52da59d3fc4644ecf4e81b62ca69d3d26
:1055ac00c6634ed14b83b728aa9c3dc9624ed24be1
:1055bc0083b827a99e3bc9624dd34a83b827ab9bbe
:1055cc003ecb5b55d1448faf27b68b48cd4d64cacb
:1055dc003f9da02bbf7e54cb4176c33bad8d34c9d0
:1055ec006b65c7378ab53bb97b3fcd5c72c03199cf
:1055fc00a63dc16c4bcc5180b52ea69843c45d57cb
:10560c00c9488da92eb1894cc75166c3429b9c32a7
:10561c00ba7a56c64676bb3fa88e38c26c63c43d78
:10562c0086b13eb48041c65e70bf3696a53ebe7153
:10563c004bca527eb932a39942c56456c9498ab045
:10564c002faf8d47ca5762c6409aa430bb7a54cc50
:10565c004677bd39ad9037c56765c73a8bae3abb57
:10566c007b44ca5578bd32a09a40c66458c7458f52
:10567c00ad30b3834dcb4f6ebf3ca49835c26c5e3e
:10568c00c83e86b138b88041ca5773c1319d9f3a24
:10569c00c76951cc4589b52cb28a44cf5166c739fc
:1056ac00a1a12ec37254d13e7dbb32b58a37cd5cdd
:1056bc0068cb3096a933c67247d14880bf2aac94c8
:1056cc003bd15b5bce3a98ac2ac07a4bd44475c1c3
:1056dc0032af9234cd6262ce3490ae33c17643d0c9
:1056ec004d7dbe2ba9953ece595ccb3b9ca62ac0ca
:1056fc007751d13f7abd34b48b35cb5f6ac92f97c4
:10570c00a737c76d49ce4887b829af8d44d05363ae
:10571c00c73ba1a12dc07358cf3d80b736b8853b90
:10572c00ca5972c52f9da03bca6750cb448fb12b71
:10573c00b5844ad14b6dc138aa9732c56962cd3751
:10574c008cad37c17744cc4e80bd2ca99241cf573c
:10575c005fc83a9fa42cbf7356d13d81b633bc832e
:10576c003bcd5376c52ca29a3cce6057cc3c97ad22
:10577c002bbb7b50d14379bc34b48c37cb5b6cc81e
:10578c003099a338c9694ece438db32ab68349d21a
:10579c004a6ec336ab9632c86563cc348fac35c217
:1057ac007446ce4b82ba2cac8f43cf5364c63ba30a
:1057bc009d2fc36e5dcc3a86b238bc7b42cc527ef8
:1057cc00bb2da89343cd5661c53da29d30c16e5ee5
:1057dc00cc3989ae38bf7744cc4e83b82bad8c47cf
:1057ec00cf5067c43aa89731c56865cb3391a938b7
:1057fc00c76d4acd478cb32ab5834bd24771c035a0
:10580c00b28f35cb5e6ac93098a439c9674fce4187
:10581c008fb229b8804cd14673c035b28d35cc5d72
:10582c006cc82f9aa33bc96352ce4193ad29ba7e63
:10583c0050cf4278bc37b5863acc5873c32d9f9c59
:10584c003eca5d59ca4099a62dbd7757cd3d82b44d
:10585c0037bc7b42cc5181b82dac8d48cd4d6cc141
:10586c003aac9035c8626bc63199a33dc76453cb33
:10587c004395a92bbb7a54ce3e7fb737bb7c40ce29
:10588c00517eba2bac9044ce5166c63aa69732c71d
:10589c006766c83294a83bc6674fcd4690ad2bb80f
:1058ac008052ce427abb39b6823ccc5878be2ca5fd
:1058bc009742cc5760c73fa29b30c46c62c9358eef
:1058cc00ab3bc26e4acc4a8bb02bb68350cd4477df
:1058dc00bc3ab4833ccb5978bc2da69546ca5265cc
:1058ec00c43ea79234c7656bc33198a241c65f58ba
:1058fc00c9459a9f2fbe755ec73988af3dbd6f49ac
:10590c00cc4e89ae2cb48551ca4477bb3eb2803e96
:10591c00ca5b7ab82ea6954ac75168c341a68e3683
:10592c00c5676dbf3299a144c35e59c7479a9d3074
:10593c00be7560c53989ae3fbc6e4aca508aaa2d65
:10594c00b48355c8427ab840b47d41c85b7fb32e4e
:10595c00aa8f50c64a70bc43ae823ec6607bb4313f
:10596c00a4944fc3506abe46a8873cc46476b63232
:10597c00a0974ec35168c045a7893ac46475b93124
:10598c009f9a4bc45564c246a39037c26a6fbe330c
:10599c0099a047c25d5cc5489d9733bf7068c036ff
:1059ac0092a545c06157c64b989c31bb7763c139f2
:1059bc008bab43be6751c74e93a12fb97b5ec43be3
:1059cc0085b041bb6f49c9528ca92db58259c73ed0
:1059dc007fb441b97346ca538aaa2cb38458c640c3
:1059ec007cb544b67247c8568aa82eb1845cc23fb7
:1059fc007fb347b76e4bc6568ea231b48060c13ca4
:105a0c0084af48b96a4fc65292a030b77c63c03a93
:105a1c0088ac47bb6652c64f969c32b97866c03983
:105a2c008ba948bd6355c54c9a9a32bd7369c03574
:105a3c0091a646c16156c64b9b9a31be7267c23560
:105a4c0090a646c06156c64a9b9a31be7268c03653
:105a5c0091a548c05c5cc448a19136c16a72b93149
:105a6c009c9b4dc35166c046a9873ac4647ab42f37
:105a7c00a69250c64a70bc44b07d40c75c83ad2f23
:105a8c00ae8858c3437bb446b5714ac7548fa23015
:105a9c00b87c62c1398aab46bd6454c74d999a3201
:105aac00be7469be3593a548c05c5cc44a9f9235f0
:105abc00c06c70ba329b9c4cc25365c147a7883ae4
