:020000040000fa
:10000000f0ff0020fd0200000305000005050000d0
:1000100000000000000000000000000000000000e0
:1000200000000000000000000000000001050000ca
:1000300000000000000000000105000001050000b4
:100040000105000001050000010500000105000098
:100050000105000001050000010500000105000088
:100060000105000001050000010500000105000078
:10007000010500000105000000000000010500006e
:100080000105000001050000010500000105000058
:100090000105000001050000010500000105000048
:1000a0000105000001050000010500000105000038
:1000b000010500000000000001050000010500002e
:1000c0000105000001050000010500000105000018
:1000d0000105000001050000010500000105000008
:1000e00001050000010500000105000001050000f8
:1000f00001050000010500000105000001050000e8
:1001000001050000010500000105000001050000d7
:1001100001050000010500000105000001050000c7
:1001200001050000010500000105000001050000b7
:1001300001050000010500000105000001050000a7
:100140000105000001050000010500000105000097
:0c01500001050000010500000105000091
:020000040000fa
:10015c00f8b5c046f8bc08bc9e4670477503000055
:10016c00f8b5c046f8bc08bc9e4670475103000069
:020000040000fa
:10017c0041f20003c4f200030220187641f2004160
:10018c00c4f2000100220a7441f60001c4f200011d
:10019c0008621a8641f20002c4f20002802149046e
:1001ac0013690b42fcd046f22003c0f280031b689b
:1001bc005b009b0e9b0240f200221343d200c4f260
:1001cc000002536341f20002c4f200028021490490
:1001dc0013690b42fcd041f20003c4f2000302226b
:1001ec001a86d202c4f200028021490413690b4220
:1001fc00fcd041f60043c4f2000340f20712c0f2f7
:10020c0001021a6241f60042c4f200020421536852
:10021c001942fcd141f60043c4f20003e422402110
:10022c00995041f60042c4f20002e42013581942de
:04023c00fcd070473b
:020000040000fa
:1002400042f60003c4f2002301221a6042f60002c3
:10025000c4f20022012193681942fcd142f6000346
:10026000c4f2002341f200021a6000225a61586968
:1002700040f60061c4f24001014359610221d96393
:10028000ec3159649a64da641a65dc32ff321a641c
:1002900042f60002c4f200229368002bfcd17047a2
:020000040000fa
:1002a00000230e4a10b513600d4a0e4c13600e4a1f
:1002b00013600e4a13600e4a13600e4a53621361b4
:1002c0000133936000f021f900f01ff90a4b9c42c2
:1002d00000d310bd08cc9847f8e7c0467000002056
:1002e0000c00002068010000080000200000002031
:0c02f00004000020100000206c01000041
:020000040000fa
:1002fc0010b540f20753c0f20003984740f2075381
:10030c00c0f20003984700f059f840f20003c0f225
:10031c0000037f2293434ef60052cef2000293600c
:10032c0040f2a123c0f20003984740f20753c0f2f9
:10033c000003984740f20753c0f20003984700f0bf
:04034c00cbf8fee705
:020000040000fa
:1003500010b5054c237833b9044b13b1044800e0c1
:1003600000bf0123237010bd5000002000000000da
:1003700000000000034b10b51bb10349034800e027
:1003800000bf10bd0000000054000020000000006d
:020000040000fa
:1003900040f20043c4f2000300221a819a7901213d
:1003a0000a439a719b7803221340022b0bd040f230
:1003b0000043c4f20003013a9a705202c4f20002f0
:0803c00093790b42fcd0704759
:020000040000fa
:1003c80010b50a48016821b9436813b900f098f8d4
:1003d80010bd04008368064a9bb20c349b009b58ee
:1003e80042682000984780002018ebe7fc030000d3
:0403f800ac04000051
:020000040000fa
:1003fc005000002020000000000000000000002041
:10040c0050000000000000007000002004000000fc
:10041c000000000000000000000000006666666638
:020000040000fa
:10042c0010b5fff7afff44f20003c4f2001304222f
:10043c005a6000f02af8fff79bfe00f03bf800f042
:0c044c0058f8fff7f7fe00f04ef810bd66
:020000040000fa
:1004580042f60003c4f200231a6802210a431a6014
:1004680042f60002c4f2002293681942fcd1704798
:020000040000fa
:10047800002310b5934206d103201840421e904134
:0e0488009b08c01810bdc45ccc540133f2e7d1
:020000040000fa
:1004960043f20003c4f20003442201219954123aa4
:0604a60003319954704778
:020000040000fa
:1004ac00d304000079040000fb040000fb040000ee
:0404bc00fb0400003d
:020000040000fa
:1004c00044f20003c4f2001306225a60053a1a727d
:0204d000704773
:020000040000fa
:1004d2008a18914201d10020704700230b7001312c
:0204e200f7e73a
:020000040000fa
:0e04e40010b50020fff7a0fffff7b4fffee702
:020000040000fa
:0804f200bff35f8f62b6704793
:020000040000fa
:0404fa000020704727
:020000040000fa
:0204fe00704745
:020000040000fa
:02050000fee714
:020000040000fa
:02050200fee712
:020000040000fa
:02050400fee710
:020000040000fa
:0205060070473c
:020000040000fa
:0205080070473a
:020000040000fa
:02050a00704738
:020000040000fa
:0200000400807a
:0440000077438fb0c3
:020000040000fa
:0200000400807a
:04400400bbf0ffff0f
:020000040000fa
:0200000400807a
:04c004000000e8ff51
:020000040000fa
:0200000400807a
:04c04000ffffffff00
:020000040000fa
:0200000400807a
:04c04400fffffffffc
:020000040000fa
:0200000400807a
:04c04800fffffffff8
:020000040000fa
:0200000400807a
:04c04c00fffffffff4
:00000001FF
