:020000040000fa
:10000000f0ff0020ff590200075d0200535d02006f
:1000100000000000000000000000000000000000e0
:10002000000000000000000000000000275c02004b
:100030000000000000000000275c0200275c0200b6
:10004000275c0200275c0200275c0200275c02009c
:10005000275c0200275c0200275c0200275c02008c
:10006000275c0200275c0200275c02006758020040
:10007000275c0200275c020000000000275c0200f1
:10008000275c0200275c0200275c0200275c02005c
:10009000275c0200275c0200275c0200275c02004c
:1000a000275c0200275c0200275c0200275c02003c
:1000b000275c020000000000275c0200275c0200b1
:1000c000275c0200275c0200275c0200275c02001c
:1000d000275c0200275c0200275c0200275c02000c
:1000e000275c0200275c0200275c0200275c0200fc
:1000f000275c0200275c0200275c0200275c0200ec
:10010000275c0200275c0200275c0200275c0200db
:10011000275c0200275c0200275c0200d95a02001b
:10012000275c0200275c0200275c0200275c0200bb
:10013000275c0200275c0200275c0200275c0200ab
:10014000275c0200275c0200275c0200275c02009b
:0c015000275c0200275c0200275c020014
:020000040000fa
:10015c00f8b5c046f8bc08bc9e467047bd5a0200b4
:10016c00f8b5c046f8bc08bc9e467047995a0200c8
:020000040000fa
:10017c007e898987847a7d7b7d878f959a90898209
:10018c0077727171787b757e808285828c87828391
:10019c007570726c6b7780878a8489807d827879a0
:1001ac007e7f8085868680848d86878178756f6e4c
:1001bc007b80848b83857d767671788282818a8a36
:1001cc008c8d8a8f8a8c89797471696f8087938ff3
:1001dc008e8e7f7e7d787577747a7d8180757d7f3c
:1001ec007e7d7b78777677848591938a877c77760a
:1001fc0074767d787d82818782888d878a887f7de1
:10020c00786c75828c9290938d8383847a80807cb9
:10021c007c7a857b79858381827f78736e72777c1b
:10022c00868480807a7474727878757f7f858b87ea
:10023c00898a898b857b796d6878808890928f8686
:10024c007f817d777977767b7f817f818a88898ca6
:10025c008689817a828288908c85817a7578797d7d
:10026c007a767c7c7e858381828384807c7a6a69c1
:10027c007676828c858683838581817e7b7c7e7e6f
:10028c007e8080838586868281776f77777c888570
:10029c00838078787c7d827e7c8582898f8a8a892e
:1002ac008988837e766d707b818e91888c837f822a
:1002bc007a7a75727674777876797e7e8085838289
:1002cc007d80827d888c817e7b74777879807a7d45
:1002dc0083818387838785868c858379747c8087eb
:1002ec008d8b89878587877e7d7c797b7e817d7ae6
:1002fc0081818284837d77707077778180787e7638
:10030c00757d7b797a7b7a81858a8b8286828485de
:10031c007f7a73717a828b908889817e807e7d76dc
:10032c00777a7d7f8382808486848a8c8986818299
:10033c0082818b847d7e79777a7e7c7f7e7f8282c0
:10034c0082837f7e7e7b7d777570707a7d838482dd
:10035c008786858b857b7e7e7a7c7d7e7c7e858484
:10036c007f86837c7c797c787e837c7f827a787da7
:10037c007a7b817f848a88888384878588857e7f41
:10038c00797c868b8f8581847e787d756a7171719d
:10039c0079787a75778581838a868585868a8a8a33
:1003ac00887f7c82787d84767c78767c7a7d7c7480
:1003bc0075777d848687877d808e92948f919085ca
:1003cc00888a7f82817c7d7f7f7f7a7d80767d7736
:1003dc0070706b6970717b7b777e7f7a8083858c84
:1003ec00848a8b8b8e8b8884807e7e797877727ce6
:1003fc00828083807d7a787c766e79787983898a1d
:10040c0089878f8e8c948b8e898283898384837960
:10041c007f747578797d7b787877747b7b74767a4a
:10042c007e767d7c777a888c8b918a908b8c898375
:10043c007f7f77797e7a7b787d7b7a7b7c74737314
:10044c0071777b7c8280828a828587888a89898d74
:10045c008e8e8b86858485817f7b706f7682807e85
:10046c007e7573747576737277757c86898c898dbd
:10047c008c8f8c8d8d81827f87847880756c706970
:10048c007075717b74727e7d84848583848c8c9270
:10049c0089888086979294928f898585837b7676de
:1004ac006e72777274757275797878767779787fe1
:1004bc00807f85888082848489878f85818b8684e0
:1004cc00897c727b726c6d68706e728b7d7e8b8298
:1004dc0085818a897a878b7f8c9486858c918d8790
:1004ec008f88787c837d797c79766d7b796a7c7b4f
:1004fc00757780817d8589857988857d8c81777def
:10050c007e8987868c8281807a817f737273737205
:10051c007780777782787e817f80808b87858588ce
:10052c00888187837e8886847f7d85828281807b9b
:10053c007978797e7476737a83798a8581887e84da
:10054c00827d7b7d857f8484858682888280838082
:10055c007b7d7a767271736e75736f7b7a8284820f
:10056c0089858b9390888986828686838787868601
:10057c008387877e8980777f7877717a76717b7aab
:10058c00787e828781818a7c84887a7c83877e814d
:10059c00857a827b827f7684737b7d797a6f7c739c
:1005ac006f7974777d86888c918d8a8b8a8a878403
:1005bc00818180828a8585887a7a7c787f737d7b3d
:1005cc006d7673777f7f8282828a8b8b8c8c848909
:1005dc008a88877c817c787b7874796f71796f7e5f
:1005ec00747579737e7a7c7f8084878d8b8c8d94e7
:1005fc008e868d898389837a73747d6e717a706b24
:10060c0076776d757a7b7e898c878d918a8e908dad
:10061c008e8d88898c888e8a827b767c6c617169e0
:10062c00626a6f6e72747e7d808f858d948b858de2
:10063c008c858d8c89888b8a7d84807173756b6aaf
:10064c006664686778727c8e888a979c968f9e9673
:10065c008d9c968a8992827a807b6b6465615763e4
:10066c0069637679797e84918d8f8b808f88899060
:10067c008f928c949188897765675a57605d6c71fd
:10068c00768589949492948f878888828c8d8991b1
:10069c00919289887d6b6f6563696b69717a828cc5
:1006ac008f8f918f8e84878e808c908e8f8d8b7494
:1006bc006f715c5a60605a64757c8b9194959593bc
:1006cc009084848a81878b908c8d887a7c6667660f
:1006dc005d665c6a787a888c8e928d9589838e861d
:1006ec00889393998f81826d676a616b6668767b5c
:1006fc00898f9496949290847f887e7d88887f7968
:10070c007a716b656b68676f6b7a7d87918f92914d
:10071c0093879192838d8d8a7c7e826a6e6b5e61eb
:10072c006b72767f8685919a959c96969691958c10
:10073c008e7b72806b6b766666696d777b89818048
:10074c008885898b8a8789898a86747e7a67737093
:10075c006d767778767b87848e938c8c8b8f898b58
:10076c00948c767c82636a766166727977829082e9
:10077c008993938f8d95848795827980786e6f7429
:10078c006b677b7977898b878c8d867b8186798566
:10079c008a6e6f7d6f6973756c7485848292928694
:1007ac0093998d8e9485838d80717e7661656b6552
:1007bc0066767676898f8b919a928897928d9c8d9e
:1007cc007a7d7a6c6c75706c787979888e878c955b
:1007dc00868391837e87786f73746a646c6a6a7b94
:1007ec0080808a8f8f949b8c878e8689877b77718c
:1007fc006c666b716a757e7980888b8d9998898f00
:10080c008c8b91897f7c7b7172797372797c7b85ff
:10081c008d8a8d9089848c88817f7876716d6667de
:10082c006c69737a7b81888f8e97988f95928e8d59
:10083c007c76756c6b6a6b686973757f83898b9337
:10084c009d8e91938c90897f7a6d6f6d6a6f6b75ad
:10085c007b7c868f929498939191908d857d777304
:10086c006e68656863666f6b777c818f8f929291ef
:10087c0093948f8a867f7e777070686e76727c7c9c
:10088c008189868d90898d8b8583817e7f7b757424
:10089c006c7073777f80868b8d919490938c7f880e
:1008ac007d7f827a7b787573706c756f757f8082b3
:1008bc008382888a828a807e8680848479807b7514
:1008cc007974767c787e7d787d8282808480868344
:1008dc00878b8486817d7f7d7a7e7c7c80818486fb
:1008ec00868687898e8b8a8b858683827f7c7973bb
:1008fc0075716c716f737879808082888283818145
:10090c00858484848480807f807f777678757c81f1
:10091c00808786868c87888982847f7c7b757275bc
:10092c00747075737a7f808788878f919299928f74
:10093c008d8786827b787770736e6c706c7178762d
:10094c007b7f808480848782868682878483837f72
:10095c007e7d7a7a7a7b817e7f8281828888888686
:10096c0080817f7d7d797875747677787b7f8086c2
:10097c008a8b909291918f898785817e7c7977760d
:10098c007579797a7a7a7f8081828382827f7b798a
:10099c00747475767979797a7a7e80818583848787
:1009ac008b8a898b868485817f7a7976727573724e
:1009bc007677787e7e7f82878b8c8d91908e938dcf
:1009cc008a8983807e7b7775747478787b7e7d7f53
:1009dc007f80827f7e80797b7b777a7a7c7e7b7c42
:1009ec007f7f848584848283898a888785818182bc
:1009fc007f7e7c7c7a797a79797a76787b7b7d813b
:100a0c00828487878b8d8c8b89868280817e7c7a91
:100a1c007a6f7a847c7d7b7b7b80807d7a7e7c7b0d
:100a2c007c7c7c7a7a7a787a7d7d817a828a888ad3
:100a3c00898a88878784808183817c7d7e7d7a7a90
:100a4c007875787a7a7e7f7f81858989888a8a8889
:100a5c008989868280808080807e7e807e7d7c7c81
:100a6c007c7d80817f7d7d787978747474737579e1
:100a7c007a7f8386898a898988848385837d7c7a39
:100a8c00787574747477797b7e807f858a8a8d8f74
:100a9c008f8b8a8c837d7e7b757476767679808558
:100aac008990918c8a8c888685827b7b79706a6828
:100abc0069676b73797d828e948f9095948f8e89f4
:100acc007c7372746f6c727473788487868e959550
:100adc008d8c908684837a7571716866726e727d66
:100aec00858c8e979a97928e90868382716b6d69a6
:100afc0064656f70757b7d848389909092878b8af7
:100b0c008888737474696b6b726f6f7e85898f962e
:100b1c00948f938c898c8a8a7873796c65667071e2
:100b2c00718484848f97979499958e8d918a717026
:100b3c007b6e636c756d7185868189948f92958bb4
:100b4c008882877d686f6d5d5b6a7069798d898a33
:100b5c00979c8f8d92878588897a6472705d62709c
:100b6c00726c7d88858c999b939e9a868d908d7adc
:100b7c006a79685d69706e6b83858295938d8d97ac
:100b8c008c83918b8b7a717c66606668686b807dd8
:100b9c007f8e908f929a8c8b938a86706d7663671a
:100bac006e70717689888b92949596978c8d8e8abf
:100bbc00836b736f59616a6d6e7f8986949993927a
:100bcc009b9485928e8b7b6975665c66686c6a7f7c
:100bdc00877c8d908b8d958a838f8a8b776e7a62ca
:100bec00616d6c6a6d887e8099928e9396878a95da
:100bfc008d87747875606a716c688083788e8e8a44
:100c0c008f9b93859a968d876e796e5e6d6f706de6
:100c1c007f8284928e8e92968987928988716d7468
:100c2c005a606866697482808a918d8e95928493dd
:100c3c008f8e906e73725f666a6e6c7d867f908b02
:100c4c008b8b958c859a8a94856f836d6673717185
:100c5c00768583868e8e8a8d917b848e848d706e44
:100c6c00785d666c6e6f76857f868e8a8a918d7fb5
:100c7c008f8f89846b796c5c6e70737681848691ae
:100c8c008e8c909886879888927a68806362726d51
:100c9c00717489868a99928f96967f8c90878d6dc8
:100cac0072745e68686e6d78837e8c8e898a958a84
:100cbc008192858b7c647e665e716c72718285829a
:100ccc00948a8c9692838993858e7b6f7b646371f7
:100cdc006d6f708886829c908e9895888f92908a82
:100cec00707a6e5c6d6e6d787f827f8d8c83909642
:100cfc00898b9a879981647d5f59655f6860778677
:100d0c007a9790889793858f9789947a757e616886
:100d1c006d686e6a7c7b7d8f8589988f879a979595
:100d2c0098777f7d6070706e7576887c87937c8fea
:100d3c009483818e888d8470826e6670686f6c74fb
:100d4c007e7a898a848d90878a958d947d70816353
:100d5c0067766770777b7e828e86889289888f8f84
:100d6c00919a7c7d866470726d6f727d79848d85ad
:100d7c0090928d898c908b93757c805e7073697367
:100d8c007b807b858a7c878a858087888a8a6f802e
:100d9c00775d6f716a737f7c818d8a889192898669
:100dac008d848e8a6c87725f7a696874797b808a8d
:100dbc008c8b9590908f918d94906e83765c736ee6
:100dcc0063777d77828d8787948e898b8a849088d0
:100ddc006d87705b7763607472777f88878b968979
:100dec008d8b8989908b71856f6173656a7a7b783d
:100dfc008189828c948d908a8d8d988a778d6d6681
:100e0c0079666d7a747786848594918b8f8b8b88b9
:100e1c009785728a696773606b726f71787f7f8b4d
:100e2c00888795889090988a70886e677a6a6e7bae
:100e3c0075748380838e898b91888c8b9689788f3f
:100e4c006e6a76656e76787a818888908d8c9485ba
:100e5c008b8c8f8d72886f6477636e76747a7e7ede
:100e6c00838b84898e808987908671896b687a647c
:100e7c007277717983888b908c8c8f868a8e948c08
:100e8c007687706374676c777572828386918b92a8
:100e9c00978c8f91918d778774677b666e79747759
:100eac007b807f858a8a928988888c9273857a5c0c
:100ebc007563647670727d82808a8b8791888a8f45
:100ecc008e9176877e5d7e6f688072737d7d828a5f
:100edc009089918b849291967d8581647f706b7cd7
:100eec0074737c8381898e869089868d8a937780b2
:100efc007b60746867706f72767b7e878988938e4f
:100f0c008b938d937a8183667a726475766f7c7e0f
:100f1c007e878b8a8f8c8b9090977b887f647f6e7b
:100f2c006d7e7277827e82898d87928986908b9373
:100f3c0077877a607c686a7d6f727e787e84858420
:100f4c008a82868a8c91718b7b65826a6c7e737abd
:100f5c00838185858a878c84878b9388728e6a655a
:100f6c0083667184767e8885868e8e8891898e8c38
:100f7c009582798e61727c5f787c727f7f7f848ba7
:100f8c0089898c808a8a917778865a72736277798c
:100f9c00737e8981848d848b8a898e8f906e827cfe
:100fac005a7b6d697f76798186868c91898f8b8a45
:100fbc008e988b6f8a7463806c6c7f7b79848a804b
:100fcc00898a858b898c8a9b7b718a5c6276626c40
:100fdc007d77758a857c8e8a868b909293957178b5
:100fec00825a6c7a65737f797982877c898f878640
:100ffc009391989c708b795a796f6f7c827f808cdf
:10100c00837c8a84818990909d84718a6563786cd5
:10101c00737d80777c867680888381888e919c6fa7
:10102c007684596c826e77867f7c818d78818d7ffa
:10103c0081928e97976c8474567574728187827db9
:10104c008a83798b8d858799959b86697f6a5c7776
:10105c007b74838b817d887e74878a7f8895929937
:10106c0070737b546670727b85898081847d7983f3
:10107c00887c8d959a91657870516d7d7585908a77
:10108c0081828176828c87869a93a3896485645b3e
:10109c00787c80848d8579817e74818c838a999902
:1010ac00a170677e54627b7b82888b7e747e7870a5
:1010bc00868e818f999c985b6b704c6c8187868f28
:1010cc00917a78847778909186969a9d89567668ed
:1010dc005174878686988f717988737d978f8599df
:1010ec009d9e76557559597e88878a917e6c787944
:1010fc006f81928b889a9699684f78595984928906
:10110c00888e80687a827b8d9b8f8d9b9c92535f9f
:10111c00765263889082858e7464807d7c95a696c9
:10112c0096a6a28a4e6372516f928f8584846965ec
:10113c00817c8296a18b909c9c72457066567c93a8
:10114c008982857c646e827b889a9c87939c99614a
:10115c004d766160869d877d867660737f818c9fde
:10116c009e8d9c9e95535581686b94a18479827257
:10117c005c7785858ca59486969e8a3f60805e6c94
:10118c009895777580695e81818194a48c8c97a1e8
:10119c00743772795c7a9f96757b826366828988d4
:1011ac0095a18a8e959e683c79796485a492737a10
:1011bc0082687190908c9b9e878c9198543d827024
:1011cc006588a18d6a76786071878e87999a898dea
:1011dc00969541508971698fa27f6679765f7b8f76
:1011ec0092889d95838c97833861896e769b9d78c8
:1011fc006c7d736b89949596a2948e8ea2683474d0
:10120c007b69729a95696b80686e879896979f8fa9
:10121c008b939951407b82667aa0865f6d7c63725a
:10122c008c988f93968d87958c3d5883796f89a276
:10123c007c637a776a7f9398889d928a89a07237ab
:10124c006e837a72999c6e697f7776859ea2969f43
:10125c008e878b964d387b7c69719882576476703b
:10126c00758ea29da09b998fa08c355f8978658720
:10127c009c6e5674796b7d9198889c92898aa46a2d
:10128c00367a8c7c759c9966627b75717f9d959086
:10129c009692878e9f4d518a8e7c83a18b5c6c7d40
:1012ac006878858f80847a827d927b366b908b7781
:1012bc009da6775f7683757a99978b91908e8394a0
:1012cc004d3e75877570a0934e6183747980a1969d
:1012dc00909ea994a890417a908577778b694b69f9
:1012ec0079757e8c9ea49593987b9b50307f746f00
:1012fc00799997717089857a8ca69597898f867c58
:10130c007d29557d6e75829981667a8a7e7796a243
:10131c00928573877c935d42878f8991aaab846b8e
:10132c007f7d6d6c857a8b818eada29c4756908aa1
:10133c00738793694b52687077a1a8939a797f85cc
:10134c0089645092b2a088a28b565c696b707297bc
:10135c008686a29cafa98e393c6165555e9c7f6fd9
:10136c008f968c889e9c7fbf9267b38a315d807606
:10137c00c2727fbc434783696994ac91a191687c2c
:10138c0077742e467d7a8073a799769aa08576819c
:10139c0089767a808987aa8c4078878384879c7920
:1013ac0041638b416cb77ca2a766898a784b5089c4
:1013bc00949e9caca65f588b6c63919381918b89a6
:1013cc0092ae973a608464547082605b6f968975b4
:1013dc00a29a91998a92848e5228798e898da99c91
:1013ec0061646e6e6b7ca7929aa088847f68234799
:1013fc007c7b6f80a1827892a49e8aa0a37f887b3d
:10140c00727f92654481907b7aa19e656672675764
:10141c006093868ea2897e8c7b2c4d7d8b8d92c6a3
:10142c00a176837d786f859c8690877581a56f46a4
:10143c007d7d70607e8a505677727e87afa494a6ad
:10144c009f949c97384c77747b91bd956d827a688c
:10145c006c849c8e959f8f7e9250165b62586e8d1d
:10146c00986568908e8d9ab0a3969391877e8a41e9
:10147c0044847c7789aa906b79856c5f77808095a2
:10148c00999e948e623059706c77a9b7898a977f30
:10149c007172908f85a09a8e8f87515b8277737d46
:1014ac00987c5c6b6f625e7d928795a59b9b9c7410
:1014bc0051646959678cb0998c9e876e62707f7a83
:1014cc008c9f9fac93566266474f66898e7a8e9737
:1014dc008582939a9694969699946b5f776b566dda
:1014ec00818a8385a5937c867b696b6d74889485d2
:1014fc006b70755e586b8084879aaaa5999b8b80bc
:10150c007d737a807d6f68798d837f89827c6e7222
:10151c007d75757e787b7f7a81818687818c9489b5
:10152c00868d8a8d9193978c8381716c716f737595
:10153c00787876827d707976767f7b7c7d7b838ee6
:10154c008a928e80837b7677727f80768c8f8b8e5f
:10155c008a8b8c8287837074716c7a7c797c7579b8
:10156c00726d797b8489899697929c8f84897d7d15
:10157c00887d7977747f80848d86827a7178746a9d
:10158c0077726d7d80848680807d79897f79848275
:10159c00868a8e97918587787478737d80787d792b
:1015ac007a806f727c747b807e878284908b91971b
:1015bc008f908a7c8077797d757f828a88828484fb
:1015cc00777c80706f6f6e75747a857c8082777e85
:1015dc0087828486888b88928d7c7f7f7b817b76cb
:1015ec007c777c84858d8e89847c7c767076726c1d
:1015fc00737a82837e818380868b898c948e89908a
:10160c00958b888b7d737c7975776e7270727b7716
:10161c0072777f7b7e817f7d7c8282818b888488c0
:10162c008184837b80817d87928a878b8181807f77
:10163c00776d76716e70757a7a7d8282838d8d89e5
:10164c008b87858a8b897f787e797b817c7f817b78
:10165c00838a8790897f827e7c7c757368677779b3
:10166c00777877797c7c8a8784918d848e8d8c8c2d
:10167c008487797a80787874707477787c777982bb
:10168c007c808b888a8b848782898f827e7f7e8008
:10169c007e7f81787e8b8987887e847f7b7c71744a
:1016ac00766c6d75757b757d817f898b888887825b
:1016bc008c8a8783767e7f727a807d817d8184831c
:1016cc008f897d807d7a7b7976706d76837e828141
:1016dc0082837e8c898a918c848a8c8c8c84807d8c
:1016ec007d7f7f75787471787a7a72737974727f72
:1016fc007f82867e7f83838a837d848483848783b1
:10170c007e7f888a868782827c77777977787371f7
:10171c00787b8281838184878a898386808188848f
:10172c007e7c787c77798587868687878a8c8c7f88
:10173c007a7c7979786e6b6e6d777b7d7c7e7e8220
:10174c008284898b8d8282868a86807f7d7c7c8058
:10175c00807a7c7979847f807c7b7a737c838986a0
:10176c00807e81878a8680808585858c8384818232
:10177c008b87827f7e786f707070747373728080c9
:10178c008084828a88898a8582827d80807c7a772f
:10179c0077757479858789898790948e85817b7a12
:1017ac007978716d6d6b7481808186848884888f63
:1017bc00918b8987878e8982797b7c787c7f7779fe
:1017cc007879807c7d7e797474727981807d7a7c65
:1017dc00838383837e8486878986868481838c85b4
:1017ec00858781777277797171766e7a8584838437
:1017fc008889848a887d827f7d8080807f7a7e78cc
:10180c007987888489898990878682797e7a7873aa
:10181c00706f6f6d797e7a838380807f86897f84f9
:10182c00817d888683827d828180887f7e827f7e97
:10183c008480817a7278717683827c8280878b88af
:10184c008c80848c888b8983827979837c7e827965
:10185c0075737279777479737985838684838a7dbd
:10186c0084867b7e7f777b7f7e827b7e7a78828f7d
:10187c008a878b8a8b838883727879727471707380
:10188c00717a83868d908a8b89898a8182827d8602
:10189c008980817b827e7b817d7a7f847d80838140
:1018ac007972746f6b787b73797b7e84888a878579
:1018bc008c8e8a8c89837a7a8383818681777778f8
:1018cc00787675737778868a86898786838686820a
:1018dc007c7f7b757d7f7e7f7c7c7e7e8c8a838a01
:1018ec008a8786898a7d787c767072736b6e707944
:1018fc0080838e85818786818180827d7d87827eb3
:10190c007e7b7a8082868082887e7d89847b7e79cc
:10191c007b767a857d7a85818185898980898c879a
:10192c00868a7f7b7a748781808576777c737777dc
:10193c00737a747f858083857d7f8184877e7e7baf
:10194c00777f83778a837a807d87857e8a8a7b847a
:10195c00858982777e7f757a777279717c87858f9e
:10196c008a80898580848082827a82867f84827e46
:10197c00838084827f837c757f7c777c74767370a4
:10198c007a7976807d7c8285857e7e8485848d8641
:10199c00868c858b9190958470746d67605e6b6e90
:1019ac006e808e9295909aa3948f8e9288585a7dc1
:1019bc006c5f667a89777d9c998d8b8b98938d90d3
:1019cc0090946f5175734f505f73767398a78b8893
:1019dc008f8e8682898991865b6980645a6a818b35
:1019ec007d8ca19a8685948e838688879074506ea0
:1019fc00755c5a69898c8296a39c8d8f9789858c8e
:101a0c0082919f6a58756a5653678074778e929349
:101a1c0083888d818b8f89a0975a6279645e6177f8
:101a2c0089788596978e7f8f8e8393928fa7824c21
:101a3c006e745655597b7f6f909f9c8e81948986ce
:101a4c00918b99ad74598477615a678a847795978d
:101a5c00937b70857f83857d949b5a5277685a5708
:101a6c006b958b879d9e9c827d8f878a8782a5a193
:101a7c006066816c5e586e897a7b8e8f91777b88dd
:101a8c00878d898daf98566c79635d5d7f96818665
:101a9c0091958f757e8b8c8d8795b6864e6b746207
:101aac00584e798b707e8f9d8e6f7c8990897e9538
:101abc00af755075776f5f5f8e98858b939e896b32
:101acc00758792887a97a5614d6d6f6f5d64959b54
:101adc00909198a18a757d8e9687769ca0605d6f9b
:101aec006b6a55638a89828286908476788d988b0e
:101afc0085a7955f676a666b5d72908c8f89898c00
:101b0c0084777c91988d93ac865c69666464597318
:101b1c008482888b9194897d8590938e96a179612e
:101b2c00706e716c657e8b898f8a87867c727c8bdc
:101b3c008f849094635964626662698390979a91da
:101b4c008c90857e8a90928a948c686e716c6d6391
:101b5c006a7e87888783818783808d918f8f9a8413
:101b6c00646a6a6a69677a8b90969186838b817bab
:101b7c00888f8e979e7f6667666764606e7a8289af
:101b8c0088848a9285818b8989968f7064666f7937
:101b9c007370778591938d83848e817f87898e99dd
:101bac008e6d606270756d6d71839a9c9586888f51
:101bbc00878989828c94846e676a747b71696a7c6c
:101bcc008a8a84777b8a898c88838b968a746665eb
:101bdc007477736b71818e938e7d7e88878c8a82ed
:101bec008b9a94826b676f72746b677279888c8531
:101bfc00888d8f918c868b918f83716f7a8087758e
:101c0c006f73778a8d7e7c7d7d81838381858a7fce
:101c1c006b696c75817572767890978e87828289e4
:101c2c008b8888828b897a7b777b8175716b687adc
:101c3c0086858382848b898888808e91807b707462
:101c4c007c7f7e73727a8388877e7a84878c8b867e
:101c5c0092938a7d6c6d72747668686b77898f89c4
:101c6c007e7f8088837c858a8d887b7c7e8384774d
:101c7c00767975808e877b787d88858285808a8948
:101c8c007770747f868282837b7d8e8d867b7a844f
:101c9c007e8081808b94867670747a7c75716f6e81
:101cac007e898e807b827f888a80838e89766f7511
:101cbc007d84847b716f76818b867f82838f918903
:101ccc0084888c84746c727c8079757979808d8928
:101cdc00837d7c83878482878f928674737e8785cd
:101cec00737270717b85867a797f827f7c7a7c892e
:101cfc008778727c898c827974727b888c827d7ee9
:101d0c0083898a86858d9082716f777c7c767375da
:101d1c0075878f888280868483838185908e7d737e
:101d2c00767e857c74726f7b88918a838584827eb3
:101d3c007b7e85887c6d697380847b7572778791d7
:101d4c00897e7c7a838987888a958d7970747b8269
:101d5c007c6e6f72809190847d7d868a8383818f67
:101d6c0093827671748181706f70788d9088827d8a
:101d7c00848b8987858f927b686365748074706fa0
:101d8c00778c918d83797e898988868f967f6e6911
:101d9c006b798279736f758b949486787d86918f2d
:101dac008792987d6d6b6b797f797678828d8f8b2e
:101dbc0079707688979289949578695f60747d784c
:101dcc00797b858e90867570798e989187938b6ec2
:101ddc00625960767f7b7e7f8c9291817678859d2f
:101dec009d8f92a085655553627d868381878e8eeb
:101dfc00866e6c738da49b8c9d9a765f4e59708504
:101e0c008a86838c8c8c77656b79979d8f899c8463
:101e1c0064504d667e8c8c8489928f836666708f3d
:101e2c00a59d8d999f76564453718b91888392937f
:101e3c008a72637188a8a9958ea48d6345446585c3
:101e4c00948a7b83928b795a647da0ae9e8d98a4e4
:101e5c00774d3950799491807a8b8e8161536e8c49
:101e6c00a8a0908da797603d436d939e8c7b87981f
:101e7c008c72546082a3a8938797ab814739588999
:101e8c00a499817a92967c5b537294a99b868aa6bc
:101e9c00a26136426d9a9d847480968967526188de
:101eac00a2a28c8296ab8b46385489a59179778ef9
:101ebc0095795a56779da599898ca0aa6e38436b53
:101ecc009fa0857682978b6859648ca09a8d859398
:101edc00a698523c5381a6947e7a8a90785f5b7266
:101eec00969a93858792a08340446192a68a7d81bd
:101efc008f8b6a5a5f7e9b94928a9097a06d3d500f
:101f0c0071a09e857c83908266616c909c94908b72
:101f1c0095999a5c40597ca696807b848a735f6203
:101f2c00719696908e8e939a904b445c86a58e7e7d
:101f3c007b87856a606479968f90888c8f9a7e43b4
:101f4c00526b9aa6887a808a7f6665708b9b8b9180
:101f5c008f928f986a425d75a39f86808389766481
:101f6c006c7692918e928c8f909558465d7ea38f55
:101f7c007e7980806c616b7d988f90928f8f948a24
:101f8c004a4e658ba2897c7a827b66637087978bbd
:101f9c00979596919a7d46596f9b9f867b7c84740e
:101fac0062687690948a9691928c996d455e76a330
:101fbc009a817b7c826f606b7a948d8c978f8e8ce0
:101fcc009157456080a58f7e777f7f6a656f829879
:101fdc008b8e96938f908f504e678ea6867e7880d0
:101fec007b6469748a9a889597958c978347566e0b
:101ffc009ca0837b7883746269768f918796949387
:10200c00889772445c75a2937c7779836b606d7b47
:10201c00948c86959390879762476181a990817b78
:10202c0081806864728497888e99948e8995594bb7
:10203c006587a68a827b8380656977889784909967
:10204c0094888c8f4e516a8fa2827a7481775c67e8
:10205c00768b90819697938590874857709b9f813c
:10206c007b7381705e6e7c908e859b989285967d3d
:10207c004b6076a298807b79826a60717f91888aa6
:10208c009c938e829c7449637da9947e777b826637
:10209c0063778091848c9b8e867e9a66466182a93a
:1020ac008d7b767d7c646878859083949a8f868608
:1020bc009d604d678ca98577757f7b636c7c89925d
:1020cc008398998f848d9d57506e96a67e787680d6
:1020dc00745f6e7f8b8b839b95898092944b4f6e34
:1020ec00989e787779816d6075828b88859d9286b4
:1020fc00809690494f719f9c75787a836f64788332
:10210c008f8b899f9385819a8e4a5274a29c7a7b7d
:10211c007c806e6779858e88879e8e8483998c44ab
:10212c005273a09971797a7e67617c858c85869ec5
:10213c008d8283a089425476a69570787b7e6562e9
:10214c007b898e838da18f8781a08f475777a3982a
:10215c0072797c836a627c888f84869f8c84829e51
:10216c008b45577aa5946e797e8267617c898e84c3
:10217c00879a8a81819d88435579a5906a7b828252
:10218c0064607c8a897f859b9087849d974a51786f
:10219c00a495697d8788645c818c887e86a09585f2
:1021ac007e98a3564d729e9a6879858a68557c8d67
:1021bc00897c809e9d857c8eaa63406891a16b7200
:1021cc008b8a6f51768c84777a9b9f847c85a983cc
:1021dc00416083a382698c8e7b5a6a8b897d7a914c
:1021ec00a38b7a7f9ba15c4d71959a6d7f968567c9
:1021fc005c7d8b7f798a9c997c7a8ca38746567ef2
:10220c009b7f6a8d89755a688883797e939a8c74c2
:10221c008194a47543688e95787590856a5e7890e4
:10222c00807b88949388798a9ba367457693947274
:10223c00789982645f7d9179798a928d837f949b62
:10224c009c674c758b8c6e7c927d66607b8c7477f6
:10225c00848e8a868794989b714c6e8387727b944c
:10226c008169637b8a72788a938c8d8a8f8e99842c
:10227c004f667b887e79958a6d6a758777798c93a2
:10228c008f8e8e888c8e8f5754768486798a907236
:10229c006869807f74868d8f878c868a8c986c4950
:1022ac00708389747e987a636a7c846f8493918539
:1022bc00909282878f90555e838a7f768f8e6d6821
:1022cc0077847f798e918a89978a838997784d6ee6
:1022dc008687767e957e666e787e727c8d86828c05
:1022ec009380838c986a4f7e887c71869778677709
:1022fc007e7d6f8092878193937f8a8f95675785b8
:10230c008376778f98726c827b73708c9484869aa8
:10231c00937687948e5c598682747a9191726f7ed3
:10232c00706c758f8c7f89978a7487958d5a5c88b1
:10233c007f717c98926d6d7b7171768b88808c9798
:10234c00897790988c6363857c737e948d7072848e
:10235c0074707a8c8e818b968e7a8e978d71607f4d
:10236c00776c7a8a8b747180726f7c85847e8e9682
:10237c008a788e9890775c787969798e8b77727c75
:10238c00716a7a8382818d948e8391988e7e5e6f32
:10239c007d71798a8f80747b78737d7f85848b9532
:1023ac00968b8b948a7f5d697b6b76838d81738032
:1023bc007c6b747b82828691968b81918b85686213
:1023cc007b7070808a877d797d6f727d7b7e868f36
:1023dc0096908595918b776178736e818b8a7f7dd2
:1023ec008374717d7d7f848d9492878f92887a5ec1
:1023fc006e75687a888c868186786d787a79808b10
:10240c009092888a91887e6466736a6f848e8882c3
:10241c00847b6e7476777f8b9295908f958e886c7b
:10242c0062726b6d7e8c8d83828372747a777f85fa
:10243c009098908d99928a775e706c6376868d8574
:10244c0081877c7377757a7f848e8c8c98958d7f41
:10245c00666969626f7c8788828a81747a78767cf7
:10246c007f8b948d979b91886e6a6f60687982865a
:10247c00848b8b7f7d7d787b7f88918d959d948ed1
:10248c00786b71626370777d7f888c8481827c77b6
:10249c00797e8582859795908377786b646b72765d
:1024ac0077808987858786817c7c848482909592cd
:1024bc00887d80796c71747576768083838587834b
:1024cc00828486898589918c857f7b7d77757778e9
:1024dc0076747a7d7a7a7f81808085888683878af4
:1024ec0086817c7f7e78787c7b7672767a77787f33
:1024fc00828181838986858c8d89838082817c7b96
:10250c007a7a7a79797b7c7e7f7d8181848a8687d1
:10251c008989888481817e7d7f7b7b7a7a7b7777c2
:10252c007b797a7c7e81838686838484838483858d
:10253c008382817e787777757778787a7e7f8183ce
:10254c00878681838685868889858082817c7a7b53
:10255c007d7a7a7b7d7e808282827f7e828283827c
:10256c00818382838282827f7d7c7a777778777c85
:10257c007e7e80817f7c7e7f818284838486858140
:10258c0080817d7a7d807d7e83837f7b7e7f7b7d5a
:10259c007e808183848382808583828587878583ff
:1025ac0081807d7a787b7a797d7e7c7b7c7d7d7d5c
:1025bc00808381828784818284807d7f817e7d7d02
:1025cc007c7b7a7a7a7c7b7a7c7e7f7d7e8182832f
:1025dc0083888a848586838380807f7f7f7f7d7ece
:1025ec007f7b7b7b7d7c7d808183828185848082e7
:1025fc00828284818385807e7e7c7c797b7a797be8
:10260c00777b7c7a7e7c7e828383848583828281c5
:10261c00807e807e7e817e807f7e7e7a7e7e7d7ec9
:10262c0081848280818081817f8185858585858576
:10263c008180817c80817d7f7d7b7a7b7b7a7d7db7
:10264c007a817d7e867f808580818966969052a76f
:10265c008250a47c57a57164a16f71947273927ba4
:10266c007b91858089817f8382807f827d7e837d43
:10267c007c837b7c837f7e8685808181817c807f4f
:10268c007d807e80847e807e7d8176818c7b7e8742
:10269c007979807c7a7c7a81827c7f817d7c847e56
:1026ac007e817b83887a81857b7c837e8181798323
:1026bc007e7e857c82837d858181828081817f7d08
:1026cc0084828084827c8181787e817d817f8283fb
:1026dc007f80827f7a7e817a7f817b817f827b7e05
:1026ec007e7f7d7c847d7f7b837f7885827c7f80f1
:1026fc00817e81847f80837e81828081837e8082c3
:10270c00797c8a845fa18551aa7166af837da47e92
:10271c006b887c6e88826c84836d898f6f888867e8
:10272c00757b738497959394897c7268686f777fb7
:10273c008c8a89928f8a8a8a7b72716156687682ba
:10274c00939ca39e9a91817e7f7b7d807c76787909
:10275c00767b797d807978767480949aa1a1948522
:10276c007f716a6c69787d7c817c858b80848277b3
:10277c00747067676d7b9099a0a7a0988978726b2d
:10278c006a6b6d68686e757f8c8b8d8f87827e848b
:10279c00878ea1a39989797661505b636473828477
:1027ac008b90989c91918c7c766b6e7983868d9bab
:1027bc008775796f60626c7376808782808c8f8a64
:1027cc008d8e898689776c807d75807f6f656e6d47
:1027dc00657a8a858c99938b9798959a977e646f76
:1027ec00604462716c8392928d8d93827c8c817724
:1027fc008d83778b927e778e795b6b6a58687d853b
:10280c008999a1867e86716b857b7b9798827d9555
:10281c00826a817c59616d5f6583908b9da9938dd4
:10282c0096807d8f8e79708a735777765f798975ec
:10283c007a8a83798b948693a28583917f716c7d40
:10284c00735f7c7b617a87788896897c7b786874e7
:10285c00897a8fab9e91818b765a776e5574776699
:10286c007c858186929282858e77819c93958f93bd
:10287c0088656c68506373687a8f8b8c95928b8e9d
:10288c0098807c89797b6f7b8a71818b68727c667e
:10289c0075817f818789807f8c7d819b8d907e79ee
:1028ac00836571806c798572777b77778086818779
:1028bc00948a879d94989083896e6369585d74732c
:1028cc007e90938d8c8d817e87837c908c8a88758d
:1028dc008779697c6c5f726f6c808f8a8e99857d2d
:1028ec0085786e848588957d8f8c71817b6e7674ee
:1028fc006b6e7776748d8d8995958b8a9189918184
:10290c00808d70767a646b776d7482827d85867f1c
:10291c0089908f8b96928e86708071637a6b697cae
:10292c00757983898486897b7a7a7a79879395a05d
:10293c00898a8d6d7174626d77707784817c8c84db
:10294c007e89848081938b9797849b82747d64634a
:10295c006b646b7881828a90858c8e8c858b8b8254
:10296c008c747f826e82786f777372727c7d7b8ab7
:10297c0083828785848392899287798a72727d702b
:10298c00787e7a7a7c7e7a7f7e7a83848886949429
:10299c00969f828e866b7568606e7075818787874f
:1029ac008d8080868181878f8995867d8d737177e7
:1029bc00646a706c717f84828f8c828883807e883d
:1029cc00868b8e798d82748476727a746f767b772f
:1029dc007d8981878d898a8c8e8a96857f8e737787
:1029ec007b6a727872777e7b7c827e7d88868a8a0f
:1029fc0093928f917a857d6c756d6b7172727c83fd
:102a0c007e84867d7e80818085908a988b828f756e
:102a1c00797a6a747370767b7c7c868280868386f6
:102a2c00828c8f8f98858f8a757e786e70746c729d
:102a3c007d767c867d83888989879289918b7c8e33
:102a4c007c757f706f727371767c768081798582ec
:102a5c00868889908a9587808976797a7175767659
:102a6c00767b7d7a827d7e868186868f908d998617
:102a7c008b88757e706e736e75777c7c80847d849c
:102a8c00848688828e878a917e897f767b6c717131
:102a9c007076757e7a7e857e85838587838c858d21
:102aac008a808b7b7e7f7378757774777e77808155
:102abc008086828986878f89928b848d7b7a7c73c2
:102acc0074757973777d767e7e7d84828885869019
:102adc0089918a808879787a7175767774777b7822
:102aec007d7a7c837f8586858e868f8e828e807c98
:102afc00807477747578757a797b7e7d8381838910
:102b0c00848c8f8e92878a877a7e777576727573ae
:102b1c007a7a79807e80817f8884838c878b8b8284
:102b2c0089807c7d7778747675707877797e7c82f5
:102b3c0081818782878b878f8a868d82808076774a
:102b4c00747471757b777e817d8282848883898c95
:102b5c00888e8c8488827c7e787678767578777689
:102b6c007a7c7a7e7c7e8680848b858b8c8689862b
:102b7c00807f7d78757575757675767e7a7d837eaa
:102b8c008586848d8c8c938a898b7e7c7e787677f7
:102b9c007675777a777a7d7a807f7d88828691893f
:102bac008d90888a87807e7c777275716c736f715b
:102bbc0078787d868b9097959c9b95958f86817d5b
:102bcc00716c6a646568696d72787d82888c908f8f
:102bdc008f8f8689878184817f7e7f7e7b7f7b7bc5
:102bec00807d7d82828183807f7d78757672777c13
:102bfc007c8486858587837f817f7b7e7f7f8685ae
:102c0c0084857f7d7d79787a78787d7c7f818181e0
:102c1c0082838083858185847f807c7876767475c9
:102c2c0078797d81828a8e8e939392908e8a868318
:102c3c007c75746d686b696a6d6e7375797d828550
:102c4c00868e8e9094959594938c88847a76726cfb
:102c5c006c6a686c6d6d7175777d83858f94959baf
:102c6c009b97918c847d79736e6f6f6f7474777b87
:102c7c007c7f8286888c8f8e938c898b847e7b79eb
:102c8c00787373716f726f707474777d81868b8dae
:102c9c0090949291918e8b88837e7a78736f6f6cff
:102cac006b6f7074797c8084878a8b8b8b8984851d
:102cbc0084818484848585878483827e7e7c7c7aef
:102ccc007b7d7b7a7876757475777b8083868b8b2e
:102cdc008988878582818382838581817e797674d8
:102cec0074737577787a7c8080818585898b8e8edc
:102cfc008a8b867e7c77727270707275787c818517
:102d0c00888a9092929494928d8a877f7b78706c4b
:102d1c006b68676b6e7075797d808386888c8f91fc
:102d2c0093969795928f877f79746d6b6a686b6dac
:102d3c006c6e72767980868b9096979795928b8332
:102d4c00817d7776787775777978797c7d7f8487c4
:102d5c0087898a87878682807e7d7b7a7c7a787861
:102d6c0077767476797a7d8183868a8c8e918e8a39
:102d7c008986817f7e797677757274757474787aaa
:102d8c007d818689888987848281807d8082838504
:102d9c00878788888584848280807e7c7978767425
:102dac0073717377777c818284878887878788871c
:102dbc00868787858383807c7a7673737473767841
:102dcc00787a7e8083848686898b8a8a8a87837dbb
:102ddc00797672707374767a7f85888a8e8e8e8ef1
:102dec008c8c8b8886827d7b76726f6d6c6d70732c
:102dfc0076797c80838485888a8e909091918e8a56
:102e0c0087827c7874716f6d6b6d6d6e7276787f66
:102e1c0084868d929394938f8b86817e7a7979793f
:102e2c0079787b7d7c7e7d7f818285888987868889
:102e3c00847f7d7c797877777a7b7a7c7c7b7b7cd2
:102e4c007c7e8285888a8c8d8a8887847d7c7c7840
:102e5c00757576767677797a7c81838788888a8689
:102e6c0085807c7a7a78797b7e828486888a898848
:102e7c00888785868582807d79777470707072758d
:102e8c00777a7e81818585858587888a8e8d8c8be6
:102e9c008a85817c7a76726f707170717576797ca7
:102eac007e81848c8e8f908d8b85807f7d787a79d6
:102ebc0077787b7e818384888686888787878784da
:102ecc00827e7b777674737575777a7b797e7e7d5f
:102edc0081838586888e8d8b8d8d8a83817d797497
:102eec007373707273727575747b8086898d8e8e18
:102efc008d888684817e7e7c797a797b7f7e8083c7
:102f0c00848683868686888383807e7b77777673b8
:102f1c0074797a787f827e7e82807f8487878a8d9f
:102f2c008c898a8783807a777474727376747477d9
:102f3c007a787e8585898b8a8b8b8a85817e797858
:102f4c00777a7b7b8183818487878787898587864e
:102f5c0081807d79777774757776787e7c7c7f80bd
:102f6c00807e808186898a898987868584817a7a20
:102f7c00787576777575777a7b7c7e7e8084888a87
:102f8c00888787858180817f7a7a7a7f7e7e858229
:102f9c008081828381828381848380807e81827d13
:102fac007d7c7a7e7d7e7e7b7a7d7d7c8081807f40
:102fbc008182838583828180817f7e7a797b7b7d10
:102fcc007b7d807e80817e828184838385818180ec
:102fdc007e807e7c83827f818281807e7e817e80ea
:102fec007f8181828280807e7f7f827f7f80807fd5
:102ffc007e7f7c7d7d7d7e7f80807f7f7f807f7ede
:10300c008181807f7f7e7e7f7e7f80818182837eb7
:10301c0080837d7d7f7f827e81827f817f7f8380a5
:10302c00808182828180817f7e7e7c8081817f7d98
:10303c008081807f7f7e7e80817f807e7d7c7d7c99
:10304c007e81817f80817f7e7e807f7d7c7d7f8283
:10305c007f7f7f7e807f81818281828081807f7f64
:10306c007f808082808180827f807f7e8280828050
:10307c0081817e7f8082828080828181827f7d7c43
:10308c007c7c7d7e7f7e7f7c7e7e7d7e7f83807f51
:10309c00827f7f807f7d7b7e807e7f807f7f7f7e37
:1030ac008183817f8182817f807d7e807c81838210
:1030bc00807f7a7773727473767a7f8186888a8d33
:1030cc008f8e8e908b8787837a7573706f6f747702
:1030dc00787a7e7f7f8483828687848584827e7bd8
:1030ec007c7b7e818483888a87878682817e8081af
:1030fc007e7b787974727375797b8086898c8c8ee3
:10310c008d8b89898a888583817c767476747679af
:10311c00787c7c7d817f80807f8382828584817ea8
:10312c007e7e7d7c8182818385858584848181807e
:10313c007f7e7a7b7774747472767b8083868a8cbc
:10314c008d8d8e8b8c8b898681807a77757173745b
:10315c00787e7d80808082847f8183818081828063
:10316c007d7b7b7b7d7f8184868686868682807f45
:10317c007c7c7c79767673737176797b8086888992
:10318c008b8e8d898a8c8b878684807a7674727309
:10319c0075787a7d7d7c8183838182868583868622
:1031ac00837e7c7b7b7b7e80818384848384807d17
:1031bc007f7f7f7c7a797573727376787b7f81865b
:1031cc008a8a8c8c8b8a8a8a8783807d7b767273c1
:1031dc0074787a7a7f8282838483838283848482e4
:1031ec00807f7f7c7a7b7e818183878583858381c9
:1031fc00807f80817e7d7b7a79757272747575782b
:10320c007a7b808586878c8e8d8d8b8d887f7e7f5b
:10321c00807f8180747172707071747e84868a8ee6
:10322c008a817e7c7b777e8d8e909a9f9e957f7314
:10323c00736f6665707a7974777b766d696f767764
:10324c007d8ea0a09ba2a7a394766d73695d5f6e23
:10325c0079787981847d75737274767b8b9b9e965d
:10326c009aa0988f74606c716a6d7d909186878a34
:10327c0081747172717479808b8f84828d8d8a7e4a
:10328c00676f7d77737f90968c878a877a6c6b6f6c
:10329c006d6c7584918d8692998f8871687a766f32
:1032ac0076848e857b7d7c766f707a818289929e06
:1032bc009e90949c918a7a5d646b61616c7b807a40
:1032cc007c83847e787c8789899098a29789919356
:1032dc00857d62586c6d656d808980767b817b7293
:1032ec00717c847e818a969a8b8a99979286697171
:1032fc007f73717b8989797478736960677374766d
:10330c0081909e9d929ca69f9c88717c81746e7608
:10331c007d7667686c6b6564727e7f7f8a99a397f4
:10332c008e9e9e938a686578726b72818980797c97
:10333c007e796e74808380818a969180828d8a8a50
:10334c00786173817c7a818f90827c7e82796d76b4
:10335c007e7b777b8793877f8e97928a6d667a7c4c
:10336c007575838b8074717675696c7882838590a2
:10337c00a1a08e929d9b987e606c776b616878792a
:10338c006967727b7675828e919096a3ac9b8f99b0
:10339c00998e825f576c6d666976847f7272787acb
:1033ac007276818887868c9b96878a9394947962af
:1033bc0074817d73788486766b6d736c676a757daa
:1033cc007a7e8c9d958f9aa1a599736f868b7d764d
:1033dc007f887e6760696b6366728083848b9e9e38
:1033ec0091959da09e7e64737e756d6f7a7f746ad5
:1033fc006d78767478818a8b8a949c9086898c8c73
:10340c007d595b757d7676818f8c7a727c807c7b26
:10341c007f88878383908f82868f9796706178835d
:10342c007c72768386786b6f757371717e868a8ced
:10343c0097a09695999a9e8360697b7b6d666e7753
:10344c006f5f5c676d71757f8d96979ea6a09ea22f
:10345c00a0a193675e6e726b646671776d656d7714
:10346c00797a7b87919597a09d9394949392725cb3
:10347c006f7f8078767d867d6c6b71727371757bd6
:10348c008080898e898f9598a18e6e7486887f7abc
:10349c0079827f6f656768696b6e77828a90989383
:1034ac00949c9a9b92726b7c857d7774777c736a03
:1034bc006b71767c7d818892959a96909697948e76
:1034cc00715964706f6c6d737d7f7573787c8383b9
:1034dc008489929699958a8b8e8a8b7a5c63757b9c
:1034ec007976777c7f766e7071797e7c7d858d9513
:1034fc009990929c9d9e93726c7b7f7a747073767c
:10350c006e6462646b75777b85929ba39b949d9f85
:10351c009c957767737c78726d6d72726a65666e56
:10352c00797c7c7f8a959e9a90989f9e987f656bfc
:10353c007a7c787171787c746a686d7a807e7e880a
:10354c00949d988c8f989a978467687b817e76710e
:10355c00767c796d6667727c7b787e8a979b918d81
:10356c00989d9b8f7168757f7d756a6d77766e6699
:10357c00656e7b807d808c9aa2998f959d9e9577a8
:10358c0064707e807b706d767b776d676d79807de6
:10359c007b8392a09c9091999d9b80666b7a7e7c9c
:1035ac007069707776706867737f837f8293a4a548
:1035bc009999a0a4a59073717a7e8076686a7176c9
:1035cc007368616a767c797883959d9390939699cc
:1035dc008d746c737a84837772788080776d6f7b4f
:1035ec00807d7d818f99938c8b898b8771626569c6
:1035fc007179716b6e797e7d76747c8587888a9003
:10360c009b9a9395929090807373717379746c6993
:10361c006d71706c686b73777a8087979c989da09e
:10362c009ea1978684817a7e7b716d6c70716b67bd
:10363c00676a6b6b6f74818a898e969498988b8964
:10364c008a8486847c7a767878756e6b70727175e4
:10365c007a838d8b8b939391938982827e7b7b74ff
:10366c006f6f70727374757b808183858a91918f73
:10367c0094979496938785857b766f686664666865
:10368c0068676a7072757c828a9293959ea09fa1de
:10369c00968e9088817d736f6e6c6d6d6d6c6f7096
:1036ac006f6f72777e82848c9393999a9192948c9b
:1036bc008a87807f7c7b7874726f73717176777c6c
:1036cc007f7e828788878c8983898580817b797ac4
:1036dc007779777777797c797a7c7e8383858d8f00
:1036ec008f93938d908f86837c74726e6c6c6968eb
:1036fc00696c6e71767b82888b949d9fa3a49b9b37
:10370c009a8e89817976706c6a686463656566687f
:10371c006c747c7f879395989f98989c93908d83dd
:10372c007e7a75726e6b6a6b6c6d70747b8283873c
:10373c008f8f91938d8d8e8683827a787573767345
:10374c007276797a7c7e818489898c929294989015
:10375c008d90867f7c716d6964656364686d70742f
:10376c00787c838b8e929c9d9da29996978c85805c
:10377c007774706b6d6b696c6d6e6e6f72777d802c
:10378c00858e9093989293968e8b8a8483807c7c82
:10379c007875767573737375777b7d7f8787898b67
:1037ac008485888180817b7d7c7878777779797b3b
:1037bc007a7b7f7f8383858c8d8f928d8e928a8787
:1037cc00847c7a746e6c68686a6b6d6e72777c81bf
:1037dc00858c95999da29d9d9d938e89807c7872f8
:1037ec006e696969676868696c7073777f888d9298
:1037fc009895969992908d8786817b797572716f69
:10380c006e6e7073767a7e838a8d90948e8d90878f
:10381c0082817c7b78727271717373777b7c80850b
:10382c00898b8d92949498949090898380787470fd
:10383c00676563616465686d71777d84898d959a20
:10384c009ca0a09c9b9489857e77746f6c6b6a6b33
:10385c006c6d70717475797d80868b8d919491915e
:10386c00928b89898484817b7c7a7778767476765e
:10387c0077797c7d7f8485878a898587847e7f7c28
:10388c007a7b77767876767878797b7d7f83848679
:10389c00888b8d8f93908e8f8985847e79756e6bd6
:1038ac006966686a6b6e71757b80858a90969a9f43
:1038bc00a3a19c99928b867e7976706c69676767f9
:1038cc006565676a6f747a80868c91969b9b9999d3
:1038dc0098928f8b868079736e6b696868696c704f
:1038ec0074787e82868c8e8f9292908e8b89878252
:1038fc007e7c7874737272747576797d7f8184881e
:10390c00898a8e9291908e8d89827d7873716e6b7f
:10391c006b6c6c6e707376797d8186898e919192c9
:10392c00918e8e8d8b89878583817f7d7b7773705c
:10393c006d6d6d6d6e707275797d8184888c8f92d2
:10394c009597979694918e8b86817d7a777271700c
:10395c006d6c6d6d6d6e717376797d8185888a8bda
:10396c008c8d8d8d8e8d89878583807f7d7b7a7bf9
:10397c007a7a7b7c7d7b7a7b79787a7a78797b7d95
:10398c007e7f8183848587888a8b8c8b8b8a8686c5
:10399c0085827f7e7e7d7b7a78767473706e707193
:1039ac007376797d7f83878a8a8b8c8d8f8f8e8cb3
:1039bc008a86827e7b7876747473747779797a7c54
:1039cc007d7d7d7f818282838484848584828384cf
:1039dc00838485838282838482818181807f807fbe
:1039ec007f7d7b7a7878767576767577758082812f
:1039fc0085858787898a898786868481807d7e7b79
:103a0c007b7b7c7e7f7e7f7e7d7b7978767d7b7ced
:103a1c007d7d7f807f807d8288878589968d8e8d48
:103a2c00878482817f777b7e787a787574747371e2
:103a3c0072737a7d7c7c7f84878c908f8c8b8c8a44
:103a4c008583807d7c7b78767c7f80807e7e7b7c92
:103a5c007f7d7d7d7d7b7c7e7c7e817f8280818174
:103a6c00818281838185858484848384828282801f
:103a7c0083807f7d7b797b7976747779777c7d7f8a
:103a8c008082838182848686848585838283827dfd
:103a9c007d7f7f7e7f7f7c7c7e7f7c7e807e7e8038
:103aac007f7d7f81828183837f7f838384868685ec
:103abc00838887817a767172747d8280679f965c29
:103acc00b58957a6735a9b6972966a7894757692e3
:103adc007271857c79888883818d8683857c7772e9
:103aec00707e7d5aa78458b9806bac7966957465e5
:103afc008f7f678d82708f877189846f868d7980b7
:103b0c00927f8a8f7f80786f71777b8488857c80a9
:103b1c007a788c8e8e8d827672686d81818c9e9176
:103b2c008a8376717280827c83827a7b858e8d9b70
:103b3c0098857b6f67646976878e989486847d7e82
:103b4c0086878680786f6e7473848e888d84777a7e
:103b5c007877828a94928e866d686762757e797c9e
:103b6c007f8580909e9a9b998a776d605e636a7957
:103b7c00818286847a7b88898b959084807f807ef5
:103b8c00808b877b7a746b69778082939286827143
:103b9c006a717276867e7584817f979a9aa3908fcc
:103bac007f6569615c6d73757b75757473858e8cbf
:103bbc00929187848a8e8b9294847c72655b5e660c
:103bcc006c7e888b8986817d8484878e8986838ca4
:103bdc008a8a8e7f807662635e576776808f9c9828
:103bec008f96887a8d8a7f8a8179716f76707074de
:103bfc00756f717976819195999e978579766f73aa
:103c0c008684717d7c6a757e7b828c8a84838174c8
:103c1c00717b7f828a908d8890887586886f72768a
:103c2c006669757878858b7e81857f7f878f98a173
:103c3c00a78a797f5f556a635c6f726f7a8b8e90ff
:103c4c009c9e95938b837f847f70867a686d66606b
:103c5c0067787f819193898e8e898e8d8a908a89df
:103c6c006f72775f6e7d7b767b7e717b8c808991aa
:103c7c0085878480888c98847b8d6b656c5f5f6f87
:103c8c008580899883828c7f888d848b888c7b6dd2
:103c9c0087726a7d7372787d797a928f8f96858020
:103cac0080707b858b8c778a7c637e76738283882d
:103cbc00838c83747b74768d818491868f78858eca
:103ccc0074837e6d716e746d78837589857a888343
:103cdc007e999ba398818e6f636f616c6f71776f08
:103cec008881819489929d8d9593888d73867e664b
:103cfc0076635e67687c7d8f98889688818d837edd
:103d0c008e8a9086728269677a717c7b7e7e7589d9
:103d1c007f7f908080877a7c89838d83819277796d
:103d2c00766b787183877e8f7a7780727e89868aac
:103d3c00948d978779866f76797579717e7b76917c
:103d4c0083828b75777b7e7d8e93979380927b6d30
:103d5c007a697275797e72807874877b80887f7eb1
:103d6c00858b919b8e938f7d7c6e6b635f6e6b7b73
:103d7c008a7b8785808c9191939a8c9089768676b4
:103d8c006f736a706b75746e888286978a8a8d875a
:103d9c00858c8f899079707a676f78757c7e877f38
:103dac008287727c7f7482827e8487899299858ec9
:103dbc008a7079736d727a797688817581736d7d6d
:103dcc008185959893a29a88978475756662616dc2
:103ddc006c72877b848f7e84847e838f949aa38578
:103dec008a886f776e6c68686d657b7d768c828354
:103dfc00918c8b8a8e87938c7f8f7872766d727193
:103e0c0078717580717f867c8b8d8c94998f918b5a
:103e1c00747f7a707a7573747c7d7a8c807a8576ef
:103e2c00788080838b91939787877f6e756f75777a
:103e3c00797e7685817882747376757d888f979c70
:103e4c008f99908282716c6a6b6f6e7c76748279ba
:103e5c00828b858d93919b938991807b7b74756efe
:103e6c006b666577727d86818e8d8f9a999a977f16
:103e7c0085766b7367706e707b77847d7a807883c0
:103e8c0087878f90919a8b878771746d656f6e742d
:103e9c00767f8685908685897b8087889486848bbf
:103eac007c837b77776e756b7881768782858e873e
:103ebc008d8a878b767f84768279787e7a7f7a80fa
:103ecc007e747d777c827a85888c94838e83737cd8
:103edc006e7977797e78877f808679807c7682810f
:103eec00908a8393818a877d826f736c707c737fd9
:103efc007c7e8c838f8f8f967c8b847785717a7880
:103f0c007579717b706f78738685859392a3909188
:103f1c0092747f6a676e66706a797a7b8e848f8cf6
:103f2c007f8c87998d85947683796e7a696f6670ac
:103f3c007a7488818c968a9b949c8b7c866a7b7025
:103f4c00697a6b78777e867b877d858b7e918a9765
:103f5c0089829272816f6470636f6f7c827c9089ae
:103f6c0094968792878f7c7e836a7d6c6f7d747a42
:103f7c00777c787b8582948d8d959496818c756dec
:103f8c00745f706f6f777987848e8d8b907e87834b
:103f9c008c867e88707e75727e6f7671797e7b8a58
:103fac00818c837d847c8570817d76907d8c8c7eec
:103fbc00817a8074787a76847581848885809481fe
:103fcc008d8676857273777c837e89838b86787fea
:103fdc00777b6d7e848394859291838377776b69ed
:103fec006d71827685889090889581877c728075ba
:103ffc007576787e7c86838c817779757d758986dc
:10400c008b968b9892857d716d636a6e757f7889be
:10401c008b978c8d927c87777b86797b797e7e7c67
:10402c00827c827474787c7f758b83909789998a53
:10403c007f766b6e656b6c76807c8d8e9687898cab
:10404c007f8f7c8186747a7778787476767f7881a6
:10405c00858888809389949282907f76746b6e6742
:10406c0069707d83828e8c93848b8e86907d828406
:10407c0074776f6e6e6d757a888188888a8c7f8e66
:10408c0082868477897e797c72767073787f817a68
:10409c00888793898c91838d7d808572716d6c710d
:1040ac00727b828e898c918f8f7b82787982798ad0
:1040bc00867b7d7779757373767a74858892908810
:1040cc0095848c83767f6c686e6d75777e848e8e0e
:1040dc008a8f838877747f768682849183838079b4
:1040ec00756e71727e80838f8d93878e8b808574b5
:1040fc00797a6f7776797f8087878c82817f7c80d5
:10410c00727f7c7f8b7f918e7d8173726e6b7275eb
:10411c00807c868a8d91848f85818677827c70796c
:10412c0073787b7b8080847b7f7f81827d8c889180
:10413c00908694837b7c6e726c6a71767d7c8889a8
:10414c00918e8793868b837b857372756f79767b63
:10415c008081837b7f7b847f7f8f87938b83907b16
:10416c0078746a716a6f767c807d8889918d8b9268
:10417c008689807b82757576737b777e8181817968
:10418c00807e858586938d948e888b78716d676c17
:10419c00676f757b7f7f898c958e9194888a7b7ce9
:1041ac007f6e74727279737a7b7d7a777f808a885e
:1041bc008f97909489868573706c696d6c747a8115
:1041cc0081838c8d958f929288867a7c796e7373ad
:1041dc00767b7a7f7e7d77787e838b8994938f90a4
:1041ec0084867d6e7068696d6c777a7f80868c9121
:1041fc009590938c8782797b756f72727778787cc7
:10420c007a7a757c828b92939b98948c8382756b53
:10421c006b676b6b70777c81818b92989493908792
:10422c00847a797a707274757b797d7c7b77777df3
:10423c00848c8d9495918e83827b6c6b696b6e7183
:10424c00797d818288909594919089847b797d7415
:10425c007176777b787a7b7a78767e868e8f949956
:10426c0094908784806f6a68676c6d73797e7e82a8
:10427c008c929593948f8880797a766f7375787811
:10428c0077797876737a828c9094999692898581d5
:10429c00726c6b6a6d6f757b8181858c9295919236
:1042ac008e87807b7b78717376777a7b7c7c7a7552
:1042bc00797f888b8f9694908a8582776e6e6c6be3
:1042cc006d72777c7c80888e9290929089827e7db4
:1042dc007973747777787a7b7b7773787f87898f1c
:1042ec009796948f8b887a706e6c6b6c72767a7be7
:1042fc007e878e919093928b847e7c78717175778a
:10430c00787c7d7d7b77787f84868b92938f8c896c
:10431c008479706f6e6b6d74787d7e81898f9190ce
:10432c00939189827e7c76707276777a7e81807c9e
:10433c0078777d82858b949692908d887c73716c46
:10434c00696a6e73787b7d858d8f9093938c858253
:10435c007f797172757476797c7d7976787d8083be
:10436c008a92949291908a7e75726e6a6b6f757850
:10437c007b7f868e8f9094938c86827f78727476f6
:10438c0076797c7f807e7b7a7d7f80878e908e8e07
:10439c008e877d76736f6b6d7176797b7e84898960
:1043ac008c91918b8684807872747676787c7f7f02
:1043bc007e797a7d7c7e868e8e8e92928c827b77b5
:1043cc00716d6e7173777a7e8588898d92908b88ea
:1043dc0086807974737373777d8080807d7e7f7c1b
:1043ec007d858b8b8c8f8d877e78756f6b6c6f74e6
:1043fc00787981898a8a8d92908b8986807873737b
:10440c007373777d80838280827f7b7c8287878bae
:10441c008f8f8a82807b736f70727477797f8484bc
:10442c00848a8f8c8a8a85807775777575787d817b
:10443c00817f7f807d78798082868c8f908b85833d
:10444c007c7571717274777a828585878c8e8a8a75
:10445c0089857f7877767475797e82858385888364
:10446c0080818382828586857f7d7d797472747666
:10447c0078797d868885868988838384817b777823
:10448c007876777a7e8181818789837f83817f812a
:10449c0083827d75767f899094928a827f808485d1
:1044ac00848787847e7a78726a696e7174777a7978
:1044bc007e7f828b91908d908e86817f7c75706ec5
:1044cc006c68646266707881909da09fa2a199929d
:1044dc008e87827c7a7a787572747b7f80889296cc
:1044ec00969a9f9b9796928f8781817d7774777c24
:1044fc007e818286827a75736d645f606767686b94
:10450c006a6968696d717576787e7d7974716b6393
:10451c005e5e5d5856575c666f7c879194969d9c49
:10452c009390918c88878989848081828486888df8
:10453c00909296a0a7a4a1a3a09b9895938c8482fb
:10454c0085898b8f93938f88858681797979777616
:10455c007679787371727577787c81838180827fac
:10456c007873716d675f5b5a585b6571797d838673
:10457c0085827d7c7b756f6f716c66646565666a20
:10458c0071767a7f868f9595969d9e9895948d825f
:10459c007d7d7f8283868a8b88888989837e8289c8
:1045ac008c8f95999895979b9d9b9a9b9d9896958a
:1045bc008f8a847f7f7e7973706f6d6f787f818136
:1045cc008385827e7e7c7a7977797f7f7874767228
:1045dc006e70716f6c6b6e717171727474727073ca
:1045ec00726d6c6f7476787a7a7a777373726f6d8a
:1045fc0071767b8184888b8d8c8e92918e8f91902d
:10460c008b8a89858281807f7f7c777a828b929b53
:10461c00a2a2a3a19e99928b858483818382807ca4
:10462c00797d82858786898988888988827e7d7a4a
:10463c007673706d6e70737a82858381817c7672ed
:10464c006d69676a6e727676777b7e8082868988e2
:10465c008684837f78736e6b6764646260626b754b
:10466c007c878e959b9b9995918c85828180807d92
:10467c007b79787a7c7d7f8183878d9194959495d5
:10468c00938f8c88847e7b7e8287898b8d8c8d8b9f
:10469c00878784807f8183817f7f7e7d7c7c7e7e0b
:1046ac007d7c7d7e7e7d7b7a79787875726f6a6a87
:1046bc006f747a7f8589898a8886837f7d787879fb
:1046cc007674716f707072747678777a7e7f81826f
:1046dc0084858484838282808083888a898b8a877c
:1046ec00847f7b787472747a7e818586898c9095b0
:1046fc0096969695918f8b86827c777574716e6d7c
:10470c006e72787f8990939696948f88837e7a7751
:10471c0075767472706f70707377797b7f8387880e
:10472c00898a888683807e7a757474767a7c7e809a
:10473c00838381817f7d7b797a7c7d7d7d7e7e7e8e
:10474c007f8181808081818283828080807e7d795f
:10475c0077757374797f868a8d90918f8c8985811a
:10476c007f808183828080818183838282807f7f2e
:10477c00808281818180807f7d7c7a7a7d81858831
:10478c00888787827e7a74706c6b6c6e7275777aa0
:10479c007e84898d909191918e8c8a847f7d7a779d
:1047ac0074706d6b6b6e737980868b8e8f91908d20
:1047bc008c8987878582807b78777576757474761b
:1047cc0078797c8283848788898885827f7d7e7fc7
:1047dc008284838282827f7c79767576797c7f80f5
:1047ec008080818384848583828281827f7d7a78b4
:1047fc00767472706e6e72767c858c9195969592ad
:10480c008f8a84807c79777574727173767a7d81e6
:10481c0084868a8c8f929493908d8a86807b78770d
:10482c00787a7c7f818181807f7a767575767778ce
:10483c007b7d7e7f828585858382817e7e7d7c7b70
:10484c007a7a7b7c7a7878797b7e83878a8b8a8963
:10485c0087837e7a7672727375767677797a7d80b5
:10486c008080818080818282838584848585827f1b
:10487c007e7e7f8284868787868484827f7e7f800b
:10488c0080828385868687898a8a898987868585b9
:10489c00858484838383807d7b7a797b7d7e818212
:1048ac0082817f7e7a777573717172727172737691
:1048bc00797b7d7f818384878887868583807d7ad9
:1048cc007774737375787b7c7e7f7f7f7e7b797743
:1048dc007677787a7b7c7f80838587898a89898ab9
:1048ec008a8a8887868482807e7a78787a7c8084ab
:1048fc00888d8f8f8f8f8d8b89888888878785850a
:10490c0084858483817e7e7e7d7d7e7f8080808099
:10491c007e7b78757373747678797a7b7b7b78760b
:10492c0074747475787a7a7b7e7f80828281807ec3
:10493c007c7c7d7c7b7a797a7978767371727476eb
:10494c007b7f828688888989898785838382828216
:10495c008181818385858685858584848485868609
:10496c008686868686868687898c8e909191918f95
:10497c008d89858281807e7c7c7c7d7c7e7e7e7e2a
:10498c007d7c7b7a797775737070706f6e6c6c6ee2
:10499c007274777b7e808182838381807f7e7c7c36
:1049ac007b7a77757676777574747576777a7c7d85
:1049bc007f818283838384848485878a8b8b8b8b92
:1049cc008b8b898786858381828281818182828497
:1049dc008486878788898b8d8e8e8f8f8e8d8a8823
:1049ec008684838485868787878483807e7d7a7995
:1049fc00777675737171717171717273737475757a
:104a0c007778797b7b7b7b7a797979797b7c7d7cf8
:104a1c007c7c7a7a777574727272737475787a7d1d
:104a2c008083858788898888898988878786868511
:104a3c008484848383848484868687878887868716
:104a4c0086868788898a8b8b8c8d8e8e8f8f8d8caa
:104a5c008b8a898886848482807e7c7a7877767645
:104a6c0075757474747373737372737474747577fb
:104a7c00777778797b7b7b7c7c7c7c7b7b7977768e
:104a8c00747472707171737575787a7c7d808383a0
:104a9c008586888a898a8a8989878787898a888985
:104aac008988888785848181817f7f7e7e7f8082d3
:104abc0086888a8c8e8f909191908f8e8d8c8c8a1b
:104acc00898785838381807f7e7e7b7979777675f4
:104adc007373737270727171737577787b7d7d7f70
:104aec007f7d7c7d7d7a7a7a787676757272737139
:104afc007070727273767677797b7a7d828282851a
:104b0c008787898c8d8c8d8e8e8d8c8e8a898786ed
:104b1c0085807f7f7e7d7c7e7d7e80818585888c77
:104b2c008c8e8f90908d8d8c8b89898987888686c9
:104b3c00858484817f807e7a7b79767472717070c3
:104b4c007173747776777a7a7b7c7c7e7e7d7d7ac6
:104b5c007a7a7879777778757677757275767474e2
:104b6c00767777787b787a7c7c83848588898c8c43
:104b7c008d908f8d8e8f8b888a88838382807e7eaa
:104b8c00807e7e7e807f7f83848585898a878a8be1
:104b9c008989898a89898a8a8686858083817f7dad
:104bac007e7c767877747576757578797a7c7d7e6f
:104bbc007e7c7c7f7f7c7b7d7a7778787875767944
:104bcc0077767978787c78787c79787a7a7d787a47
:104bdc007c7b7d7e828585868789898a8b8a898b79
:104bec008984888786848785828683818080827d7c
:104bfc0080827f82818181828584868b8989898a62
:104c0c0089878786847f808079797c7a75777a78b2
:104c1c007a7b7c7a7f807981827d8081807d7e7faa
:104c2c007a79797b7672777a7573777a77787c78fc
:104c3c007b7b787a7b7e7c7983807c848081838388
:104c4c00858086848683858583848186807e838324
:104c5c00818783878787858387817f81837c807f1a
:104c6c007f80807f8381828682848586858384840d
:104c7c007f80797d7a767d7677787a79797f7d7d7c
:104c8c007f80817c8081817f7f847e7c807d777832
:104c9c007a74747b7572777e7a7a8380818484824d
:104cac00848382868583828482797d8178788080f2
:104cbc007e7d84837f8587858385818386868787b0
:104ccc008a8881878680827c827e7a817e7b7d7fca
:104cdc007e7f828083807e8581818386837f8587aa
:104cec007b7e807c7a787b7e7b78807d7c7a7d7df8
:104cfc00767a807c7b8182857c81857b7a797f7ad0
:104d0c0077817e7780817e7c82827e8482847d80a6
:104d1c007f7b827f7d83827f8184817c8480807f86
:104d2c0086837c87847f81827e7d7f847e8187855c
:104d3c0080868a7f83847f7f797e7c787d797c7a7c
:104d4c007c817d7c7f7f8080818080817f837e845d
:104d5c00817d81807b7d807a797d7e777d807b7a79
:104d6c007c7f807d7f84838481838d817c89857c1d
:104d7c007f8081797c847980807b7d7e7f7d7d7c4a
:104d8c0081847c7f858981828c82818882838580e5
:104d9c008282807b7c7d7979807d7e8080827f831e
:104dac008181867e81847e837d7f807a7e7f7b7c01
:104dbc00817d7c7a7b7d7a7b7b7e7b7d7f7a878015
:104dcc007a8483807e898a7d848381807e7e7d7fc8
:104ddc007a7c797f8079807f7d7a7d7d7d79798001
:104dec007b7f81848087827e8a7f8482818687858f
:104dfc007f87868185897e7e858480797f827e7d92
:104e0c00827f787b837b79807f7d7c84848782859d
:104e1c00887b827b8079737c74797e7c77827b7ec5
:104e2c00838085787c867f7e818086827f87797778
:104e3c00877e757d7f787b8184797f858084838074
:104e4c008b87878c7e8e917e80827779797a7c7540
:104e5c007c8180828582878887877c868a84898505
:104e6c0080827c7b8479827d7d80727f74767f7674
:104e7c00757f7d7b837d7e83837f7e7c83867c7d3b
:104e8c00797a7a787e6f6e7a767b807d80858f805a
:104e9c0076807978737578767a7e8080898e8b8e21
:104eac008582877f8f94828787747c73767d7588e3
:104ebc007f8195948d928e8d91899b8b7885756f62
:104ecc007d77757b6f807e78948e7e89897c8e80d1
:104edc008182717e7168846e5f77697f8575868348
:104eec007d8183898f8987887b817b757c716c7cc4
:104efc00817b765e616d6c929b8ca399969c8d9850
:104f0c009879766767797096967f919088826f779b
:104f1c008383a39c8d866c61645452a98967bc8b76
:104f2c0087ce9c9abf7b7183553c4e525184847db5
:104f3c009b8c8d928884948d7a7d6a6a78818a7b29
:104f4c0083816570705b69818ca29d8b856f6a69aa
:104f5c00677f8a8d91828b93919a9080797a6b5e20
:104f6c005c515f718f9796a29b9c8e808b907b7b04
:104f7c00756272818597998a8d82787a7078888f1c
:104f8c008d867b6e56555e5078898191948b98a551
:104f9c009d9a93867b6d5344454d607983808a90ae
:104fac008b8b8c8f8b857f7e7b897288a750818eb3
:104fbc003e7f844f7b9f8099ab767f7b5f6c838237
:104fcc008d9b8184908c8a9f937686786a71655fbd
:104fdc00707e87989a9d928b80777d7c7a6a6e6ab8
:104fec00757c7a8e897c7a7a767880878b898979b8
:104ffc006d6b5c5f62697e85868e959896979b93a8
:10500c00897f7262504c4f586c84848998878b8d41
:10501c00909b908a8e848492888384766f7071784a
:10502c007880878d9b9c8e8d7b6974727e8d858339
:10503c00877a87908b968a847c6d6f66626b6f78ab
:10504c0087858c8f7f767770798574797c777e8075
:10505c0081867f77737276777d827c837d727467ad
:10506c00666b7381908a8c9b949b9e9da096888284
:10507c0070605d536270788b8c8e958e8d93939d42
:10508c009791938b8b897f7b7b716f7270787a7e13
:10509c0088858e887f776c6a6b6e7b8474767a7a5f
:1050ac0080838b8e847c7f706a6b656b7382888146
:1050bc0082836e6d777685857f8881838980898be5
:1050cc007f81847e848586878683837f75787578d7
:1050dc00819498939b9b989d9ea0a18d83796560ec
:1050ec005f5e62717d818185847b7c81848e8c89fd
:1050fc008a7f7d7a7171746a6c7070727480808131
:10510c00888274766c6a6c6d7b79717c807b858a05
:10511c008d9187848277787a73828c8f968c8c8928
:10512c00767f8686979492958a8f8f8692887f8bce
:10513c008584837c7f7f78867e757b7173767b8894
:10514c008784918988968c8d8a756f6254585153d7
:10515c00676e787c7a827a757b7a848f898b857876
:10516c007f736f7c70727d7d8083828c8e8e988b2a
:10517c0088887d7a7c7e8381868e8b959b9d9d967f
:10518c009390858282747f8c868e888181767576e9
:10519c007a848c8b8a837f82777a7b6f7478707138
:1051ac006c666b676d747172756f6c74797f7e86cb
:1051bc008a8590948d8981756f686564626d79803c
:1051cc0085888d8b8c8d8d939b9f999b908b8a84de
:1051dc008788848990878c8d898e9290908e8b880d
:1051ec007773746f757678827f868f868682787aed
:1051fc00726e6f686e736e70716c6a6c696f7782a9
:10520c0088807f8077787b7a7c757d7b7174706bfe
:10521c0075787d86838c8d84878d8f96919aa399d2
:10522c00a2a398999184857c787a7583827b8b88ec
:10523c00869088878e8d959185887b757b72757528
:10524c007277786d75716c7a717c7c747a6f646a24
:10525c0063676f6775797383817c847c7b7c767bd9
:10526c0079748078737e757b827d84878f9b98960a
:10527c009c9497a2999d9d96988e88877b7f817927
:10528c008687838e837d8280868983888681877ad0
:10529c007577676a6e646c6b6a7671717974777cfa
:1052ac00767978777f747272666a71717372797bb2
:1052bc0073787c757d817d8a87888b818387858fc8
:1052cc0093919e9c9aa09b9da095949a908d888b6f
:1052dc0087777a7c77797e7a7c8187888086887cd0
:1052ec00828884827b7d796c6868656668666d6f80
:1052fc0073756d6a6f6e7474727974797774727970
:10530c007474797782828387868b908b8e908b9046
:10531c00969a999692949092918b938d8a8a838384
:10532c00837f847f7c8489878684838a8087868137
:10533c00807b797b7675786f6f6d6d6d6d6d706838
:10534c006a70686e6b676d6d7174707478747d7e45
:10535c007d85858688878a88859088868e8f8e8db8
:10536c008a908f8890908c918f91928a968f878f4c
:10537c008a868e848986798582797e7c727c7e7f12
:10538c00817e817e787b7b7478716b6b636a645fe2
:10539c00686263706b6f76707d7d7f878386898191
:1053ac0085837d87837e82818388868a87878c8aa2
:1053bc008c928d8d8f92948e94938a8c958e9092e4
:1053cc008a89868686808183787d81787a767575e0
:1053dc007172736e70716f7271726e7272717272b1
:1053ec0072747575757873717b77757c7f80868721
:1053fc008884858b8a88888982848483828384824a
:10540c00878e8e8e96919397969a98928f8d8d917a
:10541c008685817d817c7b7b7b757574766f7078de
:10542c006e6c7370707472736f757674787c797639
:10543c007a757577767a73787d767c807b7e8182bf
:10544c008584878a86898e898b898a8b878b928db6
:10545c008c8e8a8e8b888f86868e858d8b898d859a
:10546c00868c84817e787a7971727270736a7472a8
:10547c006a7a797179797b7d787c77717c787275b1
:10548c00717477727c7b79817b7b7f7c8083798361
:10549c0082838b868b8a8990959094918d8e8f8b3d
:1054ac008c878889838985848a817f847e82827cab
:1054bc00807c80837c78797b7876737a7b777a743e
:1054cc00717674757370747177807d767c7d807f56
:1054dc00787c797478777578787a7b7f8384858dfe
:1054ec008a8a918e93928b928e899287878e8a8ce0
:1054fc0084848a8688867d807f7c7f7a7678787ca7
:10550c007c787c7c7a7f807b7f7f757d76767c73e4
:10551c007572737871787c717577797c7a797f7a0a
:10552c007d84797f837c80807f8785878681878453
:10553c00848d88848b8d8f928d8f8d8a8f89848ab0
:10554c00817f80787c7d7b7c7d7a7f7c81847a7d79
:10555c007e7d807b787c77797a74767973767775b3
:10556c007c797979727778757876747b7a7f847c9c
:10557c008386858c88898e878b89858b87858981a5
:10558c0083898386868080827e837f80807d8684eb
:10559c007f8a888186858b8c868c8a8087837b78b2
:1055ac0068635a5b686567787f83877f85827779c4
:1055bc0078777f828a91888e8b86816a56616a6d34
:1055cc00788397988d8f897d8381878b8f9da09a07
:1055dc0094928e8982858574605f6f766f758485f1
:1055ec00807f83848283898580898c877f858f8661
:1055fc007d8584785c4d6269696e7d857f6d707880
:10560c0064728982878d90927d8a9a8f8c90938c0c
:10561c007f6460747d828790937f76767d817b88b2
:10562c009389838c958b8b9396898795907451591c
:10563c00777e797d827f6e666c787177938b7a78c2
:10564c00848f7a75908e7e7a848c70485b7b878190
:10565c007d9087696d78807f798d9580818d92980a
:10566c00828da3918b968d865d517c888a818184f5
:10567c006e677986867e81908a788896937e809ce8
:10568c0094807f88855a456481876c6e76625e64ef
:10569c0079867b7885868082899c8e7d969a8e868b
:1056ac0082926b4a75889580768c7a68737e8f802f
:1056bc007991877c80909f9278979e8d938b8e6e3c
:1056cc004f738e8b7c6f756f646a81887c747d8858
:1056dc007f798a9a866e86968a78798355466f8a00
:1056ec0091726b78686e7484947c7a8d8b888894b4
:1056fc00a6817ea2a0917c857c5162879a896e7569
:10570c0079736f7993908180859089879d8b7b8d40
:10571c009193807c73575f7a8f896f666b6a69711e
:10572c00828479717d87868d927c8792948e7d841c
:10573c005e5770838a7a75757372748187828587d8
:10574c009093949d86859496978c8c6a576f898fcd
:10575c008176797c7473848a7b79828e8f91958122
:10576c007b8a928f827f58526679866f6d6a6c72d3
:10577c006f808477787e8e94998b81868c968990b5
:10578c00795867798a8472757275797e86847f7a86
:10579c00858f949684929499989085677179858277
:1057ac007b7c70707078857f7d7e7d858f8d7f840e
:1057bc008c958981755e69747b82706d6e6b70706f
:1057cc007b827e7d828f95847e8a95928f8f706886
:1057dc00727f8d7e7b7572787983848182828d9cb9
:1057ec008a808993968e8a786d76818a837b7a7586
:1057fc007a7980857d78768192817681888e7e809b
:10580c006b697377867d7d7371787b7c777d848201
:10581c00898e7c80818b8c807f6f727480827c817e
:10582c00787c7d858e8181858c9d9284868f9586f2
:10583c00827970767986807a79757e7c817e7c8798
:10584c00848f897b7d8490817e7066706d79777a88
:10585c00786b767d86837c8283918e82888b8e7f1b
:10586c007c786b71737c787879727a8287827b868c
:10587c008e9993828a93988b8c82737575857f7cb5
:10588c007d727b7c837f79818690807e85908f7af8
:10589c0082756d7272827a76706b7a7c80767a8081
:1058ac00878d7983888c8c7f837472767d827c7ae9
:1058bc00707c83837e7680878f86818b9494868b95
:1058cc007f7c7b77848282767a8383807882878dd3
:1058dc008a78878d8f837c8175766e777874746ef9
:1058ec007e807b787a858a887b81898c877c7f71a6
:1058fc006d6c727a79747181827e7b7a8a8f8c86d8
:10590c008691978f878a7b79767a86797375828868
:10591c0082797d868a8e818490908c85867b767246
:10592c007a807473707e827472768088877c818aa8
:10593c008d867f7d72727178797b7a757f7f7d79a8
:10594c007b818d877e848c9083827d7877757b7a42
:10595c007e7d828c868281858e9589878c918f7fc6
:10596c00837b747171797a7a7780817b7879838c77
:10597c008c82838d92887f817571696d7776767351
:10598c007f7b78767b888d867d838f9081838078f2
:10599c00726c777a79757d87817c7c87919188860a
:1059ac0092999083847e7772717b7d7b7b84837ede
:1059bc00797d898d857d818d8d817f7d746f6d73f2
:1059cc0077747a818580787a82898d827d858b89be
:1059dc007d7b74726c6c72757a7b84817d797f8926
:1059ec00918e868c93948987847c75747b7a7c7c6d
:1059fc008486807c7c878c8d84868c8e887d827658
:105a0c00726d727a757a7c86807b787e86898782c5
:105a1c00888b887f8078706d6e7974787b82817ac0
:105a2c007a7d83848781858a8b8783827772727b68
:105a3c007c7d81878983828388888f89898c8e8eef
:105a4c008686776f6b6f7775797b827f7a7b7d83a8
:105a5c008b8a838a8f9085857e706d6c767476794f
:105a6c007f817b7a7b80888b8280868c8881807218
:105a7c006d6f7178767d8388847d7f848c918e8721
:105a8c008b909388857e7574717a7a7c8083847b05
:105a9c007b7d838a8882848b8f84827d71706d7804
:105aac0078777d82837b7a7d8385898583878d88d2
:105abc00807b6c6c697074727c80857b7b80858745
