:020000040000fa
:10000000f8ff0020810f00007b0e0000bf130000ee
:1000100000000000000000000000000000000000e0
:10002000000000000000000000000000f3090000d4
:100030000000000000000000f3090000f3090000c8
:10004000f3090000f3090000f3090000f3090000c0
:10005000f3090000f3090000f3090000f3090000b0
:10006000f3090000f3090000f3090000f3090000a0
:10007000f3090000f309000000000000f30900008c
:10008000f3090000f3090000f3090000f309000080
:10009000f3090000f3090000f3090000f309000070
:1000a000f3090000f3090000f3090000f309000060
:1000b000f309000000000000f3090000f30900004c
:1000c000f3090000f3090000f3090000f309000040
:1000d000f3090000f3090000f3090000f309000030
:1000e000f3090000f3090000f3090000f309000020
:1000f000f3090000f3090000f3090000f309000010
:10010000f3090000f3090000f3090000f3090000ff
:10011000f3090000f3090000f3090000f3090000ef
:10012000f3090000f3090000f1120000f3090000d8
:10013000f3090000f3090000f30900008d1300002b
:10014000f3090000f3090000f3090000f3090000bf
:0c015000f3090000f3090000f3090000af
:020000040000fa
:10015c00f8b5c046f8bc08bc9e467047f5110000c7
:10016c00f8b5c046f8bc08bc9e467047d1110000db
:020000040000fa
:10017c000023f0b51600b1b0039007910493079dce
:10018c002b78002b00d1cbe001235b420c9310abfe
:10019c0000240e9380230b940d940f932b5d0bb1c5
:1001ac00252b2dd134b12900220003982d1901f0f3
:1001bc0029f80795079b1a78252a00d0a5e001336a
:1001cc001800002105930793243a03782b2b23d096
:1001dc002bd8202b23d0232b24d001b107902a2bf2
:1001ec002bd000f0ceff01250d900020079a1100b6
:1001fc000b780132303b092b63d968b307912be0a4
:10020c000134cbe701230b990b430b931100013005
:10021c00dbe702230b99f7e704230b99f4e7082398
:10022c000b99f1e710230b99eee72d2bead0302b2d
:10023c00efd00029d5d00790d3e7336801301a1dd1
:10024c001b68079032600d93002b05da01220b9985
:10025c005b424a400b920d930b9bda0702d50222ac
:10026c0093430b93079b1a782e2a0dd100270c97da
:10027c005a785d1c07952a2a25d1023307933368d7
:10028c001a1d1b6832600c9307a801f05ff8079ddc
:10029c000700287801f055fa252800d1d1e0613803
:1002ac00172800d9d7e001f0f7f91fd6b23ea2a269
:1002bc00a2d63ed6d6d6d6985e7dd6d6c2d64ed649
:1002cc00d66d280093e7280000f05bff01210c900d
:1002dc002a0013780135303b092b03d9002fd3d0da
:1002ec000792d1e70f00f3e73200390008a800f0bd
:1002fc00deff002800d177e06b1c079303982b7866
:10030c0008aa0ba901f03ffa2418049b1c19a3425c
:10031c0000dcabe04f22564b1a6001235b42049386
:10032c00049831b0f0bd33000122390008a800f068
:10033c00b2fa002858d00135039808aa0ba90795e2
:10034c0001f01ffae0e733000022390008a800f0a2
:10035c00a2fa002848d00135039808aa0ba90795e2
:10036c0001f00ffad0e733000022390008a800f0a2
:10037c0092fac8b30135039808aa0ba9079501f0a6
:10038c0000fac1e733000022390008a800f083fa14
:10039c0050b36b1c07932b78039808aa0ba900f099
:1003ac00e3f9b1e733000022f02108a800f073fa5a
:1003bc00d0b1089b099a0135134307955bb92d48b9
:1003cc0001f016f902000b9b2a4900930d9b039830
:1003dc0000f048fb98e77823dee7049b39001a19f4
:1003ec0008a8330000f0b6fb013507958de7320005
:1003fc00390008a800f05bff0028f5d06b1c0793b0
:10040c0003982b7808aa0ba901f0bdf97ce7802f83
:10041c00ead1336801351a1d1b68326008aa1370c3
:10042c000123079503980ba901f0aff96ce7802f16
:10043c00dad132680135131d336012680023079539
:10044c00f0e7802fd0d101220b9b013500930d9b3f
:10045c0007950949bbe7059b0122079300235242ec
:10046c000c920b930d9300930232f2e7049486e600
:0c047c00a4040020741700007a17000090
:020000040000fa
:10048800580400201c000000000000008004002028
:100498001000000000000000980400200400000084
:1004a80000000000ac040020030000000000000071
:1004b8009c04002004000000000000000804002044
:1004c8005000000000000000b00400206c00000094
:1004d80001000000bc040020b8040020bc04002077
:1004e80000000000250000000800002000040000b3
:1004f80000000000000000000000000000000000f4
:1005080000000000000000000000000000000000e3
:100518009b17000000000000000000000000000021
:1005280000000000a90c000000000000000000000e
:1005380000000000000000000000000000000000b3
:100548000000002008040000000000007c050020d6
:10055800200000000100000001000000030000006e
:100568000000000000000000000000000000000083
:100578000000000090040020900400200800000003
:1005880000000000a0040020080000000000000097
:100598001c050020600000000100000001000000b0
:1005a8000300000000000000000000000000000040
:1005b8000000000000000000210e00000000000004
:1005c80000000000000000006b170000a7170000e3
:1005d8000000000000000000000000000000000013
:1005e8000000000000000000000000000000000003
:1005f8000000000000000000000000009c05002032
:10060800040000000100000001000000a804002010
:100618000400000000000000740400200c0000002a
:10062800000000000000000000000000666666662a
:020000040000fa
:1006380041f20003c4f200030220187641f200419f
:10064800c4f2000100220a7441f60001c4f200015c
:1006580008621a8641f20002c4f2000280214904ad
:1006680013690b42fcd046f22003c0f280031b68da
:100678005b009b0e9b0240f200221343d200c4f29f
:100688000002536341f20002c4f2000280214904cf
:1006980013690b42fcd041f20003c4f200030222aa
:1006a8001a86d202c4f200028021490413690b425f
:1006b800fcd041f60043c4f2000340f20712c0f236
:1006c80001021a6241f60042c4f200020421536892
:1006d8001942fcd141f60043c4f20003a022402194
:1006e800995041f60042c4f20002a0201358194262
:1006f800fcd041f60043c4f20003d02240219950b7
:1007080041f60042c4f20002d02013581942fcd02e
:1007180041f60043c4f20003dc224021995041f61f
:100728000042c4f20002dc2013581942fcd041f602
:100738000043c4f20003e4224021995041f60042ec
:10074800c4f20002e42013581942fcd041f60043d9
:10075800c4f20003f0224021995041f60042c4f24d
:0c0768000002f02013581942fcd070472a
:020000040000fa
:10077400f0b58fb00c934b680d0008938b6816008e
:100784000993cb680f680393089b0b90002b42db03
:1007940002239f4310233a001a400d92099a0492af
:1007a4001f4206d033687268134313b1099b023b9e
:1007b400049308233b400a935a1e9341049a2c69dc
:1007c400d31a04933368039a06937368013c07931e
:1007d40000231355049b0593012c1fdc0d9b002b58
:1007e4004fd10a9b1bb12023039a013c13552a695c
:1007f400039b013a19190b98099b121b009700f0ef
:1008040035f90b9b5b68db0503d56b68984200da0e
:1008140018000fb0f0bd01230893bbe7069b079aad
:10082400134353b9049a089b9b1a059a9b18002bef
:1008340003dc002ad2ddbb07d0d50f23069a013c86
:10084400134018005730092b01dc303318000c9b7f
:10085400413b192b06d820230343613b192b01d8b4
:1008640000f07aff039b1855059b013b0593079bfa
:100874001a07069b1b091a43079b06921b09079339
:10088400aae70cce1343002babd0039b0c9a1b1985
:0e089400013b1a703023039a023c1355a1e772
:020000040000fa
:1008a20010b50400902911dc00207f2927dd803952
:1008b2000800102910d800f0f4fe2f2f3a0f110f64
:1008c2000f0f230f0f0f0f0f0f0f3a00c02947d042
:1008d200f02945d0a02925d0002010e019683ab1ae
:1008e2000a1d1a6000228b5e2360db17636005e03d
:1008f200081d18600b689bb223606260012010bd66
:10090200196822b10a1d1a600023cb56ece7081db4
:1009120018600b68dbb2efe71968eab10a1d1a60ca
:100922000b68e1e71a68111d19601368dce70720fc
:1009320019684ab1091881430a0008321a600a6824
:100942004b6822606360d9e7ca1d824311000831f7
:10095200196053681268f4e7081d18600b68cbe74a
:0e0962001a68111d1960136823600023bee798
:020000040000fa
:10097000f0b51600040002278269436987b09b1a0c
:1009800003939b19029204910596019302ad3a00dc
:100990002900206800f06cfd019b984208d1a368f3
:1009a000e268a3619a18a2626361300007b0f0bdeb
:1009b00000280cda102200236168a3620a43a361b5
:1009c00063616260022f12d06b68f61aede7019b3b
:1009d0001b1a01936b68984202d9c01a0835013f6f
:1009e0002b681b182b606b681b1a6b60cfe71e000f
:0209f000dbe743
:020000040000fa
:0209f200fee71e
:020000040000fa
:1009f4001d4af0b514680300200064b100222100f0
:100a0400160010000d68ac460d699c4509d12ab149
:100a1400156110310800f0bd2900f3e7124b1d6089
:100a2400f7e79c4505d910b10768bc4501d216000b
:100a340008000a00002defd10028ecd00500026860
:100a44000169d21a1035102a05d90360eb1819610f
:100a54001900103a1a60844203d1034b196028002c
:0c0a6400d9e73161fbe7c046a804002080
:020000040000fa
:100a7000f0b589b014000e9a1d00029101231100f7
:100a80001940019003911a4201d1a5420ad82200cf
:100a90000299019800f0bcfba54203d8250028006c
:100aa00009b0f0bd2e1b37003200102e00d91022e5
:100ab000202104a800f0ecfd0f2f0ed80f22019882
:100ac000324004a900f0a4fb039b002be7d12200d5
:100ad0000299019800f09cfbe1e71022019804a91b
:080ae00000f096fb103fe7e770
:020000040000fa
:100ae800f8b5866a04000f00150056b1a36a62695a
:100af8009b1aab420cd22a0039002000fff734ffc2
:100b080005e000f06bfd03003000002beed0f8bdcf
:100b1800002df0d03422a256002a1bdb2b00d2b2c3
:100b28001e00013bf95c914212d1320039002000cd
:100b3800fff71aff8642ead8bf19ae1b3200390008
:100b4800606900f08dfd636928009b196361dee729
:080b5800002be5d12e00f1e7ae
:020000040000fa
:100b600010b50400902911dc00207f291bdd80399d
:100b7000080010290ed800f095fd0f0f250d170d58
:100b80000d0d1e0d0d0d0d0d0d0d2500a02903d011
:100b9000c02901d0002006e01968081d18600b6804
:100ba00023601a60012010bd1968081d18600b68c9
:100bb00023601a80f6e71968081d18600b68236027
:100bc0001a70efe71968081d18600b6823601a6037
:060bd000d2175a60e6e7af
:020000040000fa
:100bd60043f60003c4f2002301221a7043f6000212
:100be600c4f200220121138c0b42fcd146f22003f1
:100bf600c0f280031b68190240f200720a409b068d
:100c06005b0f1a4343f60003c4f200239a850222bf
:100c16005a700321597382319970002119815981c3
:100c26000721997101215971da7043f60002c4f265
:0c0c36000022138c9bb2002bfbd17047f6
:020000040000fa
:100c420042f60003c4f2002301221a6042f60002b7
:100c5200c4f20022012193681942fcd142f600033a
:100c6200c4f2002341f200021a6000225a6158695c
:100c720040f60061c4f24001014359610221d96387
:100c82005a649a64da641a6540f65f121a640122a1
:100c92009a6212021a6242f60002c4f200229368b9
:060ca200002bfcd170479d
:020000040000fa
:100ca8007fb51600c2680d0013000091591e8b41d4
:100cb800f31a0193836804000392694602220068cc
:100cc800029300f0befb002808dc1822082102402d
:100cd800514062680a43626004b070bd0199814264
:100ce800fad2a268431ad3182364e368e2630bb903
:100cf8003000f1e7531ce3631378ad19013d2b7005
:020d0800f6e70c
:020000040000fa
:100d0a00f8b5002000f02bf840f62b70c0f2000076
:100d1a00002100f010fd00f0c9fb41f25750c0f26b
:100d2a000000002100f000fd00f0b0fb00f0cefb57
:100d3a0040f2ae44c2f20004002740f2ac46c2f2ce
:100d4a00000641f2b865c0f200052378002bfcd0fa
:0e0d5a002770318889b2280000f0c9fbf5e748
:020000040000fa
:100d680010b500f06efa44f20003c4f20013042236
:100d78005a6040f2b443c2f200031b6818680021ad
:100d880000f0a9fc40f29853c2f200031b681868ef
:100d9800002100f0a0fc00f03efbfff749fc00f04a
:100da80015f900f08ffcfff748ff00f045fcfff74e
:0c0db8000eff00f081f900f0a3f910bd5f
:020000040000fa
:100dc40000230e4a10b513600d4a0e4c13600e4af0
:100dd40013600e4a13600e4a13600e4a5362136185
:100de4000133936000f094fc00f0d9fc0a4b9c4260
:100df40000d310bd08cc9847f8e7c046a0040020f3
:100e040014040020680100001004002008040020dd
:0c0e14000c040020180400206c010000f9
:020000040000fa
:100e200070b504000d0008b9002070bd43689b0632
:100e300007d5426983699a4215d80023a362a3614a
:100e40006361e36b216c8b4204d201222068591a42
:100e500000f0a5fc00232364e363002de4d02068a8
:100e600000f090fce1e70022c36a11009847636933
:0a0e7000002be2d101204042d7e739
:020000040000fa
:020e7a00fee791
:020000040000fa
:100e7c0037b5134d04002b6873b100f047fb01909c
:100e8c0001a800f0ccfb0f230f300199984300f020
:100e9c0089fb50b100232b6004b901340f230f34ac
:100eac009c4324b90c22074b1a6000203ebd200045
:100ebc00fff79afd0028f9d0031f1c60f6e7c04627
:080ecc009c050020a404002095
:020000040000fa
:100ed400f8b507000e00002017b300f0d0f906b3f0
:100ee400002541f20002c4f200220424072105e097
:100ef400906a6b00f8520135ae420cd0137e234247
:100f0400fcd0538b0b4207d153680b40012befd01d
:100f1400936a7b55efe73500761b73425e41f0b26e
:060f2400f8bd3500f8e7fe
:020000040000fa
:100f2a0040f29843c2f200031b6842f60002c4f280
:100f3a000022126bd20306d41b021b0a42f60002dd
:100f4a00c4f20022136740f29843c2f200031a68ff
:100f5a0040f2d0739a4206d940f29843c2f2000393
:100f6a0000221a60704740f29843c2f200031a68de
:060f7a0019321a60f6e7cf
:020000040000fa
:100f800010b541f2f743c0f20003984741f2f7432e
:100f9000c0f20003984700f0c5f940f20003c0f228
:100fa00000037f2293434ef60052cef2000293607c
:100fb00040f6c553c0f20003984741f2f743c0f230
:100fc0000003984741f2f743c0f200039847fff748
:040fd0009cfefee79e
:020000040000fa
:100fd40041f20003c4f2002340f20412c4f21002ee
:100fe4001a600e4a9a81c02292025a6041f20002ab
:100ff400c4f20022d369002bfcd141f20003c4f2f5
:1010040000231a6802210a431a6041f20002c4f262
:101014000022d369002bfcd17047c0462bf6ffff9a
:020000040000fa
:1010240070b5104d04002b6863b1002c12da0e4a1f
:101034002b6812689b1a6242934208db28680419e1
:101044002c6006e000f0baf92b68002bedd10120ea
:10105400404270bd054b2a681b689b1aa342edda17
:10106400f5e7c046740400207c04002078040020c6
:020000040000fa
:1010740070b5040016001d00022a1bd043689b06ad
:1010840018d439b90db940f2004528000830fff7eb
:10109400f3fe010020236268a16013436360e560ee
:1010a4000a23012e01d001235b4222003432137043
:0c10b400014be362002070bde90a00005f
:020000040000fa
:1010c00041f60043c4f2002301221a6041f60042b7
:1010d000c4f20022012113691942fcd141f60043f8
:1010e000c4f2002310221a600d3a1a735c329a83fc
:1010f0002c3a9a72cd32da8041f60042c4f20022d4
:081100001369002bfcd17047bc
:020000040000fa
:10110800bff35f8f62b64ef20013cef2000340f2d7
:10111800383019580a4a1140c02212040a431a509a
:101128008022d2045a6004301a581202120ac021ce
:1011380009060a431a50802212065a607047c046b0
:04114800ffff00ffa6
:020000040000fa
:10114c0070b5d0b1d9b1002541f20002c4f2002231
:10115c000124072605e06b00c35a93620135a942ae
:10116c0009d0137e2342fcd053683340012bf2d0bc
:10117c00435d9362f2e7012070bd0020fce7012083
:02118c00fae780
:020000040000fa
:10118e00030010b51a78202a0ad011000939042953
:10119e0006d92b2a06d000212d2a05d1012102e0e5
:1011ae000133efe70021013300200a2402e06043ff
:1011be000133801a1a78303a092af8d901b9404217
:0211ce0010bd52
:020000040000fa
:1011d00010b5054c237833b9044b13b1044800e033
:1011e00000bf0123237010bd580400200000000040
:1011f00000000000034b10b51bb10349034800e099
:1012000000bf10bd000000005c04002000000000d2
:020000040000fa
:10121000436870b50400d80511d52569954200d9f9
:1012200015005db12a00606900f01efa2269636949
:10123000521b226100225b1963611a7070bddb06cc
:0a124000fcd4200000f054faf8e797
:020000040000fa
:10124a0040f20043c4f2000300221a819a79012174
:10125a000a439a719b7803221340022b0bd040f267
:10126a000043c4f20003013a9a705202c4f2000227
:08127a0093790b42fcd0704790
:020000040000fa
:1012820041f20003c4f200235b8b5b0713d041f2ef
:101292000003c4f2002380221a76793a5a831b7e15
:1012a2005b0708d541f20003c4f2002304219a6ac5
:0812b2001a7e0a42fbd17047cd
:020000040000fa
:1012ba0010b50400812906dc00207f2912dd13689d
:1012ca000721073305e0002083290bd113687c39f5
:1012da0007338b4319000120083111601a685b68d3
:0612ea002260636010bdec
:020000040000fa
:1012f00010b540f28843c2f20003596842f600027a
:10130000c4f20022d06a4ff60f44c0f20f04d46238
:10131000d26a1b682bb140f28843c2f200031b68fb
:04132000984710bd1d
:020000040000fa
:1013240010b50a48016821b9436813b900f03df9c2
:1013340010bd04008368064a9bb20c349b009b5882
:1013440042682000984780002018ebe788040000da
:04135400541600002b
:020000040000fa
:101358000200002030b50a4943005c5c14b95b18f0
:10136800587830bd116801300d78c0b2a54204d15b
:10137800034801311b18587811600a28ebd9f0e7a7
:041388001416000037
:020000040000fa
:10138c0010b543f60003c4f200239a79d2b20121be
:10139c00997140f28043c2f200031b6843b140f2e2
:1013ac008043c2f2000359681b6801201040984723
:0213bc0010bd62
:020000040000fa
:0213be00fee748
:020000040000fa
:1013c000064b1a680ab9064a1a60064a116809b932
:1013d000054911601a68054b1a6070477c040020ab
:1013e000a805002078040020a8070020740400202d
:020000040000fa
:1013f00001000022030048318a56501e02430a7041
:101400005968042208001040114205d001200c3216
:0e1410000a435a60404270471864d863fbe7f5
:020000040000fa
:10141e0043f20003c4f20003012242215a54023166
:10142e005a5413395a54013104205854a2315a5483
:0c143e0001315a54b932b3399954704747
:020000040000fa
:10144a00f7b5002516000c002f000190b74201db0a
:10145a002800febd62682168019800f068f801372b
:06146a002d180834f2e722
:020000040000fa
:10147000f7b5002516000c002f000190b74201dbe4
:101480002800febd62682168019800f082f80137eb
:061490002d180834f2e7fc
:020000040000fa
:1014960043f60003c4f200231a7802210a431a70a5
:1014a60043f60002c4f20022138c0b42fcd17047b3
:020000040000fa
:1014b60042f60003c4f200231a6802210a431a60a6
:1014c60042f60002c4f2002293681942fcd170472a
:020000040000fa
:1014d60041f60043c4f200231a6802210a431a6047
:1014e60041f60042c4f2002213691942fcd170474a
:020000040000fa
:0214f60070473d
:020000040000fa
:1014f8000fb407b5054b04aa1b6802ca1868019205
:1015080000f060f803b008bc04b018479805002044
:020000040000fa
:1015180010b5054c23680bb9fff74eff034b18684d
:101528002368c01a10bdc046740400207804002047
:020000040000fa
:1015380010b503000c00002043b9180032b1012196
:0e1548002000fff7c3fc0028f9d0012010bde1
:020000040000fa
:1015560010b500f0e4f840f2ac43c2f20003188084
:0e15660040f2ae43c2f2000301221a7010bd23
:020000040000fa
:10157400002310b5934206d103201840421e904127
:0e1584009b08c01810bdc45ccc540133f2e7c4
:020000040000fa
:1015920070b50d001400012801d0200070bd21009b
:0c15a2002800fff7d2fd0028f9d0f6e782
:020000040000fa
:0215ae00704784
:020000040000fa
:1015b000054a10b51468030000201cb913601861b7
:0c15c0001960013010bdc046a8040020d6
:020000040000fa
:1015cc0013b50400019201aafef7d2fd6368db0695
:0815dc0001d50120404216bdbb
:020000040000fa
:1015e40010b50400fff702ff28b9a368e268a361fd
:0815f40063619b18a36210bda6
:020000040000fa
:1015fc00037833b103005a780133002afbd1181a4f
:08160c0070470020fce7c04616
:020000040000fa
:1016140068076c094c836a9074a07ac0008068885b
:0616240000846c820081cd
:020000040000fa
:10162a00006810b5002801da002010bdfff7f5fcac
:06163a00431cfad1f8e7a1
:020000040000fa
:101640008423db0540f246120121995440f22962bd
:041650001a62704763
:020000040000fa
:1016540003170000751500008b1700008b1700009e
:041664008b170000e0
:020000040000fa
:1016680010b52ab10023cc5cc45401339342fad19b
:0416780010bdc0469b
:020000040000fa
:10167c0010b500f07df8024b1860586010bdc046e4
:04168c0090040020a6
:020000040000fa
:1016900032b10300c9b21218197001339342fbd161
:0416a0007047c04689
:020000040000fa
:1016a40002b4714649084900095c49008e4402bcf1
:0416b4007047c04675
:020000040000fa
:1016b8000d2041444320526573756c743a2030788c
:0316c800255800a2
:020000040000fa
:1016cc0044f20003c4f2001306225a60053a1a725f
:0216dc00704755
:020000040000fa
:1016de004a424a4110b540f200435200fff7c3fca4
:0216ee0010bd2d
:020000040000fa
:1016f000c36a10b50bb1984710bd0068fff749ffea
:02170000fae706
:020000040000fa
:101702008a18914201d10020704700230b700131e9
:02171200f7e7f7
:020000040000fa
:1017140010b5fff7b1ff00f043f800f041f810bd39
:020000040000fa
:0e17240043f60003c4f20023988c80b2704795
:020000040000fa
:0e17320040f28043c2f2000318605960704715
:020000040000fa
:0e17400040f28843c2f20003186059607047ff
:020000040000fa
:0e174e000300413b192b01d82023184370479c
:020000040000fa
:0e175c000300613b192b01d85f231840704732
:020000040000fa
:0a176a0010b50068fff710ff10bd76
:020000040000fa
:08177400286e696c29002500b4
:020000040000fa
:08177c00004870471c05002025
:020000040000fa
:0617840001204042704705
:020000040000fa
:04178a000020704784
:020000040000fa
:04178e000020704780
:020000040000fa
:04179200002070477c
:020000040000fa
:041796000020704778
:020000040000fa
:04179a000020704774
:020000040000fa
:04179e000020704770
:020000040000fa
:0217a20070478e
:020000040000fa
:0217a40070478c
:020000040000fa
:0217a60070478a
:020000040000fa
:0200000400807a
:0440000077438fb0c3
:020000040000fa
:0200000400807a
:04400400bbf0ffff0f
:020000040000fa
:0200000400807a
:04c004000000e8ff51
:020000040000fa
:0200000400807a
:04c04000ffffffff00
:020000040000fa
:0200000400807a
:04c04400fffffffffc
:020000040000fa
:0200000400807a
:04c04800fffffffff8
:020000040000fa
:0200000400807a
:04c04c00fffffffff4
:00000001FF
