:020000040000fa
:10000000f8ff0020cd030000ed060000ef06000021
:1000100000000000000000000000000000000000e0
:10002000000000000000000000000000a706000023
:100030000000000000000000a70600007905000095
:10004000a7060000a7060000a7060000a7060000fc
:10005000a7060000a7060000a7060000a7060000ec
:10006000a7060000a7060000a7060000a7060000dc
:10007000a7060000a706000000000000a706000079
:10008000a7060000a7060000a7060000a7060000bc
:10009000a7060000a7060000a7060000a7060000ac
:1000a000a7060000a7060000a7060000a70600009c
:1000b000a706000000000000a7060000a706000039
:1000c000a7060000a7060000a7060000a70600007c
:1000d000a7060000a7060000a7060000a70600006c
:1000e000a7060000a7060000a7060000a70600005c
:1000f000a7060000a7060000a7060000a70600004c
:10010000a7060000a7060000a7060000a70600003b
:10011000a7060000a7060000a7060000a70600002b
:10012000a7060000a7060000a7060000a70600001b
:10013000a7060000a7060000a7060000a70600000b
:10014000a7060000a7060000a7060000a7060000fb
:0c015000a7060000a7060000a70600009c
:020000040000fa
:10015c00f8b5c046f8bc08bc9e4670479104000038
:10016c00f8b5c046f8bc08bc9e4670476d0400004c
:020000040000fa
:10017c0041f20003c4f200030220187641f2004160
:10018c00c4f2000100220a7441f60001c4f200011d
:10019c0008621a8641f20002c4f20002802149046e
:1001ac0013690b42fcd046f22003c0f280031b689b
:1001bc005b009b0e9b0240f200221343d200c4f260
:1001cc000002536341f20002c4f200028021490490
:1001dc0013690b42fcd041f20003c4f2000302226b
:1001ec001a86d202c4f200028021490413690b4220
:1001fc00fcd041f60043c4f2000340f20712c0f2f7
:10020c0001021a6241f60042c4f200020421536852
:10021c001942fcd141f60043c4f20003e422402110
:10022c00995041f60042c4f20002e42013581942de
:04023c00fcd070473b
:020000040000fa
:1002400010b5002000f068f900f022fa0f2000f04d
:10025000aaf9322000f0bcf900f0e0f98e2000f09d
:10026000dff800f0ebf9182000f09df9322000f0e3
:10027000aff900f0d3f98e2000f0d2f800f0def9eb
:100280001e2000f090f9322000f0a2f900f0c6f92b
:100290008e2000f0c5f800f0d1f9282000f083f995
:1002a000322000f095f900f0b9f98e2000f0b8f88e
:1002b00000f0c4f9302000f076f9322000f088f91f
:1002c00000f0acf98e2000f0abf800f0b7f9372061
:1002d00000f069f9322000f07bf900f09ff98e20e0
:1002e00000f09ef800f0aaf9402000f05cf93220fe
:1002f00000f06ef900f092f98e2000f091f800f015
:040300009df9a3e7d9
:020000040000fa
:1003040042f60003c4f2002301221a6042f60002fe
:10031400c4f20022012193681942fcd142f6000381
:10032400c4f2002341f200021a6000225a615869a3
:1003340040f60061c4f24001014359610221d963ce
:1003440041f20021c0f27a0159649a64da641a65b0
:1003540042f20042c0f2f4021a6442f60002c4f20d
:0a03640000229368002bfcd17047c3
:020000040000fa
:02036e007047d6
:020000040000fa
:1003700000230e4a10b513600d4a0e4c13600e4a4e
:1003800013600e4a13600e4a13600e4a53621361e3
:100390000133936000f0aef900f0acf90a4b9c42d7
:1003a00000d310bd08cc9847f8e7c0467c00002079
:1003b0000c00002068010000080000200000002060
:0c03c00004000020100000206c01000070
:020000040000fa
:1003cc0010b540f2f163c0f20003984740f2f163bc
:1003dc00c0f20003984700f07ff840f20003c0f22f
:1003ec0000037f2293434ef60052cef2000293603c
:1003fc0040f27133c0f20003984740f2f163c0f24f
:10040c000003984740f2f163c0f200039847fff7ee
:04041c0011fffee7e7
:020000040000fa
:1004200070b502004ef21003cef200035e681b6846
:10043000db071ad54bf6803050434ef21003cef254
:1004400000039a6888b1013600214ef21004cef202
:10045000000404e0b51aeb18c918884205d9130046
:0c046000a2689a42f6d89b1af6e770bd1d
:020000040000fa
:10046c0010b5054c237833b9044b13b1044800e0a4
:10047c0000bf0123237010bd5000002000000000bd
:10048c0000000000034b10b51bb10349034800e00a
:10049c0000bf10bd00000000540000200000000050
:020000040000fa
:1004ac0040f20043c4f2000300221a819a79012120
:1004bc000a439a719b7803221340022b0bd040f213
:1004cc000043c4f20003013a9a705202c4f20002d3
:0804dc0093790b42fcd070473c
:020000040000fa
:1004e40010b50a48016821b9436813b900f0fff850
:1004f40010bd04008368064a9bb20c349b009b58d1
:1005040042682000984780002018ebe74805000067
:04051400a806000035
:020000040000fa
:1005180010b5fff7c7ff44f20003c4f2001304222a
:100528005a6000f0a6f8fff725fe00f0c3f8fff7c1
:10053800e5fefff718ff00f05af800f0cdf810bdff
:020000040000fa
:10054800500000202c0000000000000000000020e7
:1005580050000000000000007c00002004000000a3
:1005680000000000000000000000000066666666eb
:020000040000fa
:1005780010b540f26c03c2f2000358684ef2100244
:10058800cef2000212689a6801329a601b682bb199
:0e05980040f26c03c2f200031b68984710bdce
:020000040000fa
:1005a600800146f60043c0f2dc23b3fbf0f3013bc7
:1005b60042f60002c4f20022136442f60002c4f2bc
:0a05c60000229368002bfcd170475f
:020000040000fa
:1005d00042f60003c4f200231a6c01325043642235
:1005e000b0fbf2f0586442f60002c4f200229368b5
:0605f000002bfcd1704756
:020000040000fa
:1005f6004ef21003cef2000300221a609a604bf608
:100606007f3159600621196040f26c03c2f2000383
:060616009a601a607047b3
:020000040000fa
:10061c0042f60003c4f200231a6802210a431a604e
:10062c0042f60002c4f2002293681942fcd17047d2
:020000040000fa
:10063c0042f60003c4f200231a6802218a431a60ae
:10064c0042f60002c4f2002293681942fcd17047b2
:020000040000fa
:10065c00002310b5934206d103201840421e90414e
:0e066c009b08c01810bdc45ccc540133f2e7eb
:020000040000fa
:10067a0043f20003c4f20003442201219954123abe
:06068a0003319954704792
:020000040000fa
:100690004ef21003cef2000300229a601a68012184
:0606a0000a431a607047d6
:020000040000fa
:0206a600fee76d
:020000040000fa
:1006a800cf0600005d060000e9060000e90600002c
:0406b800e90600004f
:020000040000fa
:1006bc0044f20003c4f2001306225a60053a1a727f
:0206cc00704775
:020000040000fa
:1006ce008a18914201d10020704700230b7001312e
:0206de00f7e73c
:020000040000fa
:0806e000bff35f8f62b67047a3
:020000040000fa
:0406e8000020704737
:020000040000fa
:0206ec00fee727
:020000040000fa
:0206ee00fee725
:020000040000fa
:0206f000704751
:020000040000fa
:0206f20070474f
:020000040000fa
:0206f40070474d
:020000040000fa
:0200000400807a
:0440000077438fb0c3
:020000040000fa
:0200000400807a
:04400400bbf0ffff0f
:020000040000fa
:0200000400807a
:04c004000000e8ff51
:020000040000fa
:0200000400807a
:04c04000ffffffff00
:020000040000fa
:0200000400807a
:04c04400fffffffffc
:020000040000fa
:0200000400807a
:04c04800fffffffff8
:020000040000fa
:0200000400807a
:04c04c00fffffffff4
:00000001FF
